{
	"marketplace-contract/Market.sol": {
		"Market": {
			"abi": [
				{
					"inputs": [
						{
							"internalType": "address",
							"name": "_factory",
							"type": "address"
						}
					],
					"stateMutability": "nonpayable",
					"type": "constructor"
				},
				{
					"anonymous": false,
					"inputs": [
						{
							"indexed": false,
							"internalType": "uint256",
							"name": "id",
							"type": "uint256"
						},
						{
							"indexed": false,
							"internalType": "address",
							"name": "seller",
							"type": "address"
						},
						{
							"indexed": false,
							"internalType": "uint256",
							"name": "timestamp",
							"type": "uint256"
						}
					],
					"name": "ProductAdded",
					"type": "event"
				},
				{
					"inputs": [
						{
							"internalType": "uint256",
							"name": "amountInUSD",
							"type": "uint256"
						}
					],
					"name": "_convertUSDToETH",
					"outputs": [
						{
							"internalType": "uint256",
							"name": "",
							"type": "uint256"
						}
					],
					"stateMutability": "nonpayable",
					"type": "function"
				},
				{
					"inputs": [
						{
							"internalType": "string",
							"name": "_name",
							"type": "string"
						},
						{
							"internalType": "string",
							"name": "_description",
							"type": "string"
						},
						{
							"internalType": "string",
							"name": "_image",
							"type": "string"
						},
						{
							"internalType": "uint256",
							"name": "_price",
							"type": "uint256"
						}
					],
					"name": "addProduct",
					"outputs": [],
					"stateMutability": "nonpayable",
					"type": "function"
				},
				{
					"inputs": [
						{
							"internalType": "uint256",
							"name": "_id",
							"type": "uint256"
						}
					],
					"name": "cancelPurchase",
					"outputs": [],
					"stateMutability": "nonpayable",
					"type": "function"
				},
				{
					"inputs": [
						{
							"internalType": "uint256",
							"name": "_newFee",
							"type": "uint256"
						}
					],
					"name": "changeFee",
					"outputs": [],
					"stateMutability": "nonpayable",
					"type": "function"
				},
				{
					"inputs": [
						{
							"internalType": "uint256",
							"name": "_id",
							"type": "uint256"
						},
						{
							"internalType": "uint256",
							"name": "_newPrice",
							"type": "uint256"
						}
					],
					"name": "changePrice",
					"outputs": [],
					"stateMutability": "nonpayable",
					"type": "function"
				},
				{
					"inputs": [
						{
							"internalType": "uint256",
							"name": "_id",
							"type": "uint256"
						}
					],
					"name": "confirmRecieved",
					"outputs": [],
					"stateMutability": "nonpayable",
					"type": "function"
				},
				{
					"inputs": [],
					"name": "factory",
					"outputs": [
						{
							"internalType": "address",
							"name": "",
							"type": "address"
						}
					],
					"stateMutability": "view",
					"type": "function"
				},
				{
					"inputs": [],
					"name": "fee",
					"outputs": [
						{
							"internalType": "uint256",
							"name": "",
							"type": "uint256"
						}
					],
					"stateMutability": "view",
					"type": "function"
				},
				{
					"inputs": [],
					"name": "getAllProducts",
					"outputs": [
						{
							"components": [
								{
									"internalType": "uint256",
									"name": "id",
									"type": "uint256"
								},
								{
									"internalType": "address payable",
									"name": "seller",
									"type": "address"
								},
								{
									"internalType": "string",
									"name": "name",
									"type": "string"
								},
								{
									"internalType": "string",
									"name": "description",
									"type": "string"
								},
								{
									"internalType": "string",
									"name": "image",
									"type": "string"
								},
								{
									"internalType": "uint256",
									"name": "priceInUSD",
									"type": "uint256"
								},
								{
									"internalType": "uint256",
									"name": "buyPriceInETH",
									"type": "uint256"
								},
								{
									"internalType": "address payable",
									"name": "buyer",
									"type": "address"
								},
								{
									"internalType": "enum Market.Status",
									"name": "status",
									"type": "uint8"
								},
								{
									"internalType": "uint256",
									"name": "listed_on",
									"type": "uint256"
								}
							],
							"internalType": "struct Market.Product[]",
							"name": "",
							"type": "tuple[]"
						}
					],
					"stateMutability": "view",
					"type": "function"
				},
				{
					"inputs": [
						{
							"internalType": "uint256",
							"name": "",
							"type": "uint256"
						}
					],
					"name": "products",
					"outputs": [
						{
							"internalType": "uint256",
							"name": "id",
							"type": "uint256"
						},
						{
							"internalType": "address payable",
							"name": "seller",
							"type": "address"
						},
						{
							"internalType": "string",
							"name": "name",
							"type": "string"
						},
						{
							"internalType": "string",
							"name": "description",
							"type": "string"
						},
						{
							"internalType": "string",
							"name": "image",
							"type": "string"
						},
						{
							"internalType": "uint256",
							"name": "priceInUSD",
							"type": "uint256"
						},
						{
							"internalType": "uint256",
							"name": "buyPriceInETH",
							"type": "uint256"
						},
						{
							"internalType": "address payable",
							"name": "buyer",
							"type": "address"
						},
						{
							"internalType": "enum Market.Status",
							"name": "status",
							"type": "uint8"
						},
						{
							"internalType": "uint256",
							"name": "listed_on",
							"type": "uint256"
						}
					],
					"stateMutability": "view",
					"type": "function"
				},
				{
					"inputs": [
						{
							"internalType": "uint256",
							"name": "_id",
							"type": "uint256"
						}
					],
					"name": "purchase",
					"outputs": [],
					"stateMutability": "payable",
					"type": "function"
				},
				{
					"inputs": [
						{
							"internalType": "uint256",
							"name": "_id",
							"type": "uint256"
						}
					],
					"name": "remove",
					"outputs": [],
					"stateMutability": "nonpayable",
					"type": "function"
				},
				{
					"inputs": [
						{
							"internalType": "uint256",
							"name": "_id",
							"type": "uint256"
						}
					],
					"name": "sendProduct",
					"outputs": [],
					"stateMutability": "nonpayable",
					"type": "function"
				}
			],
			"devdoc": {
				"kind": "dev",
				"methods": {},
				"version": 1
			},
			"evm": {
				"assembly": "    /* \"marketplace-contract/Market.sol\":90:4944  contract Market {... */\n  mstore(0x40, 0x80)\n    /* \"marketplace-contract/Market.sol\":259:260  5 */\n  0x05\n    /* \"marketplace-contract/Market.sol\":238:260  uint256 public fee = 5 */\n  0x01\n  sstore\n    /* \"marketplace-contract/Market.sol\":1596:1663  constructor(address _factory) {... */\n  callvalue\n  dup1\n  iszero\n  tag_1\n  jumpi\n  0x00\n  dup1\n  revert\ntag_1:\n  pop\n  mload(0x40)\n  sub(codesize, bytecodeSize)\n  dup1\n  bytecodeSize\n  dup4\n  codecopy\n  dup2\n  add\n  0x40\n  dup2\n  swap1\n  mstore\n  tag_2\n  swap2\n  tag_3\n  jump\t// in\ntag_2:\n    /* \"marketplace-contract/Market.sol\":1637:1644  factory */\n  0x00\n    /* \"marketplace-contract/Market.sol\":1637:1655  factory = _factory */\n  dup1\n  sload\n  not(sub(shl(0xa0, 0x01), 0x01))\n  and\n  sub(shl(0xa0, 0x01), 0x01)\n  swap3\n  swap1\n  swap3\n  and\n  swap2\n  swap1\n  swap2\n  or\n  swap1\n  sstore\n    /* \"marketplace-contract/Market.sol\":90:4944  contract Market {... */\n  jump(tag_7)\n    /* \"#utility.yul\":14:304   */\ntag_3:\n    /* \"#utility.yul\":84:90   */\n  0x00\n    /* \"#utility.yul\":137:139   */\n  0x20\n    /* \"#utility.yul\":125:134   */\n  dup3\n    /* \"#utility.yul\":116:123   */\n  dup5\n    /* \"#utility.yul\":112:135   */\n  sub\n    /* \"#utility.yul\":108:140   */\n  slt\n    /* \"#utility.yul\":105:157   */\n  iszero\n  tag_9\n  jumpi\n    /* \"#utility.yul\":153:154   */\n  0x00\n    /* \"#utility.yul\":150:151   */\n  dup1\n    /* \"#utility.yul\":143:155   */\n  revert\n    /* \"#utility.yul\":105:157   */\ntag_9:\n    /* \"#utility.yul\":179:195   */\n  dup2\n  mload\n  sub(shl(0xa0, 0x01), 0x01)\n    /* \"#utility.yul\":224:255   */\n  dup2\n  and\n    /* \"#utility.yul\":214:256   */\n  dup2\n  eq\n    /* \"#utility.yul\":204:274   */\n  tag_10\n  jumpi\n    /* \"#utility.yul\":270:271   */\n  0x00\n    /* \"#utility.yul\":267:268   */\n  dup1\n    /* \"#utility.yul\":260:272   */\n  revert\n    /* \"#utility.yul\":204:274   */\ntag_10:\n    /* \"#utility.yul\":293:298   */\n  swap4\n    /* \"#utility.yul\":14:304   */\n  swap3\n  pop\n  pop\n  pop\n  jump\t// out\ntag_7:\n    /* \"marketplace-contract/Market.sol\":90:4944  contract Market {... */\n  dataSize(sub_0)\n  dup1\n  dataOffset(sub_0)\n  0x00\n  codecopy\n  0x00\n  return\nstop\n\nsub_0: assembly {\n        /* \"marketplace-contract/Market.sol\":90:4944  contract Market {... */\n      mstore(0x40, 0x80)\n      jumpi(tag_1, lt(calldatasize, 0x04))\n      shr(0xe0, calldataload(0x00))\n      dup1\n      0xb3de019c\n      gt\n      tag_15\n      jumpi\n      dup1\n      0xd30e1c9c\n      gt\n      tag_16\n      jumpi\n      dup1\n      0xd30e1c9c\n      eq\n      tag_11\n      jumpi\n      dup1\n      0xd83ed881\n      eq\n      tag_12\n      jumpi\n      dup1\n      0xddca3f43\n      eq\n      tag_13\n      jumpi\n      dup1\n      0xefef39a1\n      eq\n      tag_14\n      jumpi\n      0x00\n      dup1\n      revert\n    tag_16:\n      dup1\n      0xb3de019c\n      eq\n      tag_8\n      jumpi\n      dup1\n      0xc3634ddc\n      eq\n      tag_9\n      jumpi\n      dup1\n      0xc45a0155\n      eq\n      tag_10\n      jumpi\n      0x00\n      dup1\n      revert\n    tag_15:\n      dup1\n      0x02ee3a52\n      eq\n      tag_2\n      jumpi\n      dup1\n      0x24df201e\n      eq\n      tag_3\n      jumpi\n      dup1\n      0x4cc82215\n      eq\n      tag_4\n      jumpi\n      dup1\n      0x6a1db1bf\n      eq\n      tag_5\n      jumpi\n      dup1\n      0x7acc0b20\n      eq\n      tag_6\n      jumpi\n      dup1\n      0x8165fed5\n      eq\n      tag_7\n      jumpi\n    tag_1:\n      0x00\n      dup1\n      revert\n        /* \"marketplace-contract/Market.sol\":4495:4594  function getAllProducts() public view returns (Product[] memory) {... */\n    tag_2:\n      callvalue\n      dup1\n      iszero\n      tag_17\n      jumpi\n      0x00\n      dup1\n      revert\n    tag_17:\n      pop\n      tag_18\n      tag_19\n      jump\t// in\n    tag_18:\n      mload(0x40)\n      tag_20\n      swap2\n      swap1\n      tag_21\n      jump\t// in\n    tag_20:\n      mload(0x40)\n      dup1\n      swap2\n      sub\n      swap1\n      return\n        /* \"marketplace-contract/Market.sol\":2910:3082  function sendProduct(uint256 _id)... */\n    tag_3:\n      callvalue\n      dup1\n      iszero\n      tag_22\n      jumpi\n      0x00\n      dup1\n      revert\n    tag_22:\n      pop\n      tag_23\n      tag_24\n      calldatasize\n      0x04\n      tag_25\n      jump\t// in\n    tag_24:\n      tag_26\n      jump\t// in\n    tag_23:\n      stop\n        /* \"marketplace-contract/Market.sol\":4135:4287  function remove(uint256 _id)... */\n    tag_4:\n      callvalue\n      dup1\n      iszero\n      tag_27\n      jumpi\n      0x00\n      dup1\n      revert\n    tag_27:\n      pop\n      tag_23\n      tag_29\n      calldatasize\n      0x04\n      tag_25\n      jump\t// in\n    tag_29:\n      tag_30\n      jump\t// in\n        /* \"marketplace-contract/Market.sol\":4856:4941  function changeFee(uint256 _newFee) public onlyAdmin {... */\n    tag_5:\n      callvalue\n      dup1\n      iszero\n      tag_31\n      jumpi\n      0x00\n      dup1\n      revert\n    tag_31:\n      pop\n      tag_23\n      tag_33\n      calldatasize\n      0x04\n      tag_25\n      jump\t// in\n    tag_33:\n      tag_34\n      jump\t// in\n        /* \"marketplace-contract/Market.sol\":269:294  Product[] public products */\n    tag_6:\n      callvalue\n      dup1\n      iszero\n      tag_35\n      jumpi\n      0x00\n      dup1\n      revert\n    tag_35:\n      pop\n      tag_36\n      tag_37\n      calldatasize\n      0x04\n      tag_25\n      jump\t// in\n    tag_37:\n      tag_38\n      jump\t// in\n    tag_36:\n      mload(0x40)\n      tag_20\n      swap11\n      swap10\n      swap9\n      swap8\n      swap7\n      swap6\n      swap5\n      swap4\n      swap3\n      swap2\n      swap1\n      tag_40\n      jump\t// in\n        /* \"marketplace-contract/Market.sol\":1767:2345  function addProduct(... */\n    tag_7:\n      callvalue\n      dup1\n      iszero\n      tag_41\n      jumpi\n      0x00\n      dup1\n      revert\n    tag_41:\n      pop\n      tag_23\n      tag_43\n      calldatasize\n      0x04\n      tag_44\n      jump\t// in\n    tag_43:\n      tag_45\n      jump\t// in\n        /* \"marketplace-contract/Market.sol\":4295:4487  function changePrice(uint256 _id, uint256 _newPrice)... */\n    tag_8:\n      callvalue\n      dup1\n      iszero\n      tag_46\n      jumpi\n      0x00\n      dup1\n      revert\n    tag_46:\n      pop\n      tag_23\n      tag_48\n      calldatasize\n      0x04\n      tag_49\n      jump\t// in\n    tag_48:\n      tag_50\n      jump\t// in\n        /* \"marketplace-contract/Market.sol\":3667:4127  function cancelPurchase(uint256 _id) public {... */\n    tag_9:\n      callvalue\n      dup1\n      iszero\n      tag_51\n      jumpi\n      0x00\n      dup1\n      revert\n    tag_51:\n      pop\n      tag_23\n      tag_53\n      calldatasize\n      0x04\n      tag_25\n      jump\t// in\n    tag_53:\n      tag_54\n      jump\t// in\n        /* \"marketplace-contract/Market.sol\":209:231  address public factory */\n    tag_10:\n      callvalue\n      dup1\n      iszero\n      tag_55\n      jumpi\n      0x00\n      dup1\n      revert\n    tag_55:\n      pop\n      sload(0x00)\n      tag_56\n      swap1\n      sub(shl(0xa0, 0x01), 0x01)\n      and\n      dup2\n      jump\n    tag_56:\n      mload(0x40)\n      sub(shl(0xa0, 0x01), 0x01)\n        /* \"#utility.yul\":6576:6608   */\n      swap1\n      swap2\n      and\n        /* \"#utility.yul\":6558:6609   */\n      dup2\n      mstore\n        /* \"#utility.yul\":6546:6548   */\n      0x20\n        /* \"#utility.yul\":6531:6549   */\n      add\n        /* \"marketplace-contract/Market.sol\":209:231  address public factory */\n      tag_20\n        /* \"#utility.yul\":6412:6615   */\n      jump\n        /* \"marketplace-contract/Market.sol\":4602:4746  function _convertUSDToETH(uint256 amountInUSD) public returns (uint256) {... */\n    tag_11:\n      callvalue\n      dup1\n      iszero\n      tag_60\n      jumpi\n      0x00\n      dup1\n      revert\n    tag_60:\n      pop\n      tag_61\n      tag_62\n      calldatasize\n      0x04\n      tag_25\n      jump\t// in\n    tag_62:\n      tag_63\n      jump\t// in\n    tag_61:\n      mload(0x40)\n        /* \"#utility.yul\":6766:6791   */\n      swap1\n      dup2\n      mstore\n        /* \"#utility.yul\":6754:6756   */\n      0x20\n        /* \"#utility.yul\":6739:6757   */\n      add\n        /* \"marketplace-contract/Market.sol\":4602:4746  function _convertUSDToETH(uint256 amountInUSD) public returns (uint256) {... */\n      tag_20\n        /* \"#utility.yul\":6620:6797   */\n      jump\n        /* \"marketplace-contract/Market.sol\":3090:3659  function confirmRecieved(uint256 _id) public {... */\n    tag_12:\n      callvalue\n      dup1\n      iszero\n      tag_66\n      jumpi\n      0x00\n      dup1\n      revert\n    tag_66:\n      pop\n      tag_23\n      tag_68\n      calldatasize\n      0x04\n      tag_25\n      jump\t// in\n    tag_68:\n      tag_69\n      jump\t// in\n        /* \"marketplace-contract/Market.sol\":238:260  uint256 public fee = 5 */\n    tag_13:\n      callvalue\n      dup1\n      iszero\n      tag_70\n      jumpi\n      0x00\n      dup1\n      revert\n    tag_70:\n      pop\n      tag_61\n      sload(0x01)\n      dup2\n      jump\n        /* \"marketplace-contract/Market.sol\":2353:2902  function purchase(uint256 _id) public payable {... */\n    tag_14:\n      tag_23\n      tag_75\n      calldatasize\n      0x04\n      tag_25\n      jump\t// in\n    tag_75:\n      tag_76\n      jump\t// in\n        /* \"marketplace-contract/Market.sol\":4495:4594  function getAllProducts() public view returns (Product[] memory) {... */\n    tag_19:\n        /* \"marketplace-contract/Market.sol\":4542:4558  Product[] memory */\n      0x60\n        /* \"marketplace-contract/Market.sol\":4578:4586  products */\n      0x02\n        /* \"marketplace-contract/Market.sol\":4571:4586  return products */\n      dup1\n      sload\n      dup1\n      0x20\n      mul\n      0x20\n      add\n      mload(0x40)\n      swap1\n      dup2\n      add\n      0x40\n      mstore\n      dup1\n      swap3\n      swap2\n      swap1\n      dup2\n      dup2\n      mstore\n      0x20\n      add\n      0x00\n      swap1\n    tag_78:\n      dup3\n      dup3\n      lt\n      iszero\n      tag_79\n      jumpi\n      0x00\n      dup5\n      dup2\n      mstore\n      0x20\n      swap1\n      dup2\n      swap1\n      keccak256\n      0x40\n      dup1\n      mload\n      0x0140\n      dup2\n      add\n      dup3\n      mstore\n      0x09\n      dup7\n      mul\n      swap1\n      swap3\n      add\n      dup1\n      sload\n      dup4\n      mstore\n      0x01\n      dup2\n      add\n      sload\n      sub(shl(0xa0, 0x01), 0x01)\n      and\n      swap4\n      dup4\n      add\n      swap4\n      swap1\n      swap4\n      mstore\n      0x02\n      dup4\n      add\n      dup1\n      sload\n      swap3\n      swap4\n      swap3\n      swap2\n      dup5\n      add\n      swap2\n      tag_81\n      swap1\n      tag_82\n      jump\t// in\n    tag_81:\n      dup1\n      0x1f\n      add\n      0x20\n      dup1\n      swap2\n      div\n      mul\n      0x20\n      add\n      mload(0x40)\n      swap1\n      dup2\n      add\n      0x40\n      mstore\n      dup1\n      swap3\n      swap2\n      swap1\n      dup2\n      dup2\n      mstore\n      0x20\n      add\n      dup3\n      dup1\n      sload\n      tag_83\n      swap1\n      tag_82\n      jump\t// in\n    tag_83:\n      dup1\n      iszero\n      tag_84\n      jumpi\n      dup1\n      0x1f\n      lt\n      tag_85\n      jumpi\n      0x0100\n      dup1\n      dup4\n      sload\n      div\n      mul\n      dup4\n      mstore\n      swap2\n      0x20\n      add\n      swap2\n      jump(tag_84)\n    tag_85:\n      dup3\n      add\n      swap2\n      swap1\n      0x00\n      mstore\n      keccak256(0x00, 0x20)\n      swap1\n    tag_86:\n      dup2\n      sload\n      dup2\n      mstore\n      swap1\n      0x01\n      add\n      swap1\n      0x20\n      add\n      dup1\n      dup4\n      gt\n      tag_86\n      jumpi\n      dup3\n      swap1\n      sub\n      0x1f\n      and\n      dup3\n      add\n      swap2\n    tag_84:\n      pop\n      pop\n      pop\n      pop\n      pop\n      dup2\n      mstore\n      0x20\n      add\n      0x03\n      dup3\n      add\n      dup1\n      sload\n      tag_87\n      swap1\n      tag_82\n      jump\t// in\n    tag_87:\n      dup1\n      0x1f\n      add\n      0x20\n      dup1\n      swap2\n      div\n      mul\n      0x20\n      add\n      mload(0x40)\n      swap1\n      dup2\n      add\n      0x40\n      mstore\n      dup1\n      swap3\n      swap2\n      swap1\n      dup2\n      dup2\n      mstore\n      0x20\n      add\n      dup3\n      dup1\n      sload\n      tag_88\n      swap1\n      tag_82\n      jump\t// in\n    tag_88:\n      dup1\n      iszero\n      tag_89\n      jumpi\n      dup1\n      0x1f\n      lt\n      tag_90\n      jumpi\n      0x0100\n      dup1\n      dup4\n      sload\n      div\n      mul\n      dup4\n      mstore\n      swap2\n      0x20\n      add\n      swap2\n      jump(tag_89)\n    tag_90:\n      dup3\n      add\n      swap2\n      swap1\n      0x00\n      mstore\n      keccak256(0x00, 0x20)\n      swap1\n    tag_91:\n      dup2\n      sload\n      dup2\n      mstore\n      swap1\n      0x01\n      add\n      swap1\n      0x20\n      add\n      dup1\n      dup4\n      gt\n      tag_91\n      jumpi\n      dup3\n      swap1\n      sub\n      0x1f\n      and\n      dup3\n      add\n      swap2\n    tag_89:\n      pop\n      pop\n      pop\n      pop\n      pop\n      dup2\n      mstore\n      0x20\n      add\n      0x04\n      dup3\n      add\n      dup1\n      sload\n      tag_92\n      swap1\n      tag_82\n      jump\t// in\n    tag_92:\n      dup1\n      0x1f\n      add\n      0x20\n      dup1\n      swap2\n      div\n      mul\n      0x20\n      add\n      mload(0x40)\n      swap1\n      dup2\n      add\n      0x40\n      mstore\n      dup1\n      swap3\n      swap2\n      swap1\n      dup2\n      dup2\n      mstore\n      0x20\n      add\n      dup3\n      dup1\n      sload\n      tag_93\n      swap1\n      tag_82\n      jump\t// in\n    tag_93:\n      dup1\n      iszero\n      tag_94\n      jumpi\n      dup1\n      0x1f\n      lt\n      tag_95\n      jumpi\n      0x0100\n      dup1\n      dup4\n      sload\n      div\n      mul\n      dup4\n      mstore\n      swap2\n      0x20\n      add\n      swap2\n      jump(tag_94)\n    tag_95:\n      dup3\n      add\n      swap2\n      swap1\n      0x00\n      mstore\n      keccak256(0x00, 0x20)\n      swap1\n    tag_96:\n      dup2\n      sload\n      dup2\n      mstore\n      swap1\n      0x01\n      add\n      swap1\n      0x20\n      add\n      dup1\n      dup4\n      gt\n      tag_96\n      jumpi\n      dup3\n      swap1\n      sub\n      0x1f\n      and\n      dup3\n      add\n      swap2\n    tag_94:\n      pop\n      pop\n      pop\n      swap2\n      dup4\n      mstore\n      pop\n      pop\n      0x05\n      dup3\n      add\n      sload\n      0x20\n      dup3\n      add\n      mstore\n      0x06\n      dup3\n      add\n      sload\n      0x40\n      dup3\n      add\n      mstore\n      0x07\n      dup3\n      add\n      sload\n      sub(shl(0xa0, 0x01), 0x01)\n      dup2\n      and\n      0x60\n      dup4\n      add\n      mstore\n      0x80\n      swap1\n      swap2\n      add\n      swap1\n      shl(0xa0, 0x01)\n      swap1\n      div\n      0xff\n      and\n      0x04\n      dup2\n      gt\n      iszero\n      tag_98\n      jumpi\n      tag_98\n      tag_99\n      jump\t// in\n    tag_98:\n      0x04\n      dup2\n      gt\n      iszero\n      tag_101\n      jumpi\n      tag_101\n      tag_99\n      jump\t// in\n    tag_101:\n      dup2\n      mstore\n      0x20\n      add\n      0x08\n      dup3\n      add\n      sload\n      dup2\n      mstore\n      pop\n      pop\n      dup2\n      mstore\n      0x20\n      add\n      swap1\n      0x01\n      add\n      swap1\n      jump(tag_78)\n    tag_79:\n      pop\n      pop\n      pop\n      pop\n      swap1\n      pop\n        /* \"marketplace-contract/Market.sol\":4495:4594  function getAllProducts() public view returns (Product[] memory) {... */\n      swap1\n      jump\t// out\n        /* \"marketplace-contract/Market.sol\":2910:3082  function sendProduct(uint256 _id)... */\n    tag_26:\n        /* \"marketplace-contract/Market.sol\":2980:2983  _id */\n      dup1\n        /* \"marketplace-contract/Market.sol\":1287:1295  products */\n      0x02\n        /* \"marketplace-contract/Market.sol\":1296:1299  _id */\n      dup2\n        /* \"marketplace-contract/Market.sol\":1287:1300  products[_id] */\n      dup2\n      sload\n      dup2\n      lt\n      tag_104\n      jumpi\n      tag_104\n      tag_105\n      jump\t// in\n    tag_104:\n      0x00\n      swap2\n      dup3\n      mstore\n      0x20\n      swap1\n      swap2\n      keccak256\n      0x09\n      swap1\n      swap2\n      mul\n      add\n        /* \"marketplace-contract/Market.sol\":1287:1307  products[_id].seller */\n      0x01\n      add\n      sload\n      sub(shl(0xa0, 0x01), 0x01)\n      and\n        /* \"marketplace-contract/Market.sol\":1273:1283  msg.sender */\n      caller\n        /* \"marketplace-contract/Market.sol\":1273:1307  msg.sender == products[_id].seller */\n      eq\n        /* \"marketplace-contract/Market.sol\":1265:1328  require(msg.sender == products[_id].seller, \"only seller call\") */\n      tag_107\n      jumpi\n      mload(0x40)\n      shl(0xe5, 0x461bcd)\n      dup2\n      mstore\n      0x04\n      add\n      tag_108\n      swap1\n      tag_109\n      jump\t// in\n    tag_108:\n      mload(0x40)\n      dup1\n      swap2\n      sub\n      swap1\n      revert\n    tag_107:\n        /* \"marketplace-contract/Market.sol\":3003:3006  _id */\n      dup2\n        /* \"marketplace-contract/Market.sol\":3008:3022  Status.PENDING */\n      0x02\n      dup1\n        /* \"marketplace-contract/Market.sol\":1422:1430  products */\n      0x02\n        /* \"marketplace-contract/Market.sol\":1431:1434  _id */\n      dup4\n        /* \"marketplace-contract/Market.sol\":1422:1435  products[_id] */\n      dup2\n      sload\n      dup2\n      lt\n      tag_114\n      jumpi\n      tag_114\n      tag_105\n      jump\t// in\n    tag_114:\n      swap1\n      0x00\n      mstore\n      keccak256(0x00, 0x20)\n      swap1\n      0x09\n      mul\n      add\n        /* \"marketplace-contract/Market.sol\":1422:1442  products[_id].status */\n      0x07\n      add\n      0x14\n      swap1\n      sload\n      swap1\n      0x0100\n      exp\n      swap1\n      div\n      0xff\n      and\n        /* \"marketplace-contract/Market.sol\":1422:1453  products[_id].status == _status */\n      0x04\n      dup2\n      gt\n      iszero\n      tag_117\n      jumpi\n      tag_117\n      tag_99\n      jump\t// in\n    tag_117:\n      eq\n        /* \"marketplace-contract/Market.sol\":1414:1470  require(products[_id].status == _status, \"Wrong status\") */\n      tag_118\n      jumpi\n      mload(0x40)\n      shl(0xe5, 0x461bcd)\n      dup2\n      mstore\n      0x04\n      add\n      tag_108\n      swap1\n      tag_120\n      jump\t// in\n    tag_118:\n        /* \"marketplace-contract/Market.sol\":3063:3074  Status.SENT */\n      0x03\n        /* \"marketplace-contract/Market.sol\":3040:3048  products */\n      0x02\n        /* \"marketplace-contract/Market.sol\":3049:3052  _id */\n      dup6\n        /* \"marketplace-contract/Market.sol\":3040:3053  products[_id] */\n      dup2\n      sload\n      dup2\n      lt\n      tag_123\n      jumpi\n      tag_123\n      tag_105\n      jump\t// in\n    tag_123:\n      0x00\n      swap2\n      dup3\n      mstore\n      0x20\n      swap1\n      swap2\n      keccak256\n        /* \"marketplace-contract/Market.sol\":3040:3060  products[_id].status */\n      0x07\n        /* \"marketplace-contract/Market.sol\":3040:3053  products[_id] */\n      0x09\n      swap1\n      swap3\n      mul\n      add\n        /* \"marketplace-contract/Market.sol\":3040:3060  products[_id].status */\n      add\n        /* \"marketplace-contract/Market.sol\":3040:3074  products[_id].status = Status.SENT */\n      dup1\n      sload\n      not(shl(0xa0, 0xff))\n      and\n      shl(0xa0, 0x01)\n      dup4\n      0x04\n      dup2\n      gt\n      iszero\n      tag_126\n      jumpi\n      tag_126\n      tag_99\n      jump\t// in\n    tag_126:\n      mul\n      or\n      swap1\n      sstore\n      pop\n        /* \"marketplace-contract/Market.sol\":1339:1340  _ */\n      pop\n      pop\n        /* \"marketplace-contract/Market.sol\":2910:3082  function sendProduct(uint256 _id)... */\n      pop\n      pop\n      jump\t// out\n        /* \"marketplace-contract/Market.sol\":4135:4287  function remove(uint256 _id)... */\n    tag_30:\n        /* \"marketplace-contract/Market.sol\":4200:4203  _id */\n      dup1\n        /* \"marketplace-contract/Market.sol\":1287:1295  products */\n      0x02\n        /* \"marketplace-contract/Market.sol\":1296:1299  _id */\n      dup2\n        /* \"marketplace-contract/Market.sol\":1287:1300  products[_id] */\n      dup2\n      sload\n      dup2\n      lt\n      tag_129\n      jumpi\n      tag_129\n      tag_105\n      jump\t// in\n    tag_129:\n      0x00\n      swap2\n      dup3\n      mstore\n      0x20\n      swap1\n      swap2\n      keccak256\n      0x09\n      swap1\n      swap2\n      mul\n      add\n        /* \"marketplace-contract/Market.sol\":1287:1307  products[_id].seller */\n      0x01\n      add\n      sload\n      sub(shl(0xa0, 0x01), 0x01)\n      and\n        /* \"marketplace-contract/Market.sol\":1273:1283  msg.sender */\n      caller\n        /* \"marketplace-contract/Market.sol\":1273:1307  msg.sender == products[_id].seller */\n      eq\n        /* \"marketplace-contract/Market.sol\":1265:1328  require(msg.sender == products[_id].seller, \"only seller call\") */\n      tag_131\n      jumpi\n      mload(0x40)\n      shl(0xe5, 0x461bcd)\n      dup2\n      mstore\n      0x04\n      add\n      tag_108\n      swap1\n      tag_109\n      jump\t// in\n    tag_131:\n        /* \"marketplace-contract/Market.sol\":4223:4226  _id */\n      dup2\n        /* \"marketplace-contract/Market.sol\":4228:4241  Status.INSALE */\n      0x01\n      dup1\n        /* \"marketplace-contract/Market.sol\":1422:1430  products */\n      0x02\n        /* \"marketplace-contract/Market.sol\":1431:1434  _id */\n      dup4\n        /* \"marketplace-contract/Market.sol\":1422:1435  products[_id] */\n      dup2\n      sload\n      dup2\n      lt\n      tag_137\n      jumpi\n      tag_137\n      tag_105\n      jump\t// in\n    tag_137:\n      swap1\n      0x00\n      mstore\n      keccak256(0x00, 0x20)\n      swap1\n      0x09\n      mul\n      add\n        /* \"marketplace-contract/Market.sol\":1422:1442  products[_id].status */\n      0x07\n      add\n      0x14\n      swap1\n      sload\n      swap1\n      0x0100\n      exp\n      swap1\n      div\n      0xff\n      and\n        /* \"marketplace-contract/Market.sol\":1422:1453  products[_id].status == _status */\n      0x04\n      dup2\n      gt\n      iszero\n      tag_140\n      jumpi\n      tag_140\n      tag_99\n      jump\t// in\n    tag_140:\n      eq\n        /* \"marketplace-contract/Market.sol\":1414:1470  require(products[_id].status == _status, \"Wrong status\") */\n      tag_141\n      jumpi\n      mload(0x40)\n      shl(0xe5, 0x461bcd)\n      dup2\n      mstore\n      0x04\n      add\n      tag_108\n      swap1\n      tag_120\n      jump\t// in\n    tag_141:\n        /* \"marketplace-contract/Market.sol\":4266:4274  products */\n      0x02\n        /* \"marketplace-contract/Market.sol\":4275:4278  _id */\n      dup5\n        /* \"marketplace-contract/Market.sol\":4266:4279  products[_id] */\n      dup2\n      sload\n      dup2\n      lt\n      tag_145\n      jumpi\n      tag_145\n      tag_105\n      jump\t// in\n    tag_145:\n      0x00\n      swap2\n      dup3\n      mstore\n      0x20\n      dup3\n      keccak256\n      0x09\n      swap1\n      swap2\n      mul\n      add\n        /* \"marketplace-contract/Market.sol\":4259:4279  delete products[_id] */\n      dup2\n      dup2\n      sstore\n      0x01\n      dup2\n      add\n      dup1\n      sload\n      not(sub(shl(0xa0, 0x01), 0x01))\n      and\n      swap1\n      sstore\n        /* \"marketplace-contract/Market.sol\":4266:4279  products[_id] */\n      swap1\n        /* \"marketplace-contract/Market.sol\":4259:4279  delete products[_id] */\n      tag_147\n      0x02\n      dup4\n      add\n        /* \"marketplace-contract/Market.sol\":4266:4279  products[_id] */\n      dup3\n        /* \"marketplace-contract/Market.sol\":4259:4279  delete products[_id] */\n      tag_148\n      jump\t// in\n    tag_147:\n      tag_149\n      0x03\n      dup4\n      add\n      0x00\n      tag_148\n      jump\t// in\n    tag_149:\n      tag_150\n      0x04\n      dup4\n      add\n      0x00\n      tag_148\n      jump\t// in\n    tag_150:\n      pop\n      0x00\n      0x05\n      dup3\n      add\n      dup2\n      swap1\n      sstore\n      0x06\n      dup3\n      add\n      dup2\n      swap1\n      sstore\n      0x07\n      dup3\n      add\n      dup1\n      sload\n      not(sub(shl(0xa8, 0x01), 0x01))\n      and\n      swap1\n      sstore\n      0x08\n      swap1\n      swap2\n      add\n      sstore\n      pop\n      pop\n      pop\n      pop\n        /* \"marketplace-contract/Market.sol\":4135:4287  function remove(uint256 _id)... */\n      jump\t// out\n        /* \"marketplace-contract/Market.sol\":4856:4941  function changeFee(uint256 _newFee) public onlyAdmin {... */\n    tag_34:\n        /* \"marketplace-contract/Market.sol\":1034:1041  factory */\n      and(sub(shl(0xa0, 0x01), 0x01), sload(0x00))\n        /* \"marketplace-contract/Market.sol\":1020:1030  msg.sender */\n      caller\n        /* \"marketplace-contract/Market.sol\":1020:1041  msg.sender == factory */\n      eq\n        /* \"marketplace-contract/Market.sol\":1012:1061  require(msg.sender == factory, \"only admin call\") */\n      tag_152\n      jumpi\n      mload(0x40)\n      shl(0xe5, 0x461bcd)\n      dup2\n      mstore\n        /* \"#utility.yul\":8207:8209   */\n      0x20\n        /* \"marketplace-contract/Market.sol\":1012:1061  require(msg.sender == factory, \"only admin call\") */\n      0x04\n      dup3\n      add\n        /* \"#utility.yul\":8189:8210   */\n      mstore\n        /* \"#utility.yul\":8246:8248   */\n      0x0f\n        /* \"#utility.yul\":8226:8244   */\n      0x24\n      dup3\n      add\n        /* \"#utility.yul\":8219:8249   */\n      mstore\n      shl(0x8a, 0x1bdb9b1e4818591b5a5b8818d85b1b)\n        /* \"#utility.yul\":8265:8283   */\n      0x44\n      dup3\n      add\n        /* \"#utility.yul\":8258:8303   */\n      mstore\n        /* \"#utility.yul\":8320:8338   */\n      0x64\n      add\n        /* \"marketplace-contract/Market.sol\":1012:1061  require(msg.sender == factory, \"only admin call\") */\n      tag_108\n        /* \"#utility.yul\":8005:8344   */\n      jump\n        /* \"marketplace-contract/Market.sol\":1012:1061  require(msg.sender == factory, \"only admin call\") */\n    tag_152:\n        /* \"marketplace-contract/Market.sol\":4920:4923  fee */\n      0x01\n        /* \"marketplace-contract/Market.sol\":4920:4933  fee = _newFee */\n      sstore\n        /* \"marketplace-contract/Market.sol\":4856:4941  function changeFee(uint256 _newFee) public onlyAdmin {... */\n      jump\t// out\n        /* \"marketplace-contract/Market.sol\":269:294  Product[] public products */\n    tag_38:\n      0x02\n      dup2\n      dup2\n      sload\n      dup2\n      lt\n      tag_156\n      jumpi\n      0x00\n      dup1\n      revert\n    tag_156:\n      0x00\n      swap2\n      dup3\n      mstore\n      0x20\n      swap1\n      swap2\n      keccak256\n      0x09\n      swap1\n      swap2\n      mul\n      add\n      dup1\n      sload\n      0x01\n      dup3\n      add\n      sload\n      0x02\n      dup4\n      add\n      dup1\n      sload\n      swap3\n      swap5\n      pop\n      sub(shl(0xa0, 0x01), 0x01)\n      swap1\n      swap2\n      and\n      swap3\n      swap2\n      tag_158\n      swap1\n      tag_82\n      jump\t// in\n    tag_158:\n      dup1\n      0x1f\n      add\n      0x20\n      dup1\n      swap2\n      div\n      mul\n      0x20\n      add\n      mload(0x40)\n      swap1\n      dup2\n      add\n      0x40\n      mstore\n      dup1\n      swap3\n      swap2\n      swap1\n      dup2\n      dup2\n      mstore\n      0x20\n      add\n      dup3\n      dup1\n      sload\n      tag_159\n      swap1\n      tag_82\n      jump\t// in\n    tag_159:\n      dup1\n      iszero\n      tag_160\n      jumpi\n      dup1\n      0x1f\n      lt\n      tag_161\n      jumpi\n      0x0100\n      dup1\n      dup4\n      sload\n      div\n      mul\n      dup4\n      mstore\n      swap2\n      0x20\n      add\n      swap2\n      jump(tag_160)\n    tag_161:\n      dup3\n      add\n      swap2\n      swap1\n      0x00\n      mstore\n      keccak256(0x00, 0x20)\n      swap1\n    tag_162:\n      dup2\n      sload\n      dup2\n      mstore\n      swap1\n      0x01\n      add\n      swap1\n      0x20\n      add\n      dup1\n      dup4\n      gt\n      tag_162\n      jumpi\n      dup3\n      swap1\n      sub\n      0x1f\n      and\n      dup3\n      add\n      swap2\n    tag_160:\n      pop\n      pop\n      pop\n      pop\n      pop\n      swap1\n      dup1\n      0x03\n      add\n      dup1\n      sload\n      tag_163\n      swap1\n      tag_82\n      jump\t// in\n    tag_163:\n      dup1\n      0x1f\n      add\n      0x20\n      dup1\n      swap2\n      div\n      mul\n      0x20\n      add\n      mload(0x40)\n      swap1\n      dup2\n      add\n      0x40\n      mstore\n      dup1\n      swap3\n      swap2\n      swap1\n      dup2\n      dup2\n      mstore\n      0x20\n      add\n      dup3\n      dup1\n      sload\n      tag_164\n      swap1\n      tag_82\n      jump\t// in\n    tag_164:\n      dup1\n      iszero\n      tag_165\n      jumpi\n      dup1\n      0x1f\n      lt\n      tag_166\n      jumpi\n      0x0100\n      dup1\n      dup4\n      sload\n      div\n      mul\n      dup4\n      mstore\n      swap2\n      0x20\n      add\n      swap2\n      jump(tag_165)\n    tag_166:\n      dup3\n      add\n      swap2\n      swap1\n      0x00\n      mstore\n      keccak256(0x00, 0x20)\n      swap1\n    tag_167:\n      dup2\n      sload\n      dup2\n      mstore\n      swap1\n      0x01\n      add\n      swap1\n      0x20\n      add\n      dup1\n      dup4\n      gt\n      tag_167\n      jumpi\n      dup3\n      swap1\n      sub\n      0x1f\n      and\n      dup3\n      add\n      swap2\n    tag_165:\n      pop\n      pop\n      pop\n      pop\n      pop\n      swap1\n      dup1\n      0x04\n      add\n      dup1\n      sload\n      tag_168\n      swap1\n      tag_82\n      jump\t// in\n    tag_168:\n      dup1\n      0x1f\n      add\n      0x20\n      dup1\n      swap2\n      div\n      mul\n      0x20\n      add\n      mload(0x40)\n      swap1\n      dup2\n      add\n      0x40\n      mstore\n      dup1\n      swap3\n      swap2\n      swap1\n      dup2\n      dup2\n      mstore\n      0x20\n      add\n      dup3\n      dup1\n      sload\n      tag_169\n      swap1\n      tag_82\n      jump\t// in\n    tag_169:\n      dup1\n      iszero\n      tag_170\n      jumpi\n      dup1\n      0x1f\n      lt\n      tag_171\n      jumpi\n      0x0100\n      dup1\n      dup4\n      sload\n      div\n      mul\n      dup4\n      mstore\n      swap2\n      0x20\n      add\n      swap2\n      jump(tag_170)\n    tag_171:\n      dup3\n      add\n      swap2\n      swap1\n      0x00\n      mstore\n      keccak256(0x00, 0x20)\n      swap1\n    tag_172:\n      dup2\n      sload\n      dup2\n      mstore\n      swap1\n      0x01\n      add\n      swap1\n      0x20\n      add\n      dup1\n      dup4\n      gt\n      tag_172\n      jumpi\n      dup3\n      swap1\n      sub\n      0x1f\n      and\n      dup3\n      add\n      swap2\n    tag_170:\n      pop\n      pop\n      pop\n      pop\n      0x05\n      dup4\n      add\n      sload\n      0x06\n      dup5\n      add\n      sload\n      0x07\n      dup6\n      add\n      sload\n      0x08\n      swap1\n      swap6\n      add\n      sload\n      swap4\n      swap5\n      swap2\n      swap4\n      swap1\n      swap3\n      pop\n      sub(shl(0xa0, 0x01), 0x01)\n      dup3\n      and\n      swap2\n      shl(0xa0, 0x01)\n      swap1\n      div\n      0xff\n      and\n      swap1\n      dup11\n      jump\t// out\n        /* \"marketplace-contract/Market.sol\":1767:2345  function addProduct(... */\n    tag_45:\n        /* \"marketplace-contract/Market.sol\":1955:1963  products */\n      0x02\n        /* \"marketplace-contract/Market.sol\":1955:1970  products.length */\n      dup1\n      sload\n        /* \"marketplace-contract/Market.sol\":2009:2326  Product(... */\n      0x40\n      dup1\n      mload\n      0x0140\n      dup2\n      add\n      dup3\n      mstore\n      dup3\n      dup2\n      mstore\n        /* \"marketplace-contract/Market.sol\":2071:2081  msg.sender */\n      caller\n        /* \"marketplace-contract/Market.sol\":2009:2326  Product(... */\n      0x20\n      dup3\n      add\n      swap1\n      dup2\n      mstore\n      swap2\n      dup2\n      add\n      dup9\n      dup2\n      mstore\n      0x60\n      dup3\n      add\n      dup9\n      swap1\n      mstore\n      0x80\n      dup3\n      add\n      dup8\n      swap1\n      mstore\n      0xa0\n      dup3\n      add\n      dup7\n      swap1\n      mstore\n      0x00\n      0xc0\n      dup4\n      add\n      dup2\n      swap1\n      mstore\n      0xe0\n      dup4\n      add\n      dup2\n      swap1\n      mstore\n        /* \"marketplace-contract/Market.sol\":2264:2277  Status.INSALE */\n      0x01\n        /* \"marketplace-contract/Market.sol\":2009:2326  Product(... */\n      0x0100\n      dup5\n      add\n      dup2\n      swap1\n      mstore\n        /* \"marketplace-contract/Market.sol\":2296:2311  block.timestamp */\n      timestamp\n        /* \"marketplace-contract/Market.sol\":2009:2326  Product(... */\n      0x0120\n      dup6\n      add\n      mstore\n        /* \"marketplace-contract/Market.sol\":1981:2337  products.push(... */\n      dup6\n      add\n      dup7\n      sstore\n      swap5\n      swap1\n      swap5\n      mstore\n      dup1\n      mload\n      0x405787fa12a823e0f2b7631cc41b3ba8828b3321ca811111fa75cd3aa3bb5ace\n      0x09\n      dup6\n      mul\n      swap1\n      dup2\n      add\n      swap2\n      dup3\n      sstore\n      swap3\n      mload\n      0x405787fa12a823e0f2b7631cc41b3ba8828b3321ca811111fa75cd3aa3bb5acf\n      dup5\n      add\n      dup1\n      sload\n      not(sub(shl(0xa0, 0x01), 0x01))\n      and\n      sub(shl(0xa0, 0x01), 0x01)\n      swap1\n      swap3\n      and\n      swap2\n      swap1\n      swap2\n      or\n      swap1\n      sstore\n      swap4\n      mload\n        /* \"marketplace-contract/Market.sol\":1955:1970  products.length */\n      swap3\n      swap4\n        /* \"marketplace-contract/Market.sol\":2009:2326  Product(... */\n      swap1\n      swap3\n        /* \"marketplace-contract/Market.sol\":1981:2337  products.push(... */\n      swap1\n      swap2\n      0x405787fa12a823e0f2b7631cc41b3ba8828b3321ca811111fa75cd3aa3bb5ad0\n      add\n      swap1\n      tag_177\n      swap1\n      dup3\n      tag_178\n      jump\t// in\n    tag_177:\n      pop\n      0x60\n      dup3\n      add\n      mload\n      0x03\n      dup3\n      add\n      swap1\n      tag_179\n      swap1\n      dup3\n      tag_178\n      jump\t// in\n    tag_179:\n      pop\n      0x80\n      dup3\n      add\n      mload\n      0x04\n      dup3\n      add\n      swap1\n      tag_180\n      swap1\n      dup3\n      tag_178\n      jump\t// in\n    tag_180:\n      pop\n      0xa0\n      dup3\n      add\n      mload\n      0x05\n      dup3\n      add\n      sstore\n      0xc0\n      dup3\n      add\n      mload\n      0x06\n      dup3\n      add\n      sstore\n      0xe0\n      dup3\n      add\n      mload\n      0x07\n      dup3\n      add\n      dup1\n      sload\n      sub(shl(0xa0, 0x01), 0x01)\n      swap1\n      swap3\n      and\n      not(sub(shl(0xa0, 0x01), 0x01))\n      dup4\n      and\n      dup2\n      or\n      dup3\n      sstore\n      0x0100\n      dup6\n      add\n      mload\n      swap3\n      not(sub(shl(0xa8, 0x01), 0x01))\n      and\n      or\n      shl(0xa0, 0x01)\n      dup4\n      0x04\n      dup2\n      gt\n      iszero\n      tag_182\n      jumpi\n      tag_182\n      tag_99\n      jump\t// in\n    tag_182:\n      mul\n      or\n      swap1\n      sstore\n      pop\n      0x0120\n      dup3\n      add\n      mload\n      dup2\n      0x08\n      add\n      sstore\n      pop\n      pop\n        /* \"marketplace-contract/Market.sol\":1924:2345  {... */\n      pop\n        /* \"marketplace-contract/Market.sol\":1767:2345  function addProduct(... */\n      pop\n      pop\n      pop\n      pop\n      jump\t// out\n        /* \"marketplace-contract/Market.sol\":4295:4487  function changePrice(uint256 _id, uint256 _newPrice)... */\n    tag_50:\n        /* \"marketplace-contract/Market.sol\":4384:4387  _id */\n      dup2\n        /* \"marketplace-contract/Market.sol\":1287:1295  products */\n      0x02\n        /* \"marketplace-contract/Market.sol\":1296:1299  _id */\n      dup2\n        /* \"marketplace-contract/Market.sol\":1287:1300  products[_id] */\n      dup2\n      sload\n      dup2\n      lt\n      tag_185\n      jumpi\n      tag_185\n      tag_105\n      jump\t// in\n    tag_185:\n      0x00\n      swap2\n      dup3\n      mstore\n      0x20\n      swap1\n      swap2\n      keccak256\n      0x09\n      swap1\n      swap2\n      mul\n      add\n        /* \"marketplace-contract/Market.sol\":1287:1307  products[_id].seller */\n      0x01\n      add\n      sload\n      sub(shl(0xa0, 0x01), 0x01)\n      and\n        /* \"marketplace-contract/Market.sol\":1273:1283  msg.sender */\n      caller\n        /* \"marketplace-contract/Market.sol\":1273:1307  msg.sender == products[_id].seller */\n      eq\n        /* \"marketplace-contract/Market.sol\":1265:1328  require(msg.sender == products[_id].seller, \"only seller call\") */\n      tag_187\n      jumpi\n      mload(0x40)\n      shl(0xe5, 0x461bcd)\n      dup2\n      mstore\n      0x04\n      add\n      tag_108\n      swap1\n      tag_109\n      jump\t// in\n    tag_187:\n        /* \"marketplace-contract/Market.sol\":4407:4410  _id */\n      dup3\n        /* \"marketplace-contract/Market.sol\":4412:4425  Status.INSALE */\n      0x01\n      dup1\n        /* \"marketplace-contract/Market.sol\":1422:1430  products */\n      0x02\n        /* \"marketplace-contract/Market.sol\":1431:1434  _id */\n      dup4\n        /* \"marketplace-contract/Market.sol\":1422:1435  products[_id] */\n      dup2\n      sload\n      dup2\n      lt\n      tag_193\n      jumpi\n      tag_193\n      tag_105\n      jump\t// in\n    tag_193:\n      swap1\n      0x00\n      mstore\n      keccak256(0x00, 0x20)\n      swap1\n      0x09\n      mul\n      add\n        /* \"marketplace-contract/Market.sol\":1422:1442  products[_id].status */\n      0x07\n      add\n      0x14\n      swap1\n      sload\n      swap1\n      0x0100\n      exp\n      swap1\n      div\n      0xff\n      and\n        /* \"marketplace-contract/Market.sol\":1422:1453  products[_id].status == _status */\n      0x04\n      dup2\n      gt\n      iszero\n      tag_196\n      jumpi\n      tag_196\n      tag_99\n      jump\t// in\n    tag_196:\n      eq\n        /* \"marketplace-contract/Market.sol\":1414:1470  require(products[_id].status == _status, \"Wrong status\") */\n      tag_197\n      jumpi\n      mload(0x40)\n      shl(0xe5, 0x461bcd)\n      dup2\n      mstore\n      0x04\n      add\n      tag_108\n      swap1\n      tag_120\n      jump\t// in\n    tag_197:\n        /* \"marketplace-contract/Market.sol\":4470:4479  _newPrice */\n      dup4\n        /* \"marketplace-contract/Market.sol\":4443:4451  products */\n      0x02\n        /* \"marketplace-contract/Market.sol\":4452:4455  _id */\n      dup7\n        /* \"marketplace-contract/Market.sol\":4443:4456  products[_id] */\n      dup2\n      sload\n      dup2\n      lt\n      tag_201\n      jumpi\n      tag_201\n      tag_105\n      jump\t// in\n    tag_201:\n      swap1\n      0x00\n      mstore\n      keccak256(0x00, 0x20)\n      swap1\n      0x09\n      mul\n      add\n        /* \"marketplace-contract/Market.sol\":4443:4467  products[_id].priceInUSD */\n      0x05\n      add\n        /* \"marketplace-contract/Market.sol\":4443:4479  products[_id].priceInUSD = _newPrice */\n      dup2\n      swap1\n      sstore\n      pop\n        /* \"marketplace-contract/Market.sol\":1339:1340  _ */\n      pop\n      pop\n        /* \"marketplace-contract/Market.sol\":4295:4487  function changePrice(uint256 _id, uint256 _newPrice)... */\n      pop\n      pop\n      pop\n      jump\t// out\n        /* \"marketplace-contract/Market.sol\":3667:4127  function cancelPurchase(uint256 _id) public {... */\n    tag_54:\n        /* \"marketplace-contract/Market.sol\":3722:3744  Product memory product */\n      0x00\n        /* \"marketplace-contract/Market.sol\":3747:3755  products */\n      0x02\n        /* \"marketplace-contract/Market.sol\":3756:3759  _id */\n      dup3\n        /* \"marketplace-contract/Market.sol\":3747:3760  products[_id] */\n      dup2\n      sload\n      dup2\n      lt\n      tag_205\n      jumpi\n      tag_205\n      tag_105\n      jump\t// in\n    tag_205:\n      swap1\n      0x00\n      mstore\n      keccak256(0x00, 0x20)\n      swap1\n      0x09\n      mul\n      add\n        /* \"marketplace-contract/Market.sol\":3722:3760  Product memory product = products[_id] */\n      mload(0x40)\n      dup1\n      0x0140\n      add\n      0x40\n      mstore\n      swap1\n      dup2\n      0x00\n      dup3\n      add\n      sload\n      dup2\n      mstore\n      0x20\n      add\n      0x01\n      dup3\n      add\n      0x00\n      swap1\n      sload\n      swap1\n      0x0100\n      exp\n      swap1\n      div\n      sub(shl(0xa0, 0x01), 0x01)\n      and\n      sub(shl(0xa0, 0x01), 0x01)\n      and\n      sub(shl(0xa0, 0x01), 0x01)\n      and\n      dup2\n      mstore\n      0x20\n      add\n      0x02\n      dup3\n      add\n      dup1\n      sload\n      tag_207\n      swap1\n      tag_82\n      jump\t// in\n    tag_207:\n      dup1\n      0x1f\n      add\n      0x20\n      dup1\n      swap2\n      div\n      mul\n      0x20\n      add\n      mload(0x40)\n      swap1\n      dup2\n      add\n      0x40\n      mstore\n      dup1\n      swap3\n      swap2\n      swap1\n      dup2\n      dup2\n      mstore\n      0x20\n      add\n      dup3\n      dup1\n      sload\n      tag_208\n      swap1\n      tag_82\n      jump\t// in\n    tag_208:\n      dup1\n      iszero\n      tag_209\n      jumpi\n      dup1\n      0x1f\n      lt\n      tag_210\n      jumpi\n      0x0100\n      dup1\n      dup4\n      sload\n      div\n      mul\n      dup4\n      mstore\n      swap2\n      0x20\n      add\n      swap2\n      jump(tag_209)\n    tag_210:\n      dup3\n      add\n      swap2\n      swap1\n      0x00\n      mstore\n      keccak256(0x00, 0x20)\n      swap1\n    tag_211:\n      dup2\n      sload\n      dup2\n      mstore\n      swap1\n      0x01\n      add\n      swap1\n      0x20\n      add\n      dup1\n      dup4\n      gt\n      tag_211\n      jumpi\n      dup3\n      swap1\n      sub\n      0x1f\n      and\n      dup3\n      add\n      swap2\n    tag_209:\n      pop\n      pop\n      pop\n      pop\n      pop\n      dup2\n      mstore\n      0x20\n      add\n      0x03\n      dup3\n      add\n      dup1\n      sload\n      tag_212\n      swap1\n      tag_82\n      jump\t// in\n    tag_212:\n      dup1\n      0x1f\n      add\n      0x20\n      dup1\n      swap2\n      div\n      mul\n      0x20\n      add\n      mload(0x40)\n      swap1\n      dup2\n      add\n      0x40\n      mstore\n      dup1\n      swap3\n      swap2\n      swap1\n      dup2\n      dup2\n      mstore\n      0x20\n      add\n      dup3\n      dup1\n      sload\n      tag_213\n      swap1\n      tag_82\n      jump\t// in\n    tag_213:\n      dup1\n      iszero\n      tag_214\n      jumpi\n      dup1\n      0x1f\n      lt\n      tag_215\n      jumpi\n      0x0100\n      dup1\n      dup4\n      sload\n      div\n      mul\n      dup4\n      mstore\n      swap2\n      0x20\n      add\n      swap2\n      jump(tag_214)\n    tag_215:\n      dup3\n      add\n      swap2\n      swap1\n      0x00\n      mstore\n      keccak256(0x00, 0x20)\n      swap1\n    tag_216:\n      dup2\n      sload\n      dup2\n      mstore\n      swap1\n      0x01\n      add\n      swap1\n      0x20\n      add\n      dup1\n      dup4\n      gt\n      tag_216\n      jumpi\n      dup3\n      swap1\n      sub\n      0x1f\n      and\n      dup3\n      add\n      swap2\n    tag_214:\n      pop\n      pop\n      pop\n      pop\n      pop\n      dup2\n      mstore\n      0x20\n      add\n      0x04\n      dup3\n      add\n      dup1\n      sload\n      tag_217\n      swap1\n      tag_82\n      jump\t// in\n    tag_217:\n      dup1\n      0x1f\n      add\n      0x20\n      dup1\n      swap2\n      div\n      mul\n      0x20\n      add\n      mload(0x40)\n      swap1\n      dup2\n      add\n      0x40\n      mstore\n      dup1\n      swap3\n      swap2\n      swap1\n      dup2\n      dup2\n      mstore\n      0x20\n      add\n      dup3\n      dup1\n      sload\n      tag_218\n      swap1\n      tag_82\n      jump\t// in\n    tag_218:\n      dup1\n      iszero\n      tag_219\n      jumpi\n      dup1\n      0x1f\n      lt\n      tag_220\n      jumpi\n      0x0100\n      dup1\n      dup4\n      sload\n      div\n      mul\n      dup4\n      mstore\n      swap2\n      0x20\n      add\n      swap2\n      jump(tag_219)\n    tag_220:\n      dup3\n      add\n      swap2\n      swap1\n      0x00\n      mstore\n      keccak256(0x00, 0x20)\n      swap1\n    tag_221:\n      dup2\n      sload\n      dup2\n      mstore\n      swap1\n      0x01\n      add\n      swap1\n      0x20\n      add\n      dup1\n      dup4\n      gt\n      tag_221\n      jumpi\n      dup3\n      swap1\n      sub\n      0x1f\n      and\n      dup3\n      add\n      swap2\n    tag_219:\n      pop\n      pop\n      pop\n      swap2\n      dup4\n      mstore\n      pop\n      pop\n      0x05\n      dup3\n      add\n      sload\n      0x20\n      dup3\n      add\n      mstore\n      0x06\n      dup3\n      add\n      sload\n      0x40\n      dup3\n      add\n      mstore\n      0x07\n      dup3\n      add\n      sload\n      sub(shl(0xa0, 0x01), 0x01)\n      dup2\n      and\n      0x60\n      dup4\n      add\n      mstore\n      0x80\n      swap1\n      swap2\n      add\n      swap1\n      shl(0xa0, 0x01)\n      swap1\n      div\n      0xff\n      and\n      0x04\n      dup2\n      gt\n      iszero\n      tag_223\n      jumpi\n      tag_223\n      tag_99\n      jump\t// in\n    tag_223:\n      0x04\n      dup2\n      gt\n      iszero\n      tag_225\n      jumpi\n      tag_225\n      tag_99\n      jump\t// in\n    tag_225:\n      dup2\n      mstore\n      0x20\n      add\n      0x08\n      dup3\n      add\n      sload\n      dup2\n      mstore\n      pop\n      pop\n      swap1\n      pop\n        /* \"marketplace-contract/Market.sol\":3809:3816  product */\n      dup1\n        /* \"marketplace-contract/Market.sol\":3809:3822  product.buyer */\n      0xe0\n      add\n      mload\n      sub(shl(0xa0, 0x01), 0x01)\n        /* \"marketplace-contract/Market.sol\":3795:3822  msg.sender == product.buyer */\n      and\n        /* \"marketplace-contract/Market.sol\":3795:3805  msg.sender */\n      caller\n      sub(shl(0xa0, 0x01), 0x01)\n        /* \"marketplace-contract/Market.sol\":3795:3822  msg.sender == product.buyer */\n      and\n      eq\n        /* \"marketplace-contract/Market.sol\":3795:3858  msg.sender == product.buyer && product.status == Status.PENDING */\n      dup1\n      iszero\n      tag_226\n      jumpi\n      pop\n        /* \"marketplace-contract/Market.sol\":3844:3858  Status.PENDING */\n      0x02\n        /* \"marketplace-contract/Market.sol\":3826:3833  product */\n      dup2\n        /* \"marketplace-contract/Market.sol\":3826:3840  product.status */\n      0x0100\n      add\n      mload\n        /* \"marketplace-contract/Market.sol\":3826:3858  product.status == Status.PENDING */\n      0x04\n      dup2\n      gt\n      iszero\n      tag_230\n      jumpi\n      tag_230\n      tag_99\n      jump\t// in\n    tag_230:\n      eq\n        /* \"marketplace-contract/Market.sol\":3795:3858  msg.sender == product.buyer && product.status == Status.PENDING */\n    tag_226:\n        /* \"marketplace-contract/Market.sol\":3773:3904  require(... */\n      tag_231\n      jumpi\n      mload(0x40)\n      shl(0xe5, 0x461bcd)\n      dup2\n      mstore\n        /* \"#utility.yul\":10755:10757   */\n      0x20\n        /* \"marketplace-contract/Market.sol\":3773:3904  require(... */\n      0x04\n      dup3\n      add\n        /* \"#utility.yul\":10737:10758   */\n      mstore\n        /* \"#utility.yul\":10794:10796   */\n      0x12\n        /* \"#utility.yul\":10774:10792   */\n      0x24\n      dup3\n      add\n        /* \"#utility.yul\":10767:10797   */\n      mstore\n      shl(0x72, 0x10d85b98d95b081b9bdd08185b1b1bddd959)\n        /* \"#utility.yul\":10813:10831   */\n      0x44\n      dup3\n      add\n        /* \"#utility.yul\":10806:10854   */\n      mstore\n        /* \"#utility.yul\":10871:10889   */\n      0x64\n      add\n        /* \"marketplace-contract/Market.sol\":3773:3904  require(... */\n      tag_108\n        /* \"#utility.yul\":10553:10895   */\n      jump\n        /* \"marketplace-contract/Market.sol\":3773:3904  require(... */\n    tag_231:\n        /* \"marketplace-contract/Market.sol\":3915:3922  product */\n      dup1\n        /* \"marketplace-contract/Market.sol\":3915:3928  product.buyer */\n      0xe0\n      add\n      mload\n      sub(shl(0xa0, 0x01), 0x01)\n        /* \"marketplace-contract/Market.sol\":3915:3937  product.buyer.transfer */\n      and\n        /* \"marketplace-contract/Market.sol\":3915:3960  product.buyer.transfer(product.buyPriceInETH) */\n      0x08fc\n        /* \"marketplace-contract/Market.sol\":3938:3945  product */\n      dup3\n        /* \"marketplace-contract/Market.sol\":3938:3959  product.buyPriceInETH */\n      0xc0\n      add\n      mload\n        /* \"marketplace-contract/Market.sol\":3915:3960  product.buyer.transfer(product.buyPriceInETH) */\n      swap1\n      dup2\n      iszero\n      mul\n      swap1\n      mload(0x40)\n      0x00\n      mload(0x40)\n      dup1\n      dup4\n      sub\n      dup2\n      dup6\n      dup9\n      dup9\n      call\n      swap4\n      pop\n      pop\n      pop\n      pop\n      iszero\n      dup1\n      iszero\n      tag_235\n      jumpi\n      returndatasize\n      0x00\n      dup1\n      returndatacopy\n      revert(0x00, returndatasize)\n    tag_235:\n      pop\n        /* \"marketplace-contract/Market.sol\":3997:3998  0 */\n      0x00\n        /* \"marketplace-contract/Market.sol\":3973:3994  product.buyPriceInETH */\n      0xc0\n      dup3\n      add\n        /* \"marketplace-contract/Market.sol\":3973:3998  product.buyPriceInETH = 0 */\n      dup2\n      swap1\n      mstore\n        /* \"marketplace-contract/Market.sol\":4026:4039  Status.INSALE */\n      0x01\n        /* \"marketplace-contract/Market.sol\":4009:4023  product.status */\n      0x0100\n      dup4\n      add\n        /* \"marketplace-contract/Market.sol\":4009:4039  product.status = Status.INSALE */\n      mstore\n        /* \"marketplace-contract/Market.sol\":4050:4063  product.buyer */\n      0xe0\n      dup3\n      add\n        /* \"marketplace-contract/Market.sol\":4050:4085  product.buyer = payable(address(0)) */\n      mstore\n        /* \"marketplace-contract/Market.sol\":4096:4104  products */\n      0x02\n        /* \"marketplace-contract/Market.sol\":4096:4109  products[_id] */\n      dup1\n      sload\n        /* \"marketplace-contract/Market.sol\":3973:3994  product.buyPriceInETH */\n      dup3\n      swap2\n        /* \"marketplace-contract/Market.sol\":4096:4104  products */\n      swap1\n        /* \"marketplace-contract/Market.sol\":4105:4108  _id */\n      dup5\n      swap1\n        /* \"marketplace-contract/Market.sol\":4096:4109  products[_id] */\n      dup2\n      lt\n      tag_241\n      jumpi\n      tag_241\n      tag_105\n      jump\t// in\n    tag_241:\n      0x00\n      swap2\n      dup3\n      mstore\n      0x20\n      swap2\n      dup3\n      swap1\n      keccak256\n        /* \"marketplace-contract/Market.sol\":4096:4119  products[_id] = product */\n      dup4\n      mload\n        /* \"marketplace-contract/Market.sol\":4096:4109  products[_id] */\n      0x09\n      swap3\n      swap1\n      swap3\n      mul\n      add\n        /* \"marketplace-contract/Market.sol\":4096:4119  products[_id] = product */\n      swap1\n      dup2\n      sstore\n      swap1\n      dup3\n      add\n      mload\n      0x01\n      dup3\n      add\n      dup1\n      sload\n      not(sub(shl(0xa0, 0x01), 0x01))\n      and\n      sub(shl(0xa0, 0x01), 0x01)\n      swap1\n      swap3\n      and\n      swap2\n      swap1\n      swap2\n      or\n      swap1\n      sstore\n      0x40\n      dup3\n      add\n      mload\n      0x02\n      dup3\n      add\n      swap1\n      tag_243\n      swap1\n      dup3\n      tag_178\n      jump\t// in\n    tag_243:\n      pop\n      0x60\n      dup3\n      add\n      mload\n      0x03\n      dup3\n      add\n      swap1\n      tag_244\n      swap1\n      dup3\n      tag_178\n      jump\t// in\n    tag_244:\n      pop\n      0x80\n      dup3\n      add\n      mload\n      0x04\n      dup3\n      add\n      swap1\n      tag_245\n      swap1\n      dup3\n      tag_178\n      jump\t// in\n    tag_245:\n      pop\n      0xa0\n      dup3\n      add\n      mload\n      0x05\n      dup3\n      add\n      sstore\n      0xc0\n      dup3\n      add\n      mload\n      0x06\n      dup3\n      add\n      sstore\n      0xe0\n      dup3\n      add\n      mload\n      0x07\n      dup3\n      add\n      dup1\n      sload\n      sub(shl(0xa0, 0x01), 0x01)\n      swap1\n      swap3\n      and\n      not(sub(shl(0xa0, 0x01), 0x01))\n      dup4\n      and\n      dup2\n      or\n      dup3\n      sstore\n      0x0100\n      dup6\n      add\n      mload\n      swap3\n      not(sub(shl(0xa8, 0x01), 0x01))\n      and\n      or\n      shl(0xa0, 0x01)\n      dup4\n      0x04\n      dup2\n      gt\n      iszero\n      tag_247\n      jumpi\n      tag_247\n      tag_99\n      jump\t// in\n    tag_247:\n      mul\n      or\n      swap1\n      sstore\n      pop\n      0x0120\n      dup3\n      add\n      mload\n      dup2\n      0x08\n      add\n      sstore\n      swap1\n      pop\n      pop\n        /* \"marketplace-contract/Market.sol\":3711:4127  {... */\n      pop\n        /* \"marketplace-contract/Market.sol\":3667:4127  function cancelPurchase(uint256 _id) public {... */\n      pop\n      jump\t// out\n        /* \"marketplace-contract/Market.sol\":4602:4746  function _convertUSDToETH(uint256 amountInUSD) public returns (uint256) {... */\n    tag_63:\n        /* \"marketplace-contract/Market.sol\":4665:4672  uint256 */\n      0x00\n        /* \"marketplace-contract/Market.sol\":4701:4708  factory */\n      dup1\n      sload\n        /* \"marketplace-contract/Market.sol\":4692:4738  IFactory(factory).convertUSDToETH(amountInUSD) */\n      mload(0x40)\n      shl(0xe3, 0x077c1b97)\n      dup2\n      mstore\n      0x04\n      dup2\n      add\n        /* \"#utility.yul\":6766:6791   */\n      dup5\n      swap1\n      mstore\n      sub(shl(0xa0, 0x01), 0x01)\n        /* \"marketplace-contract/Market.sol\":4701:4708  factory */\n      swap1\n      swap2\n      and\n      swap1\n        /* \"marketplace-contract/Market.sol\":4692:4725  IFactory(factory).convertUSDToETH */\n      0x3be0dcb8\n      swap1\n        /* \"#utility.yul\":6739:6757   */\n      0x24\n      add\n        /* \"marketplace-contract/Market.sol\":4692:4738  IFactory(factory).convertUSDToETH(amountInUSD) */\n      0x20\n      mload(0x40)\n      dup1\n      dup4\n      sub\n      dup2\n      0x00\n      dup8\n      gas\n      call\n      iszero\n      dup1\n      iszero\n      tag_251\n      jumpi\n      returndatasize\n      0x00\n      dup1\n      returndatacopy\n      revert(0x00, returndatasize)\n    tag_251:\n      pop\n      pop\n      pop\n      pop\n      mload(0x40)\n      returndatasize\n      not(0x1f)\n      0x1f\n      dup3\n      add\n      and\n      dup3\n      add\n      dup1\n      0x40\n      mstore\n      pop\n      dup2\n      add\n      swap1\n      tag_252\n      swap2\n      swap1\n      tag_253\n      jump\t// in\n    tag_252:\n        /* \"marketplace-contract/Market.sol\":4685:4738  return IFactory(factory).convertUSDToETH(amountInUSD) */\n      swap3\n        /* \"marketplace-contract/Market.sol\":4602:4746  function _convertUSDToETH(uint256 amountInUSD) public returns (uint256) {... */\n      swap2\n      pop\n      pop\n      jump\t// out\n        /* \"marketplace-contract/Market.sol\":3090:3659  function confirmRecieved(uint256 _id) public {... */\n    tag_69:\n        /* \"marketplace-contract/Market.sol\":3146:3168  Product memory product */\n      0x00\n        /* \"marketplace-contract/Market.sol\":3171:3179  products */\n      0x02\n        /* \"marketplace-contract/Market.sol\":3180:3183  _id */\n      dup3\n        /* \"marketplace-contract/Market.sol\":3171:3184  products[_id] */\n      dup2\n      sload\n      dup2\n      lt\n      tag_256\n      jumpi\n      tag_256\n      tag_105\n      jump\t// in\n    tag_256:\n      swap1\n      0x00\n      mstore\n      keccak256(0x00, 0x20)\n      swap1\n      0x09\n      mul\n      add\n        /* \"marketplace-contract/Market.sol\":3146:3184  Product memory product = products[_id] */\n      mload(0x40)\n      dup1\n      0x0140\n      add\n      0x40\n      mstore\n      swap1\n      dup2\n      0x00\n      dup3\n      add\n      sload\n      dup2\n      mstore\n      0x20\n      add\n      0x01\n      dup3\n      add\n      0x00\n      swap1\n      sload\n      swap1\n      0x0100\n      exp\n      swap1\n      div\n      sub(shl(0xa0, 0x01), 0x01)\n      and\n      sub(shl(0xa0, 0x01), 0x01)\n      and\n      sub(shl(0xa0, 0x01), 0x01)\n      and\n      dup2\n      mstore\n      0x20\n      add\n      0x02\n      dup3\n      add\n      dup1\n      sload\n      tag_258\n      swap1\n      tag_82\n      jump\t// in\n    tag_258:\n      dup1\n      0x1f\n      add\n      0x20\n      dup1\n      swap2\n      div\n      mul\n      0x20\n      add\n      mload(0x40)\n      swap1\n      dup2\n      add\n      0x40\n      mstore\n      dup1\n      swap3\n      swap2\n      swap1\n      dup2\n      dup2\n      mstore\n      0x20\n      add\n      dup3\n      dup1\n      sload\n      tag_259\n      swap1\n      tag_82\n      jump\t// in\n    tag_259:\n      dup1\n      iszero\n      tag_260\n      jumpi\n      dup1\n      0x1f\n      lt\n      tag_261\n      jumpi\n      0x0100\n      dup1\n      dup4\n      sload\n      div\n      mul\n      dup4\n      mstore\n      swap2\n      0x20\n      add\n      swap2\n      jump(tag_260)\n    tag_261:\n      dup3\n      add\n      swap2\n      swap1\n      0x00\n      mstore\n      keccak256(0x00, 0x20)\n      swap1\n    tag_262:\n      dup2\n      sload\n      dup2\n      mstore\n      swap1\n      0x01\n      add\n      swap1\n      0x20\n      add\n      dup1\n      dup4\n      gt\n      tag_262\n      jumpi\n      dup3\n      swap1\n      sub\n      0x1f\n      and\n      dup3\n      add\n      swap2\n    tag_260:\n      pop\n      pop\n      pop\n      pop\n      pop\n      dup2\n      mstore\n      0x20\n      add\n      0x03\n      dup3\n      add\n      dup1\n      sload\n      tag_263\n      swap1\n      tag_82\n      jump\t// in\n    tag_263:\n      dup1\n      0x1f\n      add\n      0x20\n      dup1\n      swap2\n      div\n      mul\n      0x20\n      add\n      mload(0x40)\n      swap1\n      dup2\n      add\n      0x40\n      mstore\n      dup1\n      swap3\n      swap2\n      swap1\n      dup2\n      dup2\n      mstore\n      0x20\n      add\n      dup3\n      dup1\n      sload\n      tag_264\n      swap1\n      tag_82\n      jump\t// in\n    tag_264:\n      dup1\n      iszero\n      tag_265\n      jumpi\n      dup1\n      0x1f\n      lt\n      tag_266\n      jumpi\n      0x0100\n      dup1\n      dup4\n      sload\n      div\n      mul\n      dup4\n      mstore\n      swap2\n      0x20\n      add\n      swap2\n      jump(tag_265)\n    tag_266:\n      dup3\n      add\n      swap2\n      swap1\n      0x00\n      mstore\n      keccak256(0x00, 0x20)\n      swap1\n    tag_267:\n      dup2\n      sload\n      dup2\n      mstore\n      swap1\n      0x01\n      add\n      swap1\n      0x20\n      add\n      dup1\n      dup4\n      gt\n      tag_267\n      jumpi\n      dup3\n      swap1\n      sub\n      0x1f\n      and\n      dup3\n      add\n      swap2\n    tag_265:\n      pop\n      pop\n      pop\n      pop\n      pop\n      dup2\n      mstore\n      0x20\n      add\n      0x04\n      dup3\n      add\n      dup1\n      sload\n      tag_268\n      swap1\n      tag_82\n      jump\t// in\n    tag_268:\n      dup1\n      0x1f\n      add\n      0x20\n      dup1\n      swap2\n      div\n      mul\n      0x20\n      add\n      mload(0x40)\n      swap1\n      dup2\n      add\n      0x40\n      mstore\n      dup1\n      swap3\n      swap2\n      swap1\n      dup2\n      dup2\n      mstore\n      0x20\n      add\n      dup3\n      dup1\n      sload\n      tag_269\n      swap1\n      tag_82\n      jump\t// in\n    tag_269:\n      dup1\n      iszero\n      tag_270\n      jumpi\n      dup1\n      0x1f\n      lt\n      tag_271\n      jumpi\n      0x0100\n      dup1\n      dup4\n      sload\n      div\n      mul\n      dup4\n      mstore\n      swap2\n      0x20\n      add\n      swap2\n      jump(tag_270)\n    tag_271:\n      dup3\n      add\n      swap2\n      swap1\n      0x00\n      mstore\n      keccak256(0x00, 0x20)\n      swap1\n    tag_272:\n      dup2\n      sload\n      dup2\n      mstore\n      swap1\n      0x01\n      add\n      swap1\n      0x20\n      add\n      dup1\n      dup4\n      gt\n      tag_272\n      jumpi\n      dup3\n      swap1\n      sub\n      0x1f\n      and\n      dup3\n      add\n      swap2\n    tag_270:\n      pop\n      pop\n      pop\n      swap2\n      dup4\n      mstore\n      pop\n      pop\n      0x05\n      dup3\n      add\n      sload\n      0x20\n      dup3\n      add\n      mstore\n      0x06\n      dup3\n      add\n      sload\n      0x40\n      dup3\n      add\n      mstore\n      0x07\n      dup3\n      add\n      sload\n      sub(shl(0xa0, 0x01), 0x01)\n      dup2\n      and\n      0x60\n      dup4\n      add\n      mstore\n      0x80\n      swap1\n      swap2\n      add\n      swap1\n      shl(0xa0, 0x01)\n      swap1\n      div\n      0xff\n      and\n      0x04\n      dup2\n      gt\n      iszero\n      tag_274\n      jumpi\n      tag_274\n      tag_99\n      jump\t// in\n    tag_274:\n      0x04\n      dup2\n      gt\n      iszero\n      tag_276\n      jumpi\n      tag_276\n      tag_99\n      jump\t// in\n    tag_276:\n      dup2\n      mstore\n      0x20\n      add\n      0x08\n      dup3\n      add\n      sload\n      dup2\n      mstore\n      pop\n      pop\n      swap1\n      pop\n        /* \"marketplace-contract/Market.sol\":3233:3240  product */\n      dup1\n        /* \"marketplace-contract/Market.sol\":3233:3246  product.buyer */\n      0xe0\n      add\n      mload\n      sub(shl(0xa0, 0x01), 0x01)\n        /* \"marketplace-contract/Market.sol\":3219:3246  msg.sender == product.buyer */\n      and\n        /* \"marketplace-contract/Market.sol\":3219:3229  msg.sender */\n      caller\n      sub(shl(0xa0, 0x01), 0x01)\n        /* \"marketplace-contract/Market.sol\":3219:3246  msg.sender == product.buyer */\n      and\n      eq\n        /* \"marketplace-contract/Market.sol\":3219:3279  msg.sender == product.buyer && product.status == Status.SENT */\n      dup1\n      iszero\n      tag_277\n      jumpi\n      pop\n        /* \"marketplace-contract/Market.sol\":3268:3279  Status.SENT */\n      0x03\n        /* \"marketplace-contract/Market.sol\":3250:3257  product */\n      dup2\n        /* \"marketplace-contract/Market.sol\":3250:3264  product.status */\n      0x0100\n      add\n      mload\n        /* \"marketplace-contract/Market.sol\":3250:3279  product.status == Status.SENT */\n      0x04\n      dup2\n      gt\n      iszero\n      tag_281\n      jumpi\n      tag_281\n      tag_99\n      jump\t// in\n    tag_281:\n      eq\n        /* \"marketplace-contract/Market.sol\":3219:3279  msg.sender == product.buyer && product.status == Status.SENT */\n    tag_277:\n        /* \"marketplace-contract/Market.sol\":3197:3331  require(... */\n      tag_282\n      jumpi\n      mload(0x40)\n      shl(0xe5, 0x461bcd)\n      dup2\n      mstore\n        /* \"#utility.yul\":11291:11293   */\n      0x20\n        /* \"marketplace-contract/Market.sol\":3197:3331  require(... */\n      0x04\n      dup3\n      add\n        /* \"#utility.yul\":11273:11294   */\n      mstore\n        /* \"#utility.yul\":11330:11332   */\n      0x18\n        /* \"#utility.yul\":11310:11328   */\n      0x24\n      dup3\n      add\n        /* \"#utility.yul\":11303:11333   */\n      mstore\n        /* \"#utility.yul\":11369:11395   */\n      0x436f6e6669726d6174696f6e206e6f7420616c6c6f7765640000000000000000\n        /* \"#utility.yul\":11349:11367   */\n      0x44\n      dup3\n      add\n        /* \"#utility.yul\":11342:11396   */\n      mstore\n        /* \"#utility.yul\":11413:11431   */\n      0x64\n      add\n        /* \"marketplace-contract/Market.sol\":3197:3331  require(... */\n      tag_108\n        /* \"#utility.yul\":11089:11437   */\n      jump\n        /* \"marketplace-contract/Market.sol\":3197:3331  require(... */\n    tag_282:\n        /* \"marketplace-contract/Market.sol\":3344:3365  uint256 priceMinusFee */\n      0x00\n        /* \"marketplace-contract/Market.sol\":3409:3413  1000 */\n      0x03e8\n        /* \"marketplace-contract/Market.sol\":3401:3404  fee */\n      sload(0x01)\n        /* \"marketplace-contract/Market.sol\":3394:3398  1000 */\n      0x03e8\n        /* \"marketplace-contract/Market.sol\":3394:3404  1000 - fee */\n      tag_285\n      swap2\n      swap1\n      tag_286\n      jump\t// in\n    tag_285:\n        /* \"marketplace-contract/Market.sol\":3369:3376  product */\n      dup4\n        /* \"marketplace-contract/Market.sol\":3369:3390  product.buyPriceInETH */\n      0xc0\n      add\n      mload\n        /* \"marketplace-contract/Market.sol\":3369:3405  product.buyPriceInETH * (1000 - fee) */\n      tag_287\n      swap2\n      swap1\n      tag_288\n      jump\t// in\n    tag_287:\n        /* \"marketplace-contract/Market.sol\":3368:3413  (product.buyPriceInETH * (1000 - fee)) / 1000 */\n      tag_289\n      swap2\n      swap1\n      tag_290\n      jump\t// in\n    tag_289:\n        /* \"marketplace-contract/Market.sol\":3344:3413  uint256 priceMinusFee = (product.buyPriceInETH * (1000 - fee)) / 1000 */\n      swap1\n      pop\n        /* \"marketplace-contract/Market.sol\":3424:3440  uint256 totalFee */\n      0x00\n        /* \"marketplace-contract/Market.sol\":3475:3479  1000 */\n      0x03e8\n        /* \"marketplace-contract/Market.sol\":3468:3471  fee */\n      sload(0x01)\n        /* \"marketplace-contract/Market.sol\":3444:3451  product */\n      dup5\n        /* \"marketplace-contract/Market.sol\":3444:3465  product.buyPriceInETH */\n      0xc0\n      add\n      mload\n        /* \"marketplace-contract/Market.sol\":3444:3471  product.buyPriceInETH * fee */\n      tag_291\n      swap2\n      swap1\n      tag_288\n      jump\t// in\n    tag_291:\n        /* \"marketplace-contract/Market.sol\":3443:3479  (product.buyPriceInETH * fee) / 1000 */\n      tag_292\n      swap2\n      swap1\n      tag_290\n      jump\t// in\n    tag_292:\n        /* \"marketplace-contract/Market.sol\":3509:3520  Status.SOLD */\n      0x04\n        /* \"marketplace-contract/Market.sol\":3492:3506  product.status */\n      0x0100\n      dup6\n      add\n        /* \"marketplace-contract/Market.sol\":3492:3520  product.status = Status.SOLD */\n      mstore\n        /* \"marketplace-contract/Market.sol\":3531:3539  products */\n      0x02\n        /* \"marketplace-contract/Market.sol\":3531:3544  products[_id] */\n      dup1\n      sload\n        /* \"marketplace-contract/Market.sol\":3424:3479  uint256 totalFee = (product.buyPriceInETH * fee) / 1000 */\n      swap2\n      swap3\n      pop\n        /* \"marketplace-contract/Market.sol\":3492:3506  product.status */\n      dup5\n      swap2\n        /* \"marketplace-contract/Market.sol\":3540:3543  _id */\n      dup7\n      swap1\n        /* \"marketplace-contract/Market.sol\":3531:3544  products[_id] */\n      dup2\n      lt\n      tag_298\n      jumpi\n      tag_298\n      tag_105\n      jump\t// in\n    tag_298:\n      0x00\n      swap2\n      dup3\n      mstore\n      0x20\n      swap2\n      dup3\n      swap1\n      keccak256\n        /* \"marketplace-contract/Market.sol\":3531:3554  products[_id] = product */\n      dup4\n      mload\n        /* \"marketplace-contract/Market.sol\":3531:3544  products[_id] */\n      0x09\n      swap3\n      swap1\n      swap3\n      mul\n      add\n        /* \"marketplace-contract/Market.sol\":3531:3554  products[_id] = product */\n      swap1\n      dup2\n      sstore\n      swap1\n      dup3\n      add\n      mload\n      0x01\n      dup3\n      add\n      dup1\n      sload\n      not(sub(shl(0xa0, 0x01), 0x01))\n      and\n      sub(shl(0xa0, 0x01), 0x01)\n      swap1\n      swap3\n      and\n      swap2\n      swap1\n      swap2\n      or\n      swap1\n      sstore\n      0x40\n      dup3\n      add\n      mload\n      0x02\n      dup3\n      add\n      swap1\n      tag_300\n      swap1\n      dup3\n      tag_178\n      jump\t// in\n    tag_300:\n      pop\n      0x60\n      dup3\n      add\n      mload\n      0x03\n      dup3\n      add\n      swap1\n      tag_301\n      swap1\n      dup3\n      tag_178\n      jump\t// in\n    tag_301:\n      pop\n      0x80\n      dup3\n      add\n      mload\n      0x04\n      dup3\n      add\n      swap1\n      tag_302\n      swap1\n      dup3\n      tag_178\n      jump\t// in\n    tag_302:\n      pop\n      0xa0\n      dup3\n      add\n      mload\n      0x05\n      dup3\n      add\n      sstore\n      0xc0\n      dup3\n      add\n      mload\n      0x06\n      dup3\n      add\n      sstore\n      0xe0\n      dup3\n      add\n      mload\n      0x07\n      dup3\n      add\n      dup1\n      sload\n      sub(shl(0xa0, 0x01), 0x01)\n      swap1\n      swap3\n      and\n      not(sub(shl(0xa0, 0x01), 0x01))\n      dup4\n      and\n      dup2\n      or\n      dup3\n      sstore\n      0x0100\n      dup6\n      add\n      mload\n      swap3\n      not(sub(shl(0xa8, 0x01), 0x01))\n      and\n      or\n      shl(0xa0, 0x01)\n      dup4\n      0x04\n      dup2\n      gt\n      iszero\n      tag_304\n      jumpi\n      tag_304\n      tag_99\n      jump\t// in\n    tag_304:\n      mul\n      or\n      swap1\n      sstore\n      pop\n      0x0120\n      swap2\n      swap1\n      swap2\n      add\n      mload\n      0x08\n      swap1\n      swap2\n      add\n      sstore\n        /* \"marketplace-contract/Market.sol\":3575:3582  factory */\n      0x00\n      dup1\n      sload\n        /* \"marketplace-contract/Market.sol\":3567:3602  payable(factory).transfer(totalFee) */\n      mload(0x40)\n      sub(shl(0xa0, 0x01), 0x01)\n        /* \"marketplace-contract/Market.sol\":3575:3582  factory */\n      swap1\n      swap2\n      and\n      swap2\n        /* \"marketplace-contract/Market.sol\":3567:3602  payable(factory).transfer(totalFee) */\n      dup4\n      iszero\n      0x08fc\n      mul\n      swap2\n        /* \"marketplace-contract/Market.sol\":3593:3601  totalFee */\n      dup5\n      swap2\n        /* \"marketplace-contract/Market.sol\":3567:3602  payable(factory).transfer(totalFee) */\n      dup2\n        /* \"marketplace-contract/Market.sol\":3575:3582  factory */\n      dup2\n        /* \"marketplace-contract/Market.sol\":3567:3602  payable(factory).transfer(totalFee) */\n      dup2\n        /* \"marketplace-contract/Market.sol\":3593:3601  totalFee */\n      dup6\n        /* \"marketplace-contract/Market.sol\":3575:3582  factory */\n      dup9\n        /* \"marketplace-contract/Market.sol\":3567:3602  payable(factory).transfer(totalFee) */\n      dup9\n      call\n      swap4\n      pop\n      pop\n      pop\n      pop\n      iszero\n      dup1\n      iszero\n      tag_306\n      jumpi\n      returndatasize\n      0x00\n      dup1\n      returndatacopy\n      revert(0x00, returndatasize)\n    tag_306:\n      pop\n        /* \"marketplace-contract/Market.sol\":3613:3620  product */\n      dup3\n        /* \"marketplace-contract/Market.sol\":3613:3627  product.seller */\n      0x20\n      add\n      mload\n      sub(shl(0xa0, 0x01), 0x01)\n        /* \"marketplace-contract/Market.sol\":3613:3636  product.seller.transfer */\n      and\n        /* \"marketplace-contract/Market.sol\":3613:3651  product.seller.transfer(priceMinusFee) */\n      0x08fc\n        /* \"marketplace-contract/Market.sol\":3637:3650  priceMinusFee */\n      dup4\n        /* \"marketplace-contract/Market.sol\":3613:3651  product.seller.transfer(priceMinusFee) */\n      swap1\n      dup2\n      iszero\n      mul\n      swap1\n      mload(0x40)\n      0x00\n      mload(0x40)\n      dup1\n      dup4\n      sub\n      dup2\n      dup6\n      dup9\n      dup9\n      call\n      swap4\n      pop\n      pop\n      pop\n      pop\n      iszero\n      dup1\n      iszero\n      tag_308\n      jumpi\n      returndatasize\n      0x00\n      dup1\n      returndatacopy\n      revert(0x00, returndatasize)\n    tag_308:\n      pop\n        /* \"marketplace-contract/Market.sol\":3135:3659  {... */\n      pop\n      pop\n      pop\n        /* \"marketplace-contract/Market.sol\":3090:3659  function confirmRecieved(uint256 _id) public {... */\n      pop\n      jump\t// out\n        /* \"marketplace-contract/Market.sol\":2353:2902  function purchase(uint256 _id) public payable {... */\n    tag_76:\n        /* \"marketplace-contract/Market.sol\":2410:2432  Product memory product */\n      0x00\n        /* \"marketplace-contract/Market.sol\":2435:2443  products */\n      0x02\n        /* \"marketplace-contract/Market.sol\":2444:2447  _id */\n      dup3\n        /* \"marketplace-contract/Market.sol\":2435:2448  products[_id] */\n      dup2\n      sload\n      dup2\n      lt\n      tag_311\n      jumpi\n      tag_311\n      tag_105\n      jump\t// in\n    tag_311:\n      swap1\n      0x00\n      mstore\n      keccak256(0x00, 0x20)\n      swap1\n      0x09\n      mul\n      add\n        /* \"marketplace-contract/Market.sol\":2410:2448  Product memory product = products[_id] */\n      mload(0x40)\n      dup1\n      0x0140\n      add\n      0x40\n      mstore\n      swap1\n      dup2\n      0x00\n      dup3\n      add\n      sload\n      dup2\n      mstore\n      0x20\n      add\n      0x01\n      dup3\n      add\n      0x00\n      swap1\n      sload\n      swap1\n      0x0100\n      exp\n      swap1\n      div\n      sub(shl(0xa0, 0x01), 0x01)\n      and\n      sub(shl(0xa0, 0x01), 0x01)\n      and\n      sub(shl(0xa0, 0x01), 0x01)\n      and\n      dup2\n      mstore\n      0x20\n      add\n      0x02\n      dup3\n      add\n      dup1\n      sload\n      tag_313\n      swap1\n      tag_82\n      jump\t// in\n    tag_313:\n      dup1\n      0x1f\n      add\n      0x20\n      dup1\n      swap2\n      div\n      mul\n      0x20\n      add\n      mload(0x40)\n      swap1\n      dup2\n      add\n      0x40\n      mstore\n      dup1\n      swap3\n      swap2\n      swap1\n      dup2\n      dup2\n      mstore\n      0x20\n      add\n      dup3\n      dup1\n      sload\n      tag_314\n      swap1\n      tag_82\n      jump\t// in\n    tag_314:\n      dup1\n      iszero\n      tag_315\n      jumpi\n      dup1\n      0x1f\n      lt\n      tag_316\n      jumpi\n      0x0100\n      dup1\n      dup4\n      sload\n      div\n      mul\n      dup4\n      mstore\n      swap2\n      0x20\n      add\n      swap2\n      jump(tag_315)\n    tag_316:\n      dup3\n      add\n      swap2\n      swap1\n      0x00\n      mstore\n      keccak256(0x00, 0x20)\n      swap1\n    tag_317:\n      dup2\n      sload\n      dup2\n      mstore\n      swap1\n      0x01\n      add\n      swap1\n      0x20\n      add\n      dup1\n      dup4\n      gt\n      tag_317\n      jumpi\n      dup3\n      swap1\n      sub\n      0x1f\n      and\n      dup3\n      add\n      swap2\n    tag_315:\n      pop\n      pop\n      pop\n      pop\n      pop\n      dup2\n      mstore\n      0x20\n      add\n      0x03\n      dup3\n      add\n      dup1\n      sload\n      tag_318\n      swap1\n      tag_82\n      jump\t// in\n    tag_318:\n      dup1\n      0x1f\n      add\n      0x20\n      dup1\n      swap2\n      div\n      mul\n      0x20\n      add\n      mload(0x40)\n      swap1\n      dup2\n      add\n      0x40\n      mstore\n      dup1\n      swap3\n      swap2\n      swap1\n      dup2\n      dup2\n      mstore\n      0x20\n      add\n      dup3\n      dup1\n      sload\n      tag_319\n      swap1\n      tag_82\n      jump\t// in\n    tag_319:\n      dup1\n      iszero\n      tag_320\n      jumpi\n      dup1\n      0x1f\n      lt\n      tag_321\n      jumpi\n      0x0100\n      dup1\n      dup4\n      sload\n      div\n      mul\n      dup4\n      mstore\n      swap2\n      0x20\n      add\n      swap2\n      jump(tag_320)\n    tag_321:\n      dup3\n      add\n      swap2\n      swap1\n      0x00\n      mstore\n      keccak256(0x00, 0x20)\n      swap1\n    tag_322:\n      dup2\n      sload\n      dup2\n      mstore\n      swap1\n      0x01\n      add\n      swap1\n      0x20\n      add\n      dup1\n      dup4\n      gt\n      tag_322\n      jumpi\n      dup3\n      swap1\n      sub\n      0x1f\n      and\n      dup3\n      add\n      swap2\n    tag_320:\n      pop\n      pop\n      pop\n      pop\n      pop\n      dup2\n      mstore\n      0x20\n      add\n      0x04\n      dup3\n      add\n      dup1\n      sload\n      tag_323\n      swap1\n      tag_82\n      jump\t// in\n    tag_323:\n      dup1\n      0x1f\n      add\n      0x20\n      dup1\n      swap2\n      div\n      mul\n      0x20\n      add\n      mload(0x40)\n      swap1\n      dup2\n      add\n      0x40\n      mstore\n      dup1\n      swap3\n      swap2\n      swap1\n      dup2\n      dup2\n      mstore\n      0x20\n      add\n      dup3\n      dup1\n      sload\n      tag_324\n      swap1\n      tag_82\n      jump\t// in\n    tag_324:\n      dup1\n      iszero\n      tag_325\n      jumpi\n      dup1\n      0x1f\n      lt\n      tag_326\n      jumpi\n      0x0100\n      dup1\n      dup4\n      sload\n      div\n      mul\n      dup4\n      mstore\n      swap2\n      0x20\n      add\n      swap2\n      jump(tag_325)\n    tag_326:\n      dup3\n      add\n      swap2\n      swap1\n      0x00\n      mstore\n      keccak256(0x00, 0x20)\n      swap1\n    tag_327:\n      dup2\n      sload\n      dup2\n      mstore\n      swap1\n      0x01\n      add\n      swap1\n      0x20\n      add\n      dup1\n      dup4\n      gt\n      tag_327\n      jumpi\n      dup3\n      swap1\n      sub\n      0x1f\n      and\n      dup3\n      add\n      swap2\n    tag_325:\n      pop\n      pop\n      pop\n      swap2\n      dup4\n      mstore\n      pop\n      pop\n      0x05\n      dup3\n      add\n      sload\n      0x20\n      dup3\n      add\n      mstore\n      0x06\n      dup3\n      add\n      sload\n      0x40\n      dup3\n      add\n      mstore\n      0x07\n      dup3\n      add\n      sload\n      sub(shl(0xa0, 0x01), 0x01)\n      dup2\n      and\n      0x60\n      dup4\n      add\n      mstore\n      0x80\n      swap1\n      swap2\n      add\n      swap1\n      shl(0xa0, 0x01)\n      swap1\n      div\n      0xff\n      and\n      0x04\n      dup2\n      gt\n      iszero\n      tag_329\n      jumpi\n      tag_329\n      tag_99\n      jump\t// in\n    tag_329:\n      0x04\n      dup2\n      gt\n      iszero\n      tag_331\n      jumpi\n      tag_331\n      tag_99\n      jump\t// in\n    tag_331:\n      dup2\n      mstore\n      0x20\n      add\n      0x08\n      dup3\n      add\n      sload\n      dup2\n      mstore\n      pop\n      pop\n      swap1\n      pop\n        /* \"marketplace-contract/Market.sol\":2497:2504  product */\n      dup1\n        /* \"marketplace-contract/Market.sol\":2497:2511  product.seller */\n      0x20\n      add\n      mload\n      sub(shl(0xa0, 0x01), 0x01)\n        /* \"marketplace-contract/Market.sol\":2483:2511  msg.sender != product.seller */\n      and\n        /* \"marketplace-contract/Market.sol\":2483:2493  msg.sender */\n      caller\n      sub(shl(0xa0, 0x01), 0x01)\n        /* \"marketplace-contract/Market.sol\":2483:2511  msg.sender != product.seller */\n      and\n      eq\n      iszero\n        /* \"marketplace-contract/Market.sol\":2483:2546  msg.sender != product.seller && product.status == Status.INSALE */\n      dup1\n      iszero\n      tag_332\n      jumpi\n      pop\n        /* \"marketplace-contract/Market.sol\":2533:2546  Status.INSALE */\n      0x01\n        /* \"marketplace-contract/Market.sol\":2515:2522  product */\n      dup2\n        /* \"marketplace-contract/Market.sol\":2515:2529  product.status */\n      0x0100\n      add\n      mload\n        /* \"marketplace-contract/Market.sol\":2515:2546  product.status == Status.INSALE */\n      0x04\n      dup2\n      gt\n      iszero\n      tag_336\n      jumpi\n      tag_336\n      tag_99\n      jump\t// in\n    tag_336:\n      eq\n        /* \"marketplace-contract/Market.sol\":2483:2546  msg.sender != product.seller && product.status == Status.INSALE */\n    tag_332:\n        /* \"marketplace-contract/Market.sol\":2461:2590  require(... */\n      tag_337\n      jumpi\n      mload(0x40)\n      shl(0xe5, 0x461bcd)\n      dup2\n      mstore\n        /* \"#utility.yul\":12304:12306   */\n      0x20\n        /* \"marketplace-contract/Market.sol\":2461:2590  require(... */\n      0x04\n      dup3\n      add\n        /* \"#utility.yul\":12286:12307   */\n      mstore\n        /* \"#utility.yul\":12343:12345   */\n      0x10\n        /* \"#utility.yul\":12323:12341   */\n      0x24\n      dup3\n      add\n        /* \"#utility.yul\":12316:12346   */\n      mstore\n      shl(0x80, 0x496e76616c6964207075726368617365)\n        /* \"#utility.yul\":12362:12380   */\n      0x44\n      dup3\n      add\n        /* \"#utility.yul\":12355:12401   */\n      mstore\n        /* \"#utility.yul\":12418:12436   */\n      0x64\n      add\n        /* \"marketplace-contract/Market.sol\":2461:2590  require(... */\n      tag_108\n        /* \"#utility.yul\":12102:12442   */\n      jump\n        /* \"marketplace-contract/Market.sol\":2461:2590  require(... */\n    tag_337:\n        /* \"marketplace-contract/Market.sol\":2603:2621  uint256 priceInETH */\n      0x00\n        /* \"marketplace-contract/Market.sol\":2624:2660  _convertUSDToETH(product.priceInUSD) */\n      tag_340\n        /* \"marketplace-contract/Market.sol\":2641:2648  product */\n      dup3\n        /* \"marketplace-contract/Market.sol\":2641:2659  product.priceInUSD */\n      0xa0\n      add\n      mload\n        /* \"marketplace-contract/Market.sol\":2624:2640  _convertUSDToETH */\n      tag_63\n        /* \"marketplace-contract/Market.sol\":2624:2660  _convertUSDToETH(product.priceInUSD) */\n      jump\t// in\n    tag_340:\n        /* \"marketplace-contract/Market.sol\":2603:2660  uint256 priceInETH = _convertUSDToETH(product.priceInUSD) */\n      swap1\n      pop\n        /* \"marketplace-contract/Market.sol\":2692:2702  priceInETH */\n      dup1\n        /* \"marketplace-contract/Market.sol\":2679:2688  msg.value */\n      callvalue\n        /* \"marketplace-contract/Market.sol\":2679:2702  msg.value == priceInETH */\n      eq\n        /* \"marketplace-contract/Market.sol\":2671:2725  require(msg.value == priceInETH, \"insuffisant amount\") */\n      tag_341\n      jumpi\n      mload(0x40)\n      shl(0xe5, 0x461bcd)\n      dup2\n      mstore\n        /* \"#utility.yul\":12649:12651   */\n      0x20\n        /* \"marketplace-contract/Market.sol\":2671:2725  require(msg.value == priceInETH, \"insuffisant amount\") */\n      0x04\n      dup3\n      add\n        /* \"#utility.yul\":12631:12652   */\n      mstore\n        /* \"#utility.yul\":12688:12690   */\n      0x12\n        /* \"#utility.yul\":12668:12686   */\n      0x24\n      dup3\n      add\n        /* \"#utility.yul\":12661:12691   */\n      mstore\n      shl(0x72, 0x1a5b9cdd59999a5cd85b9d08185b5bdd5b9d)\n        /* \"#utility.yul\":12707:12725   */\n      0x44\n      dup3\n      add\n        /* \"#utility.yul\":12700:12748   */\n      mstore\n        /* \"#utility.yul\":12765:12783   */\n      0x64\n      add\n        /* \"marketplace-contract/Market.sol\":2671:2725  require(msg.value == priceInETH, \"insuffisant amount\") */\n      tag_108\n        /* \"#utility.yul\":12447:12789   */\n      jump\n        /* \"marketplace-contract/Market.sol\":2671:2725  require(msg.value == priceInETH, \"insuffisant amount\") */\n    tag_341:\n        /* \"marketplace-contract/Market.sol\":2762:2772  msg.sender */\n      caller\n        /* \"marketplace-contract/Market.sol\":2738:2751  product.buyer */\n      0xe0\n      dup4\n      add\n        /* \"marketplace-contract/Market.sol\":2738:2773  product.buyer = payable(msg.sender) */\n      mstore\n        /* \"marketplace-contract/Market.sol\":2784:2805  product.buyPriceInETH */\n      0xc0\n      dup3\n      add\n        /* \"marketplace-contract/Market.sol\":2784:2818  product.buyPriceInETH = priceInETH */\n      dup2\n      swap1\n      mstore\n        /* \"marketplace-contract/Market.sol\":2846:2860  Status.PENDING */\n      0x02\n        /* \"marketplace-contract/Market.sol\":2829:2843  product.status */\n      0x0100\n      dup4\n      add\n        /* \"marketplace-contract/Market.sol\":2846:2860  Status.PENDING */\n      dup2\n        /* \"marketplace-contract/Market.sol\":2829:2860  product.status = Status.PENDING */\n      dup2\n      mstore\n      pop\n      pop\n        /* \"marketplace-contract/Market.sol\":2887:2894  product */\n      dup2\n        /* \"marketplace-contract/Market.sol\":2871:2879  products */\n      0x02\n        /* \"marketplace-contract/Market.sol\":2880:2883  _id */\n      dup5\n        /* \"marketplace-contract/Market.sol\":2871:2884  products[_id] */\n      dup2\n      sload\n      dup2\n      lt\n      tag_349\n      jumpi\n      tag_349\n      tag_105\n      jump\t// in\n    tag_349:\n      0x00\n      swap2\n      dup3\n      mstore\n      0x20\n      swap2\n      dup3\n      swap1\n      keccak256\n        /* \"marketplace-contract/Market.sol\":2871:2894  products[_id] = product */\n      dup4\n      mload\n        /* \"marketplace-contract/Market.sol\":2871:2884  products[_id] */\n      0x09\n      swap3\n      swap1\n      swap3\n      mul\n      add\n        /* \"marketplace-contract/Market.sol\":2871:2894  products[_id] = product */\n      swap1\n      dup2\n      sstore\n      swap1\n      dup3\n      add\n      mload\n      0x01\n      dup3\n      add\n      dup1\n      sload\n      not(sub(shl(0xa0, 0x01), 0x01))\n      and\n      sub(shl(0xa0, 0x01), 0x01)\n      swap1\n      swap3\n      and\n      swap2\n      swap1\n      swap2\n      or\n      swap1\n      sstore\n      0x40\n      dup3\n      add\n      mload\n      0x02\n      dup3\n      add\n      swap1\n      tag_351\n      swap1\n      dup3\n      tag_178\n      jump\t// in\n    tag_351:\n      pop\n      0x60\n      dup3\n      add\n      mload\n      0x03\n      dup3\n      add\n      swap1\n      tag_352\n      swap1\n      dup3\n      tag_178\n      jump\t// in\n    tag_352:\n      pop\n      0x80\n      dup3\n      add\n      mload\n      0x04\n      dup3\n      add\n      swap1\n      tag_353\n      swap1\n      dup3\n      tag_178\n      jump\t// in\n    tag_353:\n      pop\n      0xa0\n      dup3\n      add\n      mload\n      0x05\n      dup3\n      add\n      sstore\n      0xc0\n      dup3\n      add\n      mload\n      0x06\n      dup3\n      add\n      sstore\n      0xe0\n      dup3\n      add\n      mload\n      0x07\n      dup3\n      add\n      dup1\n      sload\n      sub(shl(0xa0, 0x01), 0x01)\n      swap1\n      swap3\n      and\n      not(sub(shl(0xa0, 0x01), 0x01))\n      dup4\n      and\n      dup2\n      or\n      dup3\n      sstore\n      0x0100\n      dup6\n      add\n      mload\n      swap3\n      not(sub(shl(0xa8, 0x01), 0x01))\n      and\n      or\n      shl(0xa0, 0x01)\n      dup4\n      0x04\n      dup2\n      gt\n      iszero\n      tag_355\n      jumpi\n      tag_355\n      tag_99\n      jump\t// in\n    tag_355:\n      mul\n      or\n      swap1\n      sstore\n      pop\n      0x0120\n      dup3\n      add\n      mload\n      dup2\n      0x08\n      add\n      sstore\n      swap1\n      pop\n      pop\n        /* \"marketplace-contract/Market.sol\":2399:2902  {... */\n      pop\n      pop\n        /* \"marketplace-contract/Market.sol\":2353:2902  function purchase(uint256 _id) public payable {... */\n      pop\n      jump\t// out\n    tag_148:\n      pop\n      dup1\n      sload\n      tag_356\n      swap1\n      tag_82\n      jump\t// in\n    tag_356:\n      0x00\n      dup3\n      sstore\n      dup1\n      0x1f\n      lt\n      tag_358\n      jumpi\n      pop\n      pop\n      jump\t// out\n    tag_358:\n      0x1f\n      add\n      0x20\n      swap1\n      div\n      swap1\n      0x00\n      mstore\n      keccak256(0x00, 0x20)\n      swap1\n      dup2\n      add\n      swap1\n      tag_359\n      swap2\n      swap1\n      tag_360\n      jump\t// in\n    tag_359:\n      pop\n      jump\t// out\n    tag_360:\n    tag_361:\n      dup1\n      dup3\n      gt\n      iszero\n      tag_362\n      jumpi\n      0x00\n      dup2\n      sstore\n      0x01\n      add\n      jump(tag_361)\n    tag_362:\n      pop\n      swap1\n      jump\t// out\n        /* \"#utility.yul\":131:554   */\n    tag_364:\n        /* \"#utility.yul\":173:176   */\n      0x00\n        /* \"#utility.yul\":211:216   */\n      dup2\n        /* \"#utility.yul\":205:217   */\n      mload\n        /* \"#utility.yul\":238:244   */\n      dup1\n        /* \"#utility.yul\":233:236   */\n      dup5\n        /* \"#utility.yul\":226:245   */\n      mstore\n        /* \"#utility.yul\":263:264   */\n      0x00\n        /* \"#utility.yul\":273:435   */\n    tag_375:\n        /* \"#utility.yul\":287:293   */\n      dup2\n        /* \"#utility.yul\":284:285   */\n      dup2\n        /* \"#utility.yul\":281:294   */\n      lt\n        /* \"#utility.yul\":273:435   */\n      iszero\n      tag_377\n      jumpi\n        /* \"#utility.yul\":349:353   */\n      0x20\n        /* \"#utility.yul\":405:418   */\n      dup2\n      dup6\n      add\n        /* \"#utility.yul\":401:423   */\n      dup2\n      add\n        /* \"#utility.yul\":395:424   */\n      mload\n        /* \"#utility.yul\":377:388   */\n      dup7\n      dup4\n      add\n        /* \"#utility.yul\":373:393   */\n      dup3\n      add\n        /* \"#utility.yul\":366:425   */\n      mstore\n        /* \"#utility.yul\":302:314   */\n      add\n        /* \"#utility.yul\":273:435   */\n      jump(tag_375)\n    tag_377:\n        /* \"#utility.yul\":277:280   */\n      pop\n        /* \"#utility.yul\":480:481   */\n      0x00\n        /* \"#utility.yul\":473:477   */\n      0x20\n        /* \"#utility.yul\":464:470   */\n      dup3\n        /* \"#utility.yul\":459:462   */\n      dup7\n        /* \"#utility.yul\":455:471   */\n      add\n        /* \"#utility.yul\":451:478   */\n      add\n        /* \"#utility.yul\":444:482   */\n      mstore\n        /* \"#utility.yul\":543:547   */\n      0x20\n        /* \"#utility.yul\":536:538   */\n      0x1f\n        /* \"#utility.yul\":532:539   */\n      not\n        /* \"#utility.yul\":527:529   */\n      0x1f\n        /* \"#utility.yul\":519:525   */\n      dup4\n        /* \"#utility.yul\":515:530   */\n      add\n        /* \"#utility.yul\":511:540   */\n      and\n        /* \"#utility.yul\":506:509   */\n      dup6\n        /* \"#utility.yul\":502:541   */\n      add\n        /* \"#utility.yul\":498:548   */\n      add\n        /* \"#utility.yul\":491:548   */\n      swap2\n      pop\n      pop\n        /* \"#utility.yul\":131:554   */\n      swap3\n      swap2\n      pop\n      pop\n      jump\t// out\n        /* \"#utility.yul\":559:686   */\n    tag_99:\n        /* \"#utility.yul\":620:630   */\n      0x4e487b71\n        /* \"#utility.yul\":615:618   */\n      0xe0\n        /* \"#utility.yul\":611:631   */\n      shl\n        /* \"#utility.yul\":608:609   */\n      0x00\n        /* \"#utility.yul\":601:632   */\n      mstore\n        /* \"#utility.yul\":651:655   */\n      0x21\n        /* \"#utility.yul\":648:649   */\n      0x04\n        /* \"#utility.yul\":641:656   */\n      mstore\n        /* \"#utility.yul\":675:679   */\n      0x24\n        /* \"#utility.yul\":672:673   */\n      0x00\n        /* \"#utility.yul\":665:680   */\n      revert\n        /* \"#utility.yul\":691:925   */\n    tag_365:\n        /* \"#utility.yul\":769:770   */\n      0x05\n        /* \"#utility.yul\":762:767   */\n      dup2\n        /* \"#utility.yul\":759:771   */\n      lt\n        /* \"#utility.yul\":749:892   */\n      tag_380\n      jumpi\n        /* \"#utility.yul\":814:824   */\n      0x4e487b71\n        /* \"#utility.yul\":809:812   */\n      0xe0\n        /* \"#utility.yul\":805:825   */\n      shl\n        /* \"#utility.yul\":802:803   */\n      0x00\n        /* \"#utility.yul\":795:826   */\n      mstore\n        /* \"#utility.yul\":849:853   */\n      0x21\n        /* \"#utility.yul\":846:847   */\n      0x04\n        /* \"#utility.yul\":839:854   */\n      mstore\n        /* \"#utility.yul\":877:881   */\n      0x24\n        /* \"#utility.yul\":874:875   */\n      0x00\n        /* \"#utility.yul\":867:882   */\n      revert\n        /* \"#utility.yul\":749:892   */\n    tag_380:\n        /* \"#utility.yul\":901:919   */\n      swap1\n      mstore\n        /* \"#utility.yul\":691:925   */\n      jump\t// out\n        /* \"#utility.yul\":930:3109   */\n    tag_21:\n        /* \"#utility.yul\":1118:1122   */\n      0x00\n        /* \"#utility.yul\":1147:1149   */\n      0x20\n        /* \"#utility.yul\":1187:1189   */\n      dup1\n        /* \"#utility.yul\":1176:1185   */\n      dup4\n        /* \"#utility.yul\":1172:1190   */\n      add\n        /* \"#utility.yul\":1217:1219   */\n      dup2\n        /* \"#utility.yul\":1206:1215   */\n      dup5\n        /* \"#utility.yul\":1199:1220   */\n      mstore\n        /* \"#utility.yul\":1240:1246   */\n      dup1\n        /* \"#utility.yul\":1275:1281   */\n      dup6\n        /* \"#utility.yul\":1269:1282   */\n      mload\n        /* \"#utility.yul\":1306:1312   */\n      dup1\n        /* \"#utility.yul\":1298:1304   */\n      dup4\n        /* \"#utility.yul\":1291:1313   */\n      mstore\n        /* \"#utility.yul\":1332:1334   */\n      0x40\n        /* \"#utility.yul\":1322:1334   */\n      swap3\n      pop\n        /* \"#utility.yul\":1365:1367   */\n      dup3\n        /* \"#utility.yul\":1354:1363   */\n      dup7\n        /* \"#utility.yul\":1350:1368   */\n      add\n        /* \"#utility.yul\":1343:1368   */\n      swap2\n      pop\n        /* \"#utility.yul\":1427:1429   */\n      dup3\n        /* \"#utility.yul\":1417:1423   */\n      dup2\n        /* \"#utility.yul\":1414:1415   */\n      0x05\n        /* \"#utility.yul\":1410:1424   */\n      shl\n        /* \"#utility.yul\":1399:1408   */\n      dup8\n        /* \"#utility.yul\":1395:1425   */\n      add\n        /* \"#utility.yul\":1391:1430   */\n      add\n        /* \"#utility.yul\":1465:1467   */\n      dup5\n        /* \"#utility.yul\":1457:1463   */\n      dup9\n        /* \"#utility.yul\":1453:1468   */\n      add\n        /* \"#utility.yul\":1486:1487   */\n      0x00\n        /* \"#utility.yul\":1496:3080   */\n    tag_382:\n        /* \"#utility.yul\":1510:1516   */\n      dup4\n        /* \"#utility.yul\":1507:1508   */\n      dup2\n        /* \"#utility.yul\":1504:1517   */\n      lt\n        /* \"#utility.yul\":1496:3080   */\n      iszero\n      tag_384\n      jumpi\n      not(0x3f)\n        /* \"#utility.yul\":1575:1597   */\n      dup10\n      dup5\n      sub\n        /* \"#utility.yul\":1571:1607   */\n      add\n        /* \"#utility.yul\":1559:1608   */\n      dup6\n      mstore\n        /* \"#utility.yul\":1631:1644   */\n      dup2\n      mload\n        /* \"#utility.yul\":1701:1710   */\n      dup1\n      mload\n        /* \"#utility.yul\":1686:1711   */\n      dup5\n      mstore\n        /* \"#utility.yul\":1750:1761   */\n      dup8\n      dup2\n      add\n        /* \"#utility.yul\":1744:1762   */\n      mload\n      sub(shl(0xa0, 0x01), 0x01)\n        /* \"#utility.yul\":88:119   */\n      and\n        /* \"#utility.yul\":1816:1831   */\n      dup9\n      dup6\n      add\n        /* \"#utility.yul\":76:120   */\n      mstore\n        /* \"#utility.yul\":1873:1884   */\n      dup7\n      dup2\n      add\n        /* \"#utility.yul\":1867:1885   */\n      mload\n        /* \"#utility.yul\":1667:1673   */\n      0x0140\n        /* \"#utility.yul\":1905:1920   */\n      dup9\n      dup7\n      add\n        /* \"#utility.yul\":1898:1925   */\n      dup2\n      swap1\n      mstore\n        /* \"#utility.yul\":1667:1673   */\n      swap1\n        /* \"#utility.yul\":1952:2002   */\n      tag_386\n        /* \"#utility.yul\":1986:2001   */\n      dup3\n      dup8\n      add\n        /* \"#utility.yul\":1867:1885   */\n      dup3\n        /* \"#utility.yul\":1952:2002   */\n      tag_364\n      jump\t// in\n    tag_386:\n        /* \"#utility.yul\":1938:2002   */\n      swap2\n      pop\n      pop\n        /* \"#utility.yul\":2025:2029   */\n      0x60\n        /* \"#utility.yul\":2078:2080   */\n      dup1\n        /* \"#utility.yul\":2074:2076   */\n      dup4\n        /* \"#utility.yul\":2070:2081   */\n      add\n        /* \"#utility.yul\":2064:2082   */\n      mload\n        /* \"#utility.yul\":2131:2137   */\n      dup7\n        /* \"#utility.yul\":2123:2129   */\n      dup4\n        /* \"#utility.yul\":2119:2138   */\n      sub\n        /* \"#utility.yul\":2114:2116   */\n      dup3\n        /* \"#utility.yul\":2106:2112   */\n      dup9\n        /* \"#utility.yul\":2102:2117   */\n      add\n        /* \"#utility.yul\":2095:2139   */\n      mstore\n        /* \"#utility.yul\":2166:2207   */\n      tag_387\n        /* \"#utility.yul\":2200:2206   */\n      dup4\n        /* \"#utility.yul\":2184:2198   */\n      dup3\n        /* \"#utility.yul\":2166:2207   */\n      tag_364\n      jump\t// in\n    tag_387:\n        /* \"#utility.yul\":2152:2207   */\n      swap3\n      pop\n      pop\n      pop\n        /* \"#utility.yul\":2230:2234   */\n      0x80\n        /* \"#utility.yul\":2283:2285   */\n      dup1\n        /* \"#utility.yul\":2279:2281   */\n      dup4\n        /* \"#utility.yul\":2275:2286   */\n      add\n        /* \"#utility.yul\":2269:2287   */\n      mload\n        /* \"#utility.yul\":2336:2342   */\n      dup7\n        /* \"#utility.yul\":2328:2334   */\n      dup4\n        /* \"#utility.yul\":2324:2343   */\n      sub\n        /* \"#utility.yul\":2319:2321   */\n      dup3\n        /* \"#utility.yul\":2311:2317   */\n      dup9\n        /* \"#utility.yul\":2307:2322   */\n      add\n        /* \"#utility.yul\":2300:2344   */\n      mstore\n        /* \"#utility.yul\":2371:2412   */\n      tag_388\n        /* \"#utility.yul\":2405:2411   */\n      dup4\n        /* \"#utility.yul\":2389:2403   */\n      dup3\n        /* \"#utility.yul\":2371:2412   */\n      tag_364\n      jump\t// in\n    tag_388:\n        /* \"#utility.yul\":2357:2412   */\n      swap3\n      pop\n      pop\n      pop\n        /* \"#utility.yul\":2435:2439   */\n      0xa0\n        /* \"#utility.yul\":2490:2492   */\n      dup1\n        /* \"#utility.yul\":2486:2488   */\n      dup4\n        /* \"#utility.yul\":2482:2493   */\n      add\n        /* \"#utility.yul\":2476:2494   */\n      mload\n        /* \"#utility.yul\":2471:2473   */\n      dup2\n        /* \"#utility.yul\":2463:2469   */\n      dup8\n        /* \"#utility.yul\":2459:2474   */\n      add\n        /* \"#utility.yul\":2452:2495   */\n      mstore\n      pop\n        /* \"#utility.yul\":2518:2522   */\n      0xc0\n        /* \"#utility.yul\":2573:2575   */\n      dup1\n        /* \"#utility.yul\":2569:2571   */\n      dup4\n        /* \"#utility.yul\":2565:2576   */\n      add\n        /* \"#utility.yul\":2559:2577   */\n      mload\n        /* \"#utility.yul\":2554:2556   */\n      dup2\n        /* \"#utility.yul\":2546:2552   */\n      dup8\n        /* \"#utility.yul\":2542:2557   */\n      add\n        /* \"#utility.yul\":2535:2578   */\n      mstore\n      pop\n        /* \"#utility.yul\":2601:2605   */\n      0xe0\n        /* \"#utility.yul\":2654:2656   */\n      dup1\n        /* \"#utility.yul\":2650:2652   */\n      dup4\n        /* \"#utility.yul\":2646:2657   */\n      add\n        /* \"#utility.yul\":2640:2658   */\n      mload\n        /* \"#utility.yul\":2671:2730   */\n      tag_389\n        /* \"#utility.yul\":2726:2728   */\n      dup3\n        /* \"#utility.yul\":2718:2724   */\n      dup9\n        /* \"#utility.yul\":2714:2729   */\n      add\n        /* \"#utility.yul\":2698:2712   */\n      dup3\n      sub(shl(0xa0, 0x01), 0x01)\n        /* \"#utility.yul\":88:119   */\n      and\n        /* \"#utility.yul\":76:120   */\n      swap1\n      mstore\n        /* \"#utility.yul\":14:126   */\n      jump\n        /* \"#utility.yul\":2671:2730   */\n    tag_389:\n      pop\n      pop\n        /* \"#utility.yul\":2754:2760   */\n      0x0100\n        /* \"#utility.yul\":2809:2812   */\n      dup1\n        /* \"#utility.yul\":2805:2807   */\n      dup4\n        /* \"#utility.yul\":2801:2813   */\n      add\n        /* \"#utility.yul\":2795:2814   */\n      mload\n        /* \"#utility.yul\":2827:2883   */\n      tag_390\n        /* \"#utility.yul\":2878:2881   */\n      dup3\n        /* \"#utility.yul\":2870:2876   */\n      dup9\n        /* \"#utility.yul\":2866:2882   */\n      add\n        /* \"#utility.yul\":2850:2864   */\n      dup3\n        /* \"#utility.yul\":2827:2883   */\n      tag_365\n      jump\t// in\n    tag_390:\n      pop\n      pop\n        /* \"#utility.yul\":2907:2913   */\n      0x0120\n        /* \"#utility.yul\":2957:2969   */\n      swap2\n      dup3\n      add\n        /* \"#utility.yul\":2951:2970   */\n      mload\n        /* \"#utility.yul\":2933:2949   */\n      swap5\n      swap1\n      swap2\n      add\n        /* \"#utility.yul\":2926:2971   */\n      swap4\n      swap1\n      swap4\n      mstore\n        /* \"#utility.yul\":3058:3070   */\n      swap4\n      dup7\n      add\n      swap4\n        /* \"#utility.yul\":3023:3038   */\n      swap1\n      dup7\n      add\n      swap1\n        /* \"#utility.yul\":1532:1533   */\n      0x01\n        /* \"#utility.yul\":1525:1534   */\n      add\n        /* \"#utility.yul\":1496:3080   */\n      jump(tag_382)\n    tag_384:\n      pop\n        /* \"#utility.yul\":3097:3103   */\n      swap1\n      swap9\n        /* \"#utility.yul\":930:3109   */\n      swap8\n      pop\n      pop\n      pop\n      pop\n      pop\n      pop\n      pop\n      pop\n      jump\t// out\n        /* \"#utility.yul\":3114:3294   */\n    tag_25:\n        /* \"#utility.yul\":3173:3179   */\n      0x00\n        /* \"#utility.yul\":3226:3228   */\n      0x20\n        /* \"#utility.yul\":3214:3223   */\n      dup3\n        /* \"#utility.yul\":3205:3212   */\n      dup5\n        /* \"#utility.yul\":3201:3224   */\n      sub\n        /* \"#utility.yul\":3197:3229   */\n      slt\n        /* \"#utility.yul\":3194:3246   */\n      iszero\n      tag_392\n      jumpi\n        /* \"#utility.yul\":3242:3243   */\n      0x00\n        /* \"#utility.yul\":3239:3240   */\n      dup1\n        /* \"#utility.yul\":3232:3244   */\n      revert\n        /* \"#utility.yul\":3194:3246   */\n    tag_392:\n      pop\n        /* \"#utility.yul\":3265:3288   */\n      calldataload\n      swap2\n        /* \"#utility.yul\":3114:3294   */\n      swap1\n      pop\n      jump\t// out\n        /* \"#utility.yul\":3299:4481   */\n    tag_40:\n        /* \"#utility.yul\":3783:3808   */\n      dup11\n      dup2\n      mstore\n      sub(shl(0xa0, 0x01), 0x01)\n        /* \"#utility.yul\":3882:3897   */\n      dup11\n      dup2\n      and\n        /* \"#utility.yul\":3877:3879   */\n      0x20\n        /* \"#utility.yul\":3862:3880   */\n      dup4\n      add\n        /* \"#utility.yul\":3855:3898   */\n      mstore\n        /* \"#utility.yul\":3771:3774   */\n      0x0140\n        /* \"#utility.yul\":3929:3931   */\n      0x40\n        /* \"#utility.yul\":3914:3932   */\n      dup4\n      add\n        /* \"#utility.yul\":3907:3937   */\n      dup2\n      swap1\n      mstore\n        /* \"#utility.yul\":3742:3746   */\n      0x00\n      swap2\n        /* \"#utility.yul\":3960:4005   */\n      tag_394\n        /* \"#utility.yul\":3986:4004   */\n      dup5\n      dup4\n      add\n        /* \"#utility.yul\":3978:3984   */\n      dup14\n        /* \"#utility.yul\":3960:4005   */\n      tag_364\n      jump\t// in\n    tag_394:\n        /* \"#utility.yul\":3946:4005   */\n      swap2\n      pop\n        /* \"#utility.yul\":4053:4062   */\n      dup4\n        /* \"#utility.yul\":4045:4051   */\n      dup3\n        /* \"#utility.yul\":4041:4063   */\n      sub\n        /* \"#utility.yul\":4036:4038   */\n      0x60\n        /* \"#utility.yul\":4025:4034   */\n      dup6\n        /* \"#utility.yul\":4021:4039   */\n      add\n        /* \"#utility.yul\":4014:4064   */\n      mstore\n        /* \"#utility.yul\":4087:4120   */\n      tag_395\n        /* \"#utility.yul\":4113:4119   */\n      dup3\n        /* \"#utility.yul\":4105:4111   */\n      dup13\n        /* \"#utility.yul\":4087:4120   */\n      tag_364\n      jump\t// in\n    tag_395:\n        /* \"#utility.yul\":4073:4120   */\n      swap2\n      pop\n        /* \"#utility.yul\":4169:4178   */\n      dup4\n        /* \"#utility.yul\":4161:4167   */\n      dup3\n        /* \"#utility.yul\":4157:4179   */\n      sub\n        /* \"#utility.yul\":4151:4154   */\n      0x80\n        /* \"#utility.yul\":4140:4149   */\n      dup6\n        /* \"#utility.yul\":4136:4155   */\n      add\n        /* \"#utility.yul\":4129:4180   */\n      mstore\n        /* \"#utility.yul\":4197:4230   */\n      tag_396\n        /* \"#utility.yul\":4223:4229   */\n      dup3\n        /* \"#utility.yul\":4215:4221   */\n      dup12\n        /* \"#utility.yul\":4197:4230   */\n      tag_364\n      jump\t// in\n    tag_396:\n        /* \"#utility.yul\":4189:4230   */\n      swap3\n      pop\n        /* \"#utility.yul\":4267:4273   */\n      dup9\n        /* \"#utility.yul\":4261:4264   */\n      0xa0\n        /* \"#utility.yul\":4250:4259   */\n      dup6\n        /* \"#utility.yul\":4246:4265   */\n      add\n        /* \"#utility.yul\":4239:4274   */\n      mstore\n        /* \"#utility.yul\":4311:4317   */\n      dup8\n        /* \"#utility.yul\":4305:4308   */\n      0xc0\n        /* \"#utility.yul\":4294:4303   */\n      dup6\n        /* \"#utility.yul\":4290:4309   */\n      add\n        /* \"#utility.yul\":4283:4318   */\n      mstore\n        /* \"#utility.yul\":4367:4369   */\n      dup1\n        /* \"#utility.yul\":4359:4365   */\n      dup8\n        /* \"#utility.yul\":4355:4370   */\n      and\n        /* \"#utility.yul\":4349:4352   */\n      0xe0\n        /* \"#utility.yul\":4338:4347   */\n      dup6\n        /* \"#utility.yul\":4334:4353   */\n      add\n        /* \"#utility.yul\":4327:4371   */\n      mstore\n      pop\n      pop\n        /* \"#utility.yul\":4380:4431   */\n      tag_397\n        /* \"#utility.yul\":4426:4429   */\n      0x0100\n        /* \"#utility.yul\":4415:4424   */\n      dup4\n        /* \"#utility.yul\":4411:4430   */\n      add\n        /* \"#utility.yul\":4403:4409   */\n      dup6\n        /* \"#utility.yul\":4380:4431   */\n      tag_365\n      jump\t// in\n    tag_397:\n        /* \"#utility.yul\":4468:4474   */\n      dup3\n        /* \"#utility.yul\":4462:4465   */\n      0x0120\n        /* \"#utility.yul\":4451:4460   */\n      dup4\n        /* \"#utility.yul\":4447:4466   */\n      add\n        /* \"#utility.yul\":4440:4475   */\n      mstore\n        /* \"#utility.yul\":3299:4481   */\n      swap12\n      swap11\n      pop\n      pop\n      pop\n      pop\n      pop\n      pop\n      pop\n      pop\n      pop\n      pop\n      pop\n      jump\t// out\n        /* \"#utility.yul\":4486:4613   */\n    tag_366:\n        /* \"#utility.yul\":4547:4557   */\n      0x4e487b71\n        /* \"#utility.yul\":4542:4545   */\n      0xe0\n        /* \"#utility.yul\":4538:4558   */\n      shl\n        /* \"#utility.yul\":4535:4536   */\n      0x00\n        /* \"#utility.yul\":4528:4559   */\n      mstore\n        /* \"#utility.yul\":4578:4582   */\n      0x41\n        /* \"#utility.yul\":4575:4576   */\n      0x04\n        /* \"#utility.yul\":4568:4583   */\n      mstore\n        /* \"#utility.yul\":4602:4606   */\n      0x24\n        /* \"#utility.yul\":4599:4600   */\n      0x00\n        /* \"#utility.yul\":4592:4607   */\n      revert\n        /* \"#utility.yul\":4618:5337   */\n    tag_367:\n        /* \"#utility.yul\":4661:4666   */\n      0x00\n        /* \"#utility.yul\":4714:4717   */\n      dup3\n        /* \"#utility.yul\":4707:4711   */\n      0x1f\n        /* \"#utility.yul\":4699:4705   */\n      dup4\n        /* \"#utility.yul\":4695:4712   */\n      add\n        /* \"#utility.yul\":4691:4718   */\n      slt\n        /* \"#utility.yul\":4681:4736   */\n      tag_400\n      jumpi\n        /* \"#utility.yul\":4732:4733   */\n      0x00\n        /* \"#utility.yul\":4729:4730   */\n      dup1\n        /* \"#utility.yul\":4722:4734   */\n      revert\n        /* \"#utility.yul\":4681:4736   */\n    tag_400:\n        /* \"#utility.yul\":4768:4774   */\n      dup2\n        /* \"#utility.yul\":4755:4775   */\n      calldataload\n        /* \"#utility.yul\":4794:4812   */\n      0xffffffffffffffff\n        /* \"#utility.yul\":4831:4833   */\n      dup1\n        /* \"#utility.yul\":4827:4829   */\n      dup3\n        /* \"#utility.yul\":4824:4834   */\n      gt\n        /* \"#utility.yul\":4821:4857   */\n      iszero\n      tag_402\n      jumpi\n        /* \"#utility.yul\":4837:4855   */\n      tag_402\n      tag_366\n      jump\t// in\n    tag_402:\n        /* \"#utility.yul\":4912:4914   */\n      0x40\n        /* \"#utility.yul\":4906:4915   */\n      mload\n        /* \"#utility.yul\":4880:4882   */\n      0x1f\n        /* \"#utility.yul\":4966:4979   */\n      dup4\n      add\n      not(0x1f)\n        /* \"#utility.yul\":4962:4984   */\n      swap1\n      dup2\n      and\n        /* \"#utility.yul\":4986:4988   */\n      0x3f\n        /* \"#utility.yul\":4958:4989   */\n      add\n        /* \"#utility.yul\":4954:4994   */\n      and\n        /* \"#utility.yul\":4942:4995   */\n      dup2\n      add\n      swap1\n        /* \"#utility.yul\":5010:5028   */\n      dup3\n      dup3\n      gt\n        /* \"#utility.yul\":5030:5052   */\n      dup2\n      dup4\n      lt\n        /* \"#utility.yul\":5007:5053   */\n      or\n        /* \"#utility.yul\":5004:5076   */\n      iszero\n      tag_404\n      jumpi\n        /* \"#utility.yul\":5056:5074   */\n      tag_404\n      tag_366\n      jump\t// in\n    tag_404:\n        /* \"#utility.yul\":5096:5106   */\n      dup2\n        /* \"#utility.yul\":5092:5094   */\n      0x40\n        /* \"#utility.yul\":5085:5107   */\n      mstore\n        /* \"#utility.yul\":5131:5133   */\n      dup4\n        /* \"#utility.yul\":5123:5129   */\n      dup2\n        /* \"#utility.yul\":5116:5134   */\n      mstore\n        /* \"#utility.yul\":5177:5180   */\n      dup7\n        /* \"#utility.yul\":5170:5174   */\n      0x20\n        /* \"#utility.yul\":5165:5167   */\n      dup6\n        /* \"#utility.yul\":5157:5163   */\n      dup9\n        /* \"#utility.yul\":5153:5168   */\n      add\n        /* \"#utility.yul\":5149:5175   */\n      add\n        /* \"#utility.yul\":5146:5181   */\n      gt\n        /* \"#utility.yul\":5143:5198   */\n      iszero\n      tag_405\n      jumpi\n        /* \"#utility.yul\":5194:5195   */\n      0x00\n        /* \"#utility.yul\":5191:5192   */\n      dup1\n        /* \"#utility.yul\":5184:5196   */\n      revert\n        /* \"#utility.yul\":5143:5198   */\n    tag_405:\n        /* \"#utility.yul\":5258:5260   */\n      dup4\n        /* \"#utility.yul\":5251:5255   */\n      0x20\n        /* \"#utility.yul\":5243:5249   */\n      dup8\n        /* \"#utility.yul\":5239:5256   */\n      add\n        /* \"#utility.yul\":5232:5236   */\n      0x20\n        /* \"#utility.yul\":5224:5230   */\n      dup4\n        /* \"#utility.yul\":5220:5237   */\n      add\n        /* \"#utility.yul\":5207:5261   */\n      calldatacopy\n        /* \"#utility.yul\":5305:5306   */\n      0x00\n        /* \"#utility.yul\":5298:5302   */\n      0x20\n        /* \"#utility.yul\":5293:5295   */\n      dup6\n        /* \"#utility.yul\":5285:5291   */\n      dup4\n        /* \"#utility.yul\":5281:5296   */\n      add\n        /* \"#utility.yul\":5277:5303   */\n      add\n        /* \"#utility.yul\":5270:5307   */\n      mstore\n        /* \"#utility.yul\":5325:5331   */\n      dup1\n        /* \"#utility.yul\":5316:5331   */\n      swap5\n      pop\n      pop\n      pop\n      pop\n      pop\n        /* \"#utility.yul\":4618:5337   */\n      swap3\n      swap2\n      pop\n      pop\n      jump\t// out\n        /* \"#utility.yul\":5342:6154   */\n    tag_44:\n        /* \"#utility.yul\":5458:5464   */\n      0x00\n        /* \"#utility.yul\":5466:5472   */\n      dup1\n        /* \"#utility.yul\":5474:5480   */\n      0x00\n        /* \"#utility.yul\":5482:5488   */\n      dup1\n        /* \"#utility.yul\":5535:5538   */\n      0x80\n        /* \"#utility.yul\":5523:5532   */\n      dup6\n        /* \"#utility.yul\":5514:5521   */\n      dup8\n        /* \"#utility.yul\":5510:5533   */\n      sub\n        /* \"#utility.yul\":5506:5539   */\n      slt\n        /* \"#utility.yul\":5503:5556   */\n      iszero\n      tag_407\n      jumpi\n        /* \"#utility.yul\":5552:5553   */\n      0x00\n        /* \"#utility.yul\":5549:5550   */\n      dup1\n        /* \"#utility.yul\":5542:5554   */\n      revert\n        /* \"#utility.yul\":5503:5556   */\n    tag_407:\n        /* \"#utility.yul\":5592:5601   */\n      dup5\n        /* \"#utility.yul\":5579:5602   */\n      calldataload\n        /* \"#utility.yul\":5621:5639   */\n      0xffffffffffffffff\n        /* \"#utility.yul\":5662:5664   */\n      dup1\n        /* \"#utility.yul\":5654:5660   */\n      dup3\n        /* \"#utility.yul\":5651:5665   */\n      gt\n        /* \"#utility.yul\":5648:5682   */\n      iszero\n      tag_408\n      jumpi\n        /* \"#utility.yul\":5678:5679   */\n      0x00\n        /* \"#utility.yul\":5675:5676   */\n      dup1\n        /* \"#utility.yul\":5668:5680   */\n      revert\n        /* \"#utility.yul\":5648:5682   */\n    tag_408:\n        /* \"#utility.yul\":5701:5751   */\n      tag_409\n        /* \"#utility.yul\":5743:5750   */\n      dup9\n        /* \"#utility.yul\":5734:5740   */\n      dup4\n        /* \"#utility.yul\":5723:5732   */\n      dup10\n        /* \"#utility.yul\":5719:5741   */\n      add\n        /* \"#utility.yul\":5701:5751   */\n      tag_367\n      jump\t// in\n    tag_409:\n        /* \"#utility.yul\":5691:5751   */\n      swap6\n      pop\n        /* \"#utility.yul\":5804:5806   */\n      0x20\n        /* \"#utility.yul\":5793:5802   */\n      dup8\n        /* \"#utility.yul\":5789:5807   */\n      add\n        /* \"#utility.yul\":5776:5808   */\n      calldataload\n        /* \"#utility.yul\":5760:5808   */\n      swap2\n      pop\n        /* \"#utility.yul\":5833:5835   */\n      dup1\n        /* \"#utility.yul\":5823:5831   */\n      dup3\n        /* \"#utility.yul\":5820:5836   */\n      gt\n        /* \"#utility.yul\":5817:5853   */\n      iszero\n      tag_410\n      jumpi\n        /* \"#utility.yul\":5849:5850   */\n      0x00\n        /* \"#utility.yul\":5846:5847   */\n      dup1\n        /* \"#utility.yul\":5839:5851   */\n      revert\n        /* \"#utility.yul\":5817:5853   */\n    tag_410:\n        /* \"#utility.yul\":5872:5924   */\n      tag_411\n        /* \"#utility.yul\":5916:5923   */\n      dup9\n        /* \"#utility.yul\":5905:5913   */\n      dup4\n        /* \"#utility.yul\":5894:5903   */\n      dup10\n        /* \"#utility.yul\":5890:5914   */\n      add\n        /* \"#utility.yul\":5872:5924   */\n      tag_367\n      jump\t// in\n    tag_411:\n        /* \"#utility.yul\":5862:5924   */\n      swap5\n      pop\n        /* \"#utility.yul\":5977:5979   */\n      0x40\n        /* \"#utility.yul\":5966:5975   */\n      dup8\n        /* \"#utility.yul\":5962:5980   */\n      add\n        /* \"#utility.yul\":5949:5981   */\n      calldataload\n        /* \"#utility.yul\":5933:5981   */\n      swap2\n      pop\n        /* \"#utility.yul\":6006:6008   */\n      dup1\n        /* \"#utility.yul\":5996:6004   */\n      dup3\n        /* \"#utility.yul\":5993:6009   */\n      gt\n        /* \"#utility.yul\":5990:6026   */\n      iszero\n      tag_412\n      jumpi\n        /* \"#utility.yul\":6022:6023   */\n      0x00\n        /* \"#utility.yul\":6019:6020   */\n      dup1\n        /* \"#utility.yul\":6012:6024   */\n      revert\n        /* \"#utility.yul\":5990:6026   */\n    tag_412:\n      pop\n        /* \"#utility.yul\":6045:6097   */\n      tag_413\n        /* \"#utility.yul\":6089:6096   */\n      dup8\n        /* \"#utility.yul\":6078:6086   */\n      dup3\n        /* \"#utility.yul\":6067:6076   */\n      dup9\n        /* \"#utility.yul\":6063:6087   */\n      add\n        /* \"#utility.yul\":6045:6097   */\n      tag_367\n      jump\t// in\n    tag_413:\n        /* \"#utility.yul\":5342:6154   */\n      swap5\n      swap8\n      swap4\n      swap7\n      pop\n        /* \"#utility.yul\":6035:6097   */\n      swap4\n      swap5\n        /* \"#utility.yul\":6144:6146   */\n      0x60\n        /* \"#utility.yul\":6129:6147   */\n      add\n        /* \"#utility.yul\":6116:6148   */\n      calldataload\n      swap4\n      pop\n      pop\n      pop\n        /* \"#utility.yul\":5342:6154   */\n      jump\t// out\n        /* \"#utility.yul\":6159:6407   */\n    tag_49:\n        /* \"#utility.yul\":6227:6233   */\n      0x00\n        /* \"#utility.yul\":6235:6241   */\n      dup1\n        /* \"#utility.yul\":6288:6290   */\n      0x40\n        /* \"#utility.yul\":6276:6285   */\n      dup4\n        /* \"#utility.yul\":6267:6274   */\n      dup6\n        /* \"#utility.yul\":6263:6286   */\n      sub\n        /* \"#utility.yul\":6259:6291   */\n      slt\n        /* \"#utility.yul\":6256:6308   */\n      iszero\n      tag_415\n      jumpi\n        /* \"#utility.yul\":6304:6305   */\n      0x00\n        /* \"#utility.yul\":6301:6302   */\n      dup1\n        /* \"#utility.yul\":6294:6306   */\n      revert\n        /* \"#utility.yul\":6256:6308   */\n    tag_415:\n      pop\n      pop\n        /* \"#utility.yul\":6327:6350   */\n      dup1\n      calldataload\n      swap3\n        /* \"#utility.yul\":6397:6399   */\n      0x20\n        /* \"#utility.yul\":6382:6400   */\n      swap1\n      swap2\n      add\n        /* \"#utility.yul\":6369:6401   */\n      calldataload\n      swap2\n      pop\n        /* \"#utility.yul\":6159:6407   */\n      jump\t// out\n        /* \"#utility.yul\":6802:7182   */\n    tag_82:\n        /* \"#utility.yul\":6881:6882   */\n      0x01\n        /* \"#utility.yul\":6877:6889   */\n      dup2\n      dup2\n      shr\n      swap1\n        /* \"#utility.yul\":6924:6936   */\n      dup3\n      and\n      dup1\n        /* \"#utility.yul\":6945:7006   */\n      tag_419\n      jumpi\n        /* \"#utility.yul\":6999:7003   */\n      0x7f\n        /* \"#utility.yul\":6991:6997   */\n      dup3\n        /* \"#utility.yul\":6987:7004   */\n      and\n        /* \"#utility.yul\":6977:7004   */\n      swap2\n      pop\n        /* \"#utility.yul\":6945:7006   */\n    tag_419:\n        /* \"#utility.yul\":7052:7054   */\n      0x20\n        /* \"#utility.yul\":7044:7050   */\n      dup3\n        /* \"#utility.yul\":7041:7055   */\n      lt\n        /* \"#utility.yul\":7021:7039   */\n      dup2\n        /* \"#utility.yul\":7018:7056   */\n      sub\n        /* \"#utility.yul\":7015:7176   */\n      tag_420\n      jumpi\n        /* \"#utility.yul\":7098:7108   */\n      0x4e487b71\n        /* \"#utility.yul\":7093:7096   */\n      0xe0\n        /* \"#utility.yul\":7089:7109   */\n      shl\n        /* \"#utility.yul\":7086:7087   */\n      0x00\n        /* \"#utility.yul\":7079:7110   */\n      mstore\n        /* \"#utility.yul\":7133:7137   */\n      0x22\n        /* \"#utility.yul\":7130:7131   */\n      0x04\n        /* \"#utility.yul\":7123:7138   */\n      mstore\n        /* \"#utility.yul\":7161:7165   */\n      0x24\n        /* \"#utility.yul\":7158:7159   */\n      0x00\n        /* \"#utility.yul\":7151:7166   */\n      revert\n        /* \"#utility.yul\":7015:7176   */\n    tag_420:\n      pop\n        /* \"#utility.yul\":6802:7182   */\n      swap2\n      swap1\n      pop\n      jump\t// out\n        /* \"#utility.yul\":7187:7314   */\n    tag_105:\n        /* \"#utility.yul\":7248:7258   */\n      0x4e487b71\n        /* \"#utility.yul\":7243:7246   */\n      0xe0\n        /* \"#utility.yul\":7239:7259   */\n      shl\n        /* \"#utility.yul\":7236:7237   */\n      0x00\n        /* \"#utility.yul\":7229:7260   */\n      mstore\n        /* \"#utility.yul\":7279:7283   */\n      0x32\n        /* \"#utility.yul\":7276:7277   */\n      0x04\n        /* \"#utility.yul\":7269:7284   */\n      mstore\n        /* \"#utility.yul\":7303:7307   */\n      0x24\n        /* \"#utility.yul\":7300:7301   */\n      0x00\n        /* \"#utility.yul\":7293:7308   */\n      revert\n        /* \"#utility.yul\":7319:7659   */\n    tag_109:\n        /* \"#utility.yul\":7521:7523   */\n      0x20\n        /* \"#utility.yul\":7503:7524   */\n      dup1\n      dup3\n      mstore\n        /* \"#utility.yul\":7560:7562   */\n      0x10\n        /* \"#utility.yul\":7540:7558   */\n      swap1\n      dup3\n      add\n        /* \"#utility.yul\":7533:7563   */\n      mstore\n      shl(0x82, 0x1bdb9b1e481cd95b1b195c8818d85b1b)\n        /* \"#utility.yul\":7594:7596   */\n      0x40\n        /* \"#utility.yul\":7579:7597   */\n      dup3\n      add\n        /* \"#utility.yul\":7572:7618   */\n      mstore\n        /* \"#utility.yul\":7650:7652   */\n      0x60\n        /* \"#utility.yul\":7635:7653   */\n      add\n      swap1\n        /* \"#utility.yul\":7319:7659   */\n      jump\t// out\n        /* \"#utility.yul\":7664:8000   */\n    tag_120:\n        /* \"#utility.yul\":7866:7868   */\n      0x20\n        /* \"#utility.yul\":7848:7869   */\n      dup1\n      dup3\n      mstore\n        /* \"#utility.yul\":7905:7907   */\n      0x0c\n        /* \"#utility.yul\":7885:7903   */\n      swap1\n      dup3\n      add\n        /* \"#utility.yul\":7878:7908   */\n      mstore\n      shl(0xa0, 0x57726f6e6720737461747573)\n        /* \"#utility.yul\":7939:7941   */\n      0x40\n        /* \"#utility.yul\":7924:7942   */\n      dup3\n      add\n        /* \"#utility.yul\":7917:7959   */\n      mstore\n        /* \"#utility.yul\":7991:7993   */\n      0x60\n        /* \"#utility.yul\":7976:7994   */\n      add\n      swap1\n        /* \"#utility.yul\":7664:8000   */\n      jump\t// out\n        /* \"#utility.yul\":8475:9020   */\n    tag_369:\n        /* \"#utility.yul\":8577:8579   */\n      0x1f\n        /* \"#utility.yul\":8572:8575   */\n      dup3\n        /* \"#utility.yul\":8569:8580   */\n      gt\n        /* \"#utility.yul\":8566:9014   */\n      iszero\n      tag_427\n      jumpi\n        /* \"#utility.yul\":8613:8614   */\n      0x00\n        /* \"#utility.yul\":8638:8643   */\n      dup2\n        /* \"#utility.yul\":8634:8636   */\n      dup2\n        /* \"#utility.yul\":8627:8644   */\n      mstore\n        /* \"#utility.yul\":8683:8687   */\n      0x20\n        /* \"#utility.yul\":8679:8681   */\n      dup2\n        /* \"#utility.yul\":8669:8688   */\n      keccak256\n        /* \"#utility.yul\":8753:8755   */\n      0x1f\n        /* \"#utility.yul\":8741:8751   */\n      dup6\n        /* \"#utility.yul\":8737:8756   */\n      add\n        /* \"#utility.yul\":8734:8735   */\n      0x05\n        /* \"#utility.yul\":8730:8757   */\n      shr\n        /* \"#utility.yul\":8724:8728   */\n      dup2\n        /* \"#utility.yul\":8720:8758   */\n      add\n        /* \"#utility.yul\":8789:8793   */\n      0x20\n        /* \"#utility.yul\":8777:8787   */\n      dup7\n        /* \"#utility.yul\":8774:8794   */\n      lt\n        /* \"#utility.yul\":8771:8818   */\n      iszero\n      tag_428\n      jumpi\n      pop\n        /* \"#utility.yul\":8812:8816   */\n      dup1\n        /* \"#utility.yul\":8771:8818   */\n    tag_428:\n        /* \"#utility.yul\":8867:8869   */\n      0x1f\n        /* \"#utility.yul\":8862:8865   */\n      dup6\n        /* \"#utility.yul\":8858:8870   */\n      add\n        /* \"#utility.yul\":8855:8856   */\n      0x05\n        /* \"#utility.yul\":8851:8871   */\n      shr\n        /* \"#utility.yul\":8845:8849   */\n      dup3\n        /* \"#utility.yul\":8841:8872   */\n      add\n        /* \"#utility.yul\":8831:8872   */\n      swap2\n      pop\n        /* \"#utility.yul\":8922:9004   */\n    tag_429:\n        /* \"#utility.yul\":8940:8942   */\n      dup2\n        /* \"#utility.yul\":8933:8938   */\n      dup2\n        /* \"#utility.yul\":8930:8943   */\n      lt\n        /* \"#utility.yul\":8922:9004   */\n      iszero\n      tag_431\n      jumpi\n        /* \"#utility.yul\":8985:9002   */\n      dup3\n      dup2\n      sstore\n        /* \"#utility.yul\":8966:8967   */\n      0x01\n        /* \"#utility.yul\":8955:8968   */\n      add\n        /* \"#utility.yul\":8922:9004   */\n      jump(tag_429)\n    tag_431:\n        /* \"#utility.yul\":8926:8929   */\n      pop\n      pop\n      pop\n        /* \"#utility.yul\":8566:9014   */\n    tag_427:\n        /* \"#utility.yul\":8475:9020   */\n      pop\n      pop\n      pop\n      jump\t// out\n        /* \"#utility.yul\":9196:10548   */\n    tag_178:\n        /* \"#utility.yul\":9322:9325   */\n      dup2\n        /* \"#utility.yul\":9316:9326   */\n      mload\n        /* \"#utility.yul\":9349:9367   */\n      0xffffffffffffffff\n        /* \"#utility.yul\":9341:9347   */\n      dup2\n        /* \"#utility.yul\":9338:9368   */\n      gt\n        /* \"#utility.yul\":9335:9391   */\n      iszero\n      tag_435\n      jumpi\n        /* \"#utility.yul\":9371:9389   */\n      tag_435\n      tag_366\n      jump\t// in\n    tag_435:\n        /* \"#utility.yul\":9400:9497   */\n      tag_436\n        /* \"#utility.yul\":9490:9496   */\n      dup2\n        /* \"#utility.yul\":9450:9488   */\n      tag_437\n        /* \"#utility.yul\":9482:9486   */\n      dup5\n        /* \"#utility.yul\":9476:9487   */\n      sload\n        /* \"#utility.yul\":9450:9488   */\n      tag_82\n      jump\t// in\n    tag_437:\n        /* \"#utility.yul\":9444:9448   */\n      dup5\n        /* \"#utility.yul\":9400:9497   */\n      tag_369\n      jump\t// in\n    tag_436:\n        /* \"#utility.yul\":9552:9556   */\n      0x20\n      dup1\n        /* \"#utility.yul\":9616:9618   */\n      0x1f\n        /* \"#utility.yul\":9605:9619   */\n      dup4\n      gt\n        /* \"#utility.yul\":9633:9634   */\n      0x01\n        /* \"#utility.yul\":9628:10291   */\n      dup2\n      eq\n      tag_439\n      jumpi\n        /* \"#utility.yul\":10335:10336   */\n      0x00\n        /* \"#utility.yul\":10352:10358   */\n      dup5\n        /* \"#utility.yul\":10349:10438   */\n      iszero\n      tag_440\n      jumpi\n      pop\n        /* \"#utility.yul\":10404:10423   */\n      dup6\n      dup4\n      add\n        /* \"#utility.yul\":10398:10424   */\n      mload\n        /* \"#utility.yul\":10349:10438   */\n    tag_440:\n      not(0x00)\n        /* \"#utility.yul\":9153:9154   */\n      0x03\n        /* \"#utility.yul\":9149:9160   */\n      dup7\n      swap1\n      shl\n        /* \"#utility.yul\":9145:9169   */\n      shr\n        /* \"#utility.yul\":9141:9170   */\n      not\n        /* \"#utility.yul\":9131:9171   */\n      and\n        /* \"#utility.yul\":9177:9178   */\n      0x01\n        /* \"#utility.yul\":9173:9184   */\n      dup6\n      swap1\n      shl\n        /* \"#utility.yul\":9128:9185   */\n      or\n        /* \"#utility.yul\":10451:10532   */\n      dup6\n      sstore\n        /* \"#utility.yul\":9598:10542   */\n      jump(tag_431)\n        /* \"#utility.yul\":9628:10291   */\n    tag_439:\n        /* \"#utility.yul\":8422:8423   */\n      0x00\n        /* \"#utility.yul\":8415:8429   */\n      dup6\n      dup2\n      mstore\n        /* \"#utility.yul\":8459:8463   */\n      0x20\n        /* \"#utility.yul\":8446:8464   */\n      dup2\n      keccak256\n      not(0x1f)\n        /* \"#utility.yul\":9664:9684   */\n      dup7\n      and\n      swap2\n        /* \"#utility.yul\":9782:10018   */\n    tag_443:\n        /* \"#utility.yul\":9796:9803   */\n      dup3\n        /* \"#utility.yul\":9793:9794   */\n      dup2\n        /* \"#utility.yul\":9790:9804   */\n      lt\n        /* \"#utility.yul\":9782:10018   */\n      iszero\n      tag_445\n      jumpi\n        /* \"#utility.yul\":9885:9904   */\n      dup9\n      dup7\n      add\n        /* \"#utility.yul\":9879:9905   */\n      mload\n        /* \"#utility.yul\":9864:9906   */\n      dup3\n      sstore\n        /* \"#utility.yul\":9977:10004   */\n      swap5\n      dup5\n      add\n      swap5\n        /* \"#utility.yul\":9945:9946   */\n      0x01\n        /* \"#utility.yul\":9933:9947   */\n      swap1\n      swap2\n      add\n      swap1\n        /* \"#utility.yul\":9812:9831   */\n      dup5\n      add\n        /* \"#utility.yul\":9782:10018   */\n      jump(tag_443)\n    tag_445:\n        /* \"#utility.yul\":9786:9789   */\n      pop\n        /* \"#utility.yul\":10046:10052   */\n      dup6\n        /* \"#utility.yul\":10037:10044   */\n      dup3\n        /* \"#utility.yul\":10034:10053   */\n      lt\n        /* \"#utility.yul\":10031:10232   */\n      iszero\n      tag_446\n      jumpi\n        /* \"#utility.yul\":10107:10126   */\n      dup8\n      dup6\n      add\n        /* \"#utility.yul\":10101:10127   */\n      mload\n      not(0x00)\n        /* \"#utility.yul\":10190:10191   */\n      0x03\n        /* \"#utility.yul\":10186:10200   */\n      dup9\n      swap1\n      shl\n        /* \"#utility.yul\":10202:10205   */\n      0xf8\n        /* \"#utility.yul\":10182:10206   */\n      and\n        /* \"#utility.yul\":10178:10215   */\n      shr\n        /* \"#utility.yul\":10174:10216   */\n      not\n        /* \"#utility.yul\":10159:10217   */\n      and\n        /* \"#utility.yul\":10144:10218   */\n      dup2\n      sstore\n        /* \"#utility.yul\":10031:10232   */\n    tag_446:\n      pop\n      pop\n      pop\n      pop\n      pop\n        /* \"#utility.yul\":10278:10279   */\n      0x01\n        /* \"#utility.yul\":10262:10276   */\n      swap1\n      dup2\n      shl\n        /* \"#utility.yul\":10258:10280   */\n      add\n        /* \"#utility.yul\":10245:10281   */\n      swap1\n      sstore\n      pop\n        /* \"#utility.yul\":9196:10548   */\n      jump\t// out\n        /* \"#utility.yul\":10900:11084   */\n    tag_253:\n        /* \"#utility.yul\":10970:10976   */\n      0x00\n        /* \"#utility.yul\":11023:11025   */\n      0x20\n        /* \"#utility.yul\":11011:11020   */\n      dup3\n        /* \"#utility.yul\":11002:11009   */\n      dup5\n        /* \"#utility.yul\":10998:11021   */\n      sub\n        /* \"#utility.yul\":10994:11026   */\n      slt\n        /* \"#utility.yul\":10991:11043   */\n      iszero\n      tag_449\n      jumpi\n        /* \"#utility.yul\":11039:11040   */\n      0x00\n        /* \"#utility.yul\":11036:11037   */\n      dup1\n        /* \"#utility.yul\":11029:11041   */\n      revert\n        /* \"#utility.yul\":10991:11043   */\n    tag_449:\n      pop\n        /* \"#utility.yul\":11062:11078   */\n      mload\n      swap2\n        /* \"#utility.yul\":10900:11084   */\n      swap1\n      pop\n      jump\t// out\n        /* \"#utility.yul\":11442:11569   */\n    tag_371:\n        /* \"#utility.yul\":11503:11513   */\n      0x4e487b71\n        /* \"#utility.yul\":11498:11501   */\n      0xe0\n        /* \"#utility.yul\":11494:11514   */\n      shl\n        /* \"#utility.yul\":11491:11492   */\n      0x00\n        /* \"#utility.yul\":11484:11515   */\n      mstore\n        /* \"#utility.yul\":11534:11538   */\n      0x11\n        /* \"#utility.yul\":11531:11532   */\n      0x04\n        /* \"#utility.yul\":11524:11539   */\n      mstore\n        /* \"#utility.yul\":11558:11562   */\n      0x24\n        /* \"#utility.yul\":11555:11556   */\n      0x00\n        /* \"#utility.yul\":11548:11563   */\n      revert\n        /* \"#utility.yul\":11574:11702   */\n    tag_286:\n        /* \"#utility.yul\":11641:11650   */\n      dup2\n      dup2\n      sub\n        /* \"#utility.yul\":11662:11673   */\n      dup2\n      dup2\n      gt\n        /* \"#utility.yul\":11659:11696   */\n      iszero\n      tag_252\n      jumpi\n        /* \"#utility.yul\":11676:11694   */\n      tag_252\n      tag_371\n      jump\t// in\n        /* \"#utility.yul\":11707:11875   */\n    tag_288:\n        /* \"#utility.yul\":11780:11789   */\n      dup1\n      dup3\n      mul\n        /* \"#utility.yul\":11811:11820   */\n      dup2\n      iszero\n        /* \"#utility.yul\":11828:11843   */\n      dup3\n      dup3\n      div\n        /* \"#utility.yul\":11822:11844   */\n      dup5\n      eq\n        /* \"#utility.yul\":11808:11845   */\n      or\n        /* \"#utility.yul\":11798:11869   */\n      tag_252\n      jumpi\n        /* \"#utility.yul\":11849:11867   */\n      tag_252\n      tag_371\n      jump\t// in\n        /* \"#utility.yul\":11880:12097   */\n    tag_290:\n        /* \"#utility.yul\":11920:11921   */\n      0x00\n        /* \"#utility.yul\":11946:11947   */\n      dup3\n        /* \"#utility.yul\":11936:12068   */\n      tag_459\n      jumpi\n        /* \"#utility.yul\":11990:12000   */\n      0x4e487b71\n        /* \"#utility.yul\":11985:11988   */\n      0xe0\n        /* \"#utility.yul\":11981:12001   */\n      shl\n        /* \"#utility.yul\":11978:11979   */\n      0x00\n        /* \"#utility.yul\":11971:12002   */\n      mstore\n        /* \"#utility.yul\":12025:12029   */\n      0x12\n        /* \"#utility.yul\":12022:12023   */\n      0x04\n        /* \"#utility.yul\":12015:12030   */\n      mstore\n        /* \"#utility.yul\":12053:12057   */\n      0x24\n        /* \"#utility.yul\":12050:12051   */\n      0x00\n        /* \"#utility.yul\":12043:12058   */\n      revert\n        /* \"#utility.yul\":11936:12068   */\n    tag_459:\n      pop\n        /* \"#utility.yul\":12082:12091   */\n      div\n      swap1\n        /* \"#utility.yul\":11880:12097   */\n      jump\t// out\n\n    auxdata: 0xa264697066735822122098ca90fa1f1c6648c0d791d2c240e48388d7777df3488052f5e86b1cfe24d8d264736f6c63430008130033\n}\n",
				"bytecode": {
					"linkReferences": {},
					"object": "6080604052600560015534801561001557600080fd5b506040516200219e3803806200219e8339810160408190526100369161005b565b600080546001600160a01b0319166001600160a01b039290921691909117905561008b565b60006020828403121561006d57600080fd5b81516001600160a01b038116811461008457600080fd5b9392505050565b612103806200009b6000396000f3fe6080604052600436106100c25760003560e01c8063b3de019c1161007f578063d30e1c9c11610059578063d30e1c9c14610222578063d83ed88114610250578063ddca3f4314610270578063efef39a11461028657600080fd5b8063b3de019c146101aa578063c3634ddc146101ca578063c45a0155146101ea57600080fd5b806302ee3a52146100c757806324df201e146100f25780634cc82215146101145780636a1db1bf146101345780637acc0b20146101545780638165fed51461018a575b600080fd5b3480156100d357600080fd5b506100dc610299565b6040516100e99190611b8f565b60405180910390f35b3480156100fe57600080fd5b5061011261010d366004611ca5565b610536565b005b34801561012057600080fd5b5061011261012f366004611ca5565b610645565b34801561014057600080fd5b5061011261014f366004611ca5565b610788565b34801561016057600080fd5b5061017461016f366004611ca5565b6107d9565b6040516100e99a99989796959493929190611cbe565b34801561019657600080fd5b506101126101a5366004611df1565b6109ed565b3480156101b657600080fd5b506101126101c5366004611e81565b610b95565b3480156101d657600080fd5b506101126101e5366004611ca5565b610c78565b3480156101f657600080fd5b5060005461020a906001600160a01b031681565b6040516001600160a01b0390911681526020016100e9565b34801561022e57600080fd5b5061024261023d366004611ca5565b6110de565b6040519081526020016100e9565b34801561025c57600080fd5b5061011261026b366004611ca5565b611154565b34801561027c57600080fd5b5061024260015481565b610112610294366004611ca5565b611642565b60606002805480602002602001604051908101604052809291908181526020016000905b8282101561052d5760008481526020908190206040805161014081018252600986029092018054835260018101546001600160a01b0316938301939093526002830180549293929184019161031190611ea3565b80601f016020809104026020016040519081016040528092919081815260200182805461033d90611ea3565b801561038a5780601f1061035f5761010080835404028352916020019161038a565b820191906000526020600020905b81548152906001019060200180831161036d57829003601f168201915b505050505081526020016003820180546103a390611ea3565b80601f01602080910402602001604051908101604052809291908181526020018280546103cf90611ea3565b801561041c5780601f106103f15761010080835404028352916020019161041c565b820191906000526020600020905b8154815290600101906020018083116103ff57829003601f168201915b5050505050815260200160048201805461043590611ea3565b80601f016020809104026020016040519081016040528092919081815260200182805461046190611ea3565b80156104ae5780601f10610483576101008083540402835291602001916104ae565b820191906000526020600020905b81548152906001019060200180831161049157829003601f168201915b5050509183525050600582015460208201526006820154604082015260078201546001600160a01b0381166060830152608090910190600160a01b900460ff1660048111156104ff576104ff611b57565b600481111561051057610510611b57565b8152602001600882015481525050815260200190600101906102bd565b50505050905090565b806002818154811061054a5761054a611edd565b60009182526020909120600990910201600101546001600160a01b0316331461058e5760405162461bcd60e51b815260040161058590611ef3565b60405180910390fd5b81600280600283815481106105a5576105a5611edd565b906000526020600020906009020160070160149054906101000a900460ff1660048111156105d5576105d5611b57565b146105f25760405162461bcd60e51b815260040161058590611f1d565b60036002858154811061060757610607611edd565b60009182526020909120600760099092020101805460ff60a01b1916600160a01b83600481111561063a5761063a611b57565b021790555050505050565b806002818154811061065957610659611edd565b60009182526020909120600990910201600101546001600160a01b031633146106945760405162461bcd60e51b815260040161058590611ef3565b81600180600283815481106106ab576106ab611edd565b906000526020600020906009020160070160149054906101000a900460ff1660048111156106db576106db611b57565b146106f85760405162461bcd60e51b815260040161058590611f1d565b6002848154811061070b5761070b611edd565b6000918252602082206009909102018181556001810180546001600160a01b03191690559061073d6002830182611abb565b61074b600383016000611abb565b610759600483016000611abb565b50600060058201819055600682018190556007820180546001600160a81b031916905560089091015550505050565b6000546001600160a01b031633146107d45760405162461bcd60e51b815260206004820152600f60248201526e1bdb9b1e4818591b5a5b8818d85b1b608a1b6044820152606401610585565b600155565b600281815481106107e957600080fd5b60009182526020909120600990910201805460018201546002830180549294506001600160a01b03909116929161081f90611ea3565b80601f016020809104026020016040519081016040528092919081815260200182805461084b90611ea3565b80156108985780601f1061086d57610100808354040283529160200191610898565b820191906000526020600020905b81548152906001019060200180831161087b57829003601f168201915b5050505050908060030180546108ad90611ea3565b80601f01602080910402602001604051908101604052809291908181526020018280546108d990611ea3565b80156109265780601f106108fb57610100808354040283529160200191610926565b820191906000526020600020905b81548152906001019060200180831161090957829003601f168201915b50505050509080600401805461093b90611ea3565b80601f016020809104026020016040519081016040528092919081815260200182805461096790611ea3565b80156109b45780601f10610989576101008083540402835291602001916109b4565b820191906000526020600020905b81548152906001019060200180831161099757829003601f168201915b50505050600583015460068401546007850154600890950154939491939092506001600160a01b03821691600160a01b900460ff16908a565b6002805460408051610140810182528281523360208201908152918101888152606082018890526080820187905260a08201869052600060c0830181905260e083018190526001610100840181905242610120850152850186559490945280517f405787fa12a823e0f2b7631cc41b3ba8828b3321ca811111fa75cd3aa3bb5ace6009850290810191825592517f405787fa12a823e0f2b7631cc41b3ba8828b3321ca811111fa75cd3aa3bb5acf840180546001600160a01b0319166001600160a01b0390921691909117905593519293909290917f405787fa12a823e0f2b7631cc41b3ba8828b3321ca811111fa75cd3aa3bb5ad00190610aef9082611f92565b5060608201516003820190610b049082611f92565b5060808201516004820190610b199082611f92565b5060a0820151600582015560c0820151600682015560e08201516007820180546001600160a01b039092166001600160a01b0319831681178255610100850151926001600160a81b03191617600160a01b836004811115610b7c57610b7c611b57565b0217905550610120820151816008015550505050505050565b8160028181548110610ba957610ba9611edd565b60009182526020909120600990910201600101546001600160a01b03163314610be45760405162461bcd60e51b815260040161058590611ef3565b8260018060028381548110610bfb57610bfb611edd565b906000526020600020906009020160070160149054906101000a900460ff166004811115610c2b57610c2b611b57565b14610c485760405162461bcd60e51b815260040161058590611f1d565b8360028681548110610c5c57610c5c611edd565b9060005260206000209060090201600501819055505050505050565b600060028281548110610c8d57610c8d611edd565b906000526020600020906009020160405180610140016040529081600082015481526020016001820160009054906101000a90046001600160a01b03166001600160a01b03166001600160a01b03168152602001600282018054610cf090611ea3565b80601f0160208091040260200160405190810160405280929190818152602001828054610d1c90611ea3565b8015610d695780601f10610d3e57610100808354040283529160200191610d69565b820191906000526020600020905b815481529060010190602001808311610d4c57829003601f168201915b50505050508152602001600382018054610d8290611ea3565b80601f0160208091040260200160405190810160405280929190818152602001828054610dae90611ea3565b8015610dfb5780601f10610dd057610100808354040283529160200191610dfb565b820191906000526020600020905b815481529060010190602001808311610dde57829003601f168201915b50505050508152602001600482018054610e1490611ea3565b80601f0160208091040260200160405190810160405280929190818152602001828054610e4090611ea3565b8015610e8d5780601f10610e6257610100808354040283529160200191610e8d565b820191906000526020600020905b815481529060010190602001808311610e7057829003601f168201915b5050509183525050600582015460208201526006820154604082015260078201546001600160a01b0381166060830152608090910190600160a01b900460ff166004811115610ede57610ede611b57565b6004811115610eef57610eef611b57565b815260200160088201548152505090508060e001516001600160a01b0316336001600160a01b0316148015610f3a575060028161010001516004811115610f3857610f38611b57565b145b610f7b5760405162461bcd60e51b815260206004820152601260248201527110d85b98d95b081b9bdd08185b1b1bddd95960721b6044820152606401610585565b8060e001516001600160a01b03166108fc8260c001519081150290604051600060405180830381858888f19350505050158015610fbc573d6000803e3d6000fd5b50600060c08201819052600161010083015260e08201526002805482919084908110610fea57610fea611edd565b6000918252602091829020835160099290920201908155908201516001820180546001600160a01b0319166001600160a01b039092169190911790556040820151600282019061103a9082611f92565b506060820151600382019061104f9082611f92565b50608082015160048201906110649082611f92565b5060a0820151600582015560c0820151600682015560e08201516007820180546001600160a01b039092166001600160a01b0319831681178255610100850151926001600160a81b03191617600160a01b8360048111156110c7576110c7611b57565b021790555061012082015181600801559050505050565b6000805460405163077c1b9760e31b8152600481018490526001600160a01b0390911690633be0dcb8906024016020604051808303816000875af115801561112a573d6000803e3d6000fd5b505050506040513d601f19601f8201168201806040525081019061114e9190612052565b92915050565b60006002828154811061116957611169611edd565b906000526020600020906009020160405180610140016040529081600082015481526020016001820160009054906101000a90046001600160a01b03166001600160a01b03166001600160a01b031681526020016002820180546111cc90611ea3565b80601f01602080910402602001604051908101604052809291908181526020018280546111f890611ea3565b80156112455780601f1061121a57610100808354040283529160200191611245565b820191906000526020600020905b81548152906001019060200180831161122857829003601f168201915b5050505050815260200160038201805461125e90611ea3565b80601f016020809104026020016040519081016040528092919081815260200182805461128a90611ea3565b80156112d75780601f106112ac576101008083540402835291602001916112d7565b820191906000526020600020905b8154815290600101906020018083116112ba57829003601f168201915b505050505081526020016004820180546112f090611ea3565b80601f016020809104026020016040519081016040528092919081815260200182805461131c90611ea3565b80156113695780601f1061133e57610100808354040283529160200191611369565b820191906000526020600020905b81548152906001019060200180831161134c57829003601f168201915b5050509183525050600582015460208201526006820154604082015260078201546001600160a01b0381166060830152608090910190600160a01b900460ff1660048111156113ba576113ba611b57565b60048111156113cb576113cb611b57565b815260200160088201548152505090508060e001516001600160a01b0316336001600160a01b031614801561141657506003816101000151600481111561141457611414611b57565b145b6114625760405162461bcd60e51b815260206004820152601860248201527f436f6e6669726d6174696f6e206e6f7420616c6c6f77656400000000000000006044820152606401610585565b60006103e86001546103e86114779190612081565b8360c001516114869190612094565b61149091906120ab565b905060006103e86001548460c001516114a99190612094565b6114b391906120ab565b6004610100850152600280549192508491869081106114d4576114d4611edd565b6000918252602091829020835160099290920201908155908201516001820180546001600160a01b0319166001600160a01b03909216919091179055604082015160028201906115249082611f92565b50606082015160038201906115399082611f92565b506080820151600482019061154e9082611f92565b5060a0820151600582015560c0820151600682015560e08201516007820180546001600160a01b039092166001600160a01b0319831681178255610100850151926001600160a81b03191617600160a01b8360048111156115b1576115b1611b57565b02179055506101209190910151600890910155600080546040516001600160a01b039091169183156108fc02918491818181858888f193505050501580156115fd573d6000803e3d6000fd5b5082602001516001600160a01b03166108fc839081150290604051600060405180830381858888f1935050505015801561163b573d6000803e3d6000fd5b5050505050565b60006002828154811061165757611657611edd565b906000526020600020906009020160405180610140016040529081600082015481526020016001820160009054906101000a90046001600160a01b03166001600160a01b03166001600160a01b031681526020016002820180546116ba90611ea3565b80601f01602080910402602001604051908101604052809291908181526020018280546116e690611ea3565b80156117335780601f1061170857610100808354040283529160200191611733565b820191906000526020600020905b81548152906001019060200180831161171657829003601f168201915b5050505050815260200160038201805461174c90611ea3565b80601f016020809104026020016040519081016040528092919081815260200182805461177890611ea3565b80156117c55780601f1061179a576101008083540402835291602001916117c5565b820191906000526020600020905b8154815290600101906020018083116117a857829003601f168201915b505050505081526020016004820180546117de90611ea3565b80601f016020809104026020016040519081016040528092919081815260200182805461180a90611ea3565b80156118575780601f1061182c57610100808354040283529160200191611857565b820191906000526020600020905b81548152906001019060200180831161183a57829003601f168201915b5050509183525050600582015460208201526006820154604082015260078201546001600160a01b0381166060830152608090910190600160a01b900460ff1660048111156118a8576118a8611b57565b60048111156118b9576118b9611b57565b8152602001600882015481525050905080602001516001600160a01b0316336001600160a01b03161415801561190557506001816101000151600481111561190357611903611b57565b145b6119445760405162461bcd60e51b815260206004820152601060248201526f496e76616c696420707572636861736560801b6044820152606401610585565b60006119538260a001516110de565b90508034146119995760405162461bcd60e51b81526020600482015260126024820152711a5b9cdd59999a5cd85b9d08185b5bdd5b9d60721b6044820152606401610585565b3360e083015260c0820181905260026101008301818152505081600284815481106119c6576119c6611edd565b6000918252602091829020835160099290920201908155908201516001820180546001600160a01b0319166001600160a01b0390921691909117905560408201516002820190611a169082611f92565b5060608201516003820190611a2b9082611f92565b5060808201516004820190611a409082611f92565b5060a0820151600582015560c0820151600682015560e08201516007820180546001600160a01b039092166001600160a01b0319831681178255610100850151926001600160a81b03191617600160a01b836004811115611aa357611aa3611b57565b02179055506101208201518160080155905050505050565b508054611ac790611ea3565b6000825580601f10611ad7575050565b601f016020900490600052602060002090810190611af59190611af8565b50565b5b80821115611b0d5760008155600101611af9565b5090565b6000815180845260005b81811015611b3757602081850181015186830182015201611b1b565b506000602082860101526020601f19601f83011685010191505092915050565b634e487b7160e01b600052602160045260246000fd5b60058110611b8b57634e487b7160e01b600052602160045260246000fd5b9052565b60006020808301818452808551808352604092508286019150828160051b87010184880160005b83811015611c9757603f19898403018552815180518452878101516001600160a01b0316888501528681015161014088860181905290611bf882870182611b11565b91505060608083015186830382880152611c128382611b11565b9250505060808083015186830382880152611c2d8382611b11565b9250505060a080830151818701525060c080830151818701525060e080830151611c61828801826001600160a01b03169052565b505061010080830151611c7682880182611b6d565b50506101209182015194909101939093529386019390860190600101611bb6565b509098975050505050505050565b600060208284031215611cb757600080fd5b5035919050565b8a81526001600160a01b038a8116602083015261014060408301819052600091611cea8483018d611b11565b91508382036060850152611cfe828c611b11565b91508382036080850152611d12828b611b11565b92508860a08501528760c085015280871660e08501525050611d38610100830185611b6d565b826101208301529b9a5050505050505050505050565b634e487b7160e01b600052604160045260246000fd5b600082601f830112611d7557600080fd5b813567ffffffffffffffff80821115611d9057611d90611d4e565b604051601f8301601f19908116603f01168101908282118183101715611db857611db8611d4e565b81604052838152866020858801011115611dd157600080fd5b836020870160208301376000602085830101528094505050505092915050565b60008060008060808587031215611e0757600080fd5b843567ffffffffffffffff80821115611e1f57600080fd5b611e2b88838901611d64565b95506020870135915080821115611e4157600080fd5b611e4d88838901611d64565b94506040870135915080821115611e6357600080fd5b50611e7087828801611d64565b949793965093946060013593505050565b60008060408385031215611e9457600080fd5b50508035926020909101359150565b600181811c90821680611eb757607f821691505b602082108103611ed757634e487b7160e01b600052602260045260246000fd5b50919050565b634e487b7160e01b600052603260045260246000fd5b60208082526010908201526f1bdb9b1e481cd95b1b195c8818d85b1b60821b604082015260600190565b6020808252600c908201526b57726f6e672073746174757360a01b604082015260600190565b601f821115611f8d57600081815260208120601f850160051c81016020861015611f6a5750805b601f850160051c820191505b81811015611f8957828155600101611f76565b5050505b505050565b815167ffffffffffffffff811115611fac57611fac611d4e565b611fc081611fba8454611ea3565b84611f43565b602080601f831160018114611ff55760008415611fdd5750858301515b600019600386901b1c1916600185901b178555611f89565b600085815260208120601f198616915b8281101561202457888601518255948401946001909101908401612005565b50858210156120425787850151600019600388901b60f8161c191681555b5050505050600190811b01905550565b60006020828403121561206457600080fd5b5051919050565b634e487b7160e01b600052601160045260246000fd5b8181038181111561114e5761114e61206b565b808202811582820484141761114e5761114e61206b565b6000826120c857634e487b7160e01b600052601260045260246000fd5b50049056fea264697066735822122098ca90fa1f1c6648c0d791d2c240e48388d7777df3488052f5e86b1cfe24d8d264736f6c63430008130033",
					"opcodes": "PUSH1 0x80 PUSH1 0x40 MSTORE PUSH1 0x5 PUSH1 0x1 SSTORE CALLVALUE DUP1 ISZERO PUSH2 0x15 JUMPI PUSH1 0x0 DUP1 REVERT JUMPDEST POP PUSH1 0x40 MLOAD PUSH3 0x219E CODESIZE SUB DUP1 PUSH3 0x219E DUP4 CODECOPY DUP2 ADD PUSH1 0x40 DUP2 SWAP1 MSTORE PUSH2 0x36 SWAP2 PUSH2 0x5B JUMP JUMPDEST PUSH1 0x0 DUP1 SLOAD PUSH1 0x1 PUSH1 0x1 PUSH1 0xA0 SHL SUB NOT AND PUSH1 0x1 PUSH1 0x1 PUSH1 0xA0 SHL SUB SWAP3 SWAP1 SWAP3 AND SWAP2 SWAP1 SWAP2 OR SWAP1 SSTORE PUSH2 0x8B JUMP JUMPDEST PUSH1 0x0 PUSH1 0x20 DUP3 DUP5 SUB SLT ISZERO PUSH2 0x6D JUMPI PUSH1 0x0 DUP1 REVERT JUMPDEST DUP2 MLOAD PUSH1 0x1 PUSH1 0x1 PUSH1 0xA0 SHL SUB DUP2 AND DUP2 EQ PUSH2 0x84 JUMPI PUSH1 0x0 DUP1 REVERT JUMPDEST SWAP4 SWAP3 POP POP POP JUMP JUMPDEST PUSH2 0x2103 DUP1 PUSH3 0x9B PUSH1 0x0 CODECOPY PUSH1 0x0 RETURN INVALID PUSH1 0x80 PUSH1 0x40 MSTORE PUSH1 0x4 CALLDATASIZE LT PUSH2 0xC2 JUMPI PUSH1 0x0 CALLDATALOAD PUSH1 0xE0 SHR DUP1 PUSH4 0xB3DE019C GT PUSH2 0x7F JUMPI DUP1 PUSH4 0xD30E1C9C GT PUSH2 0x59 JUMPI DUP1 PUSH4 0xD30E1C9C EQ PUSH2 0x222 JUMPI DUP1 PUSH4 0xD83ED881 EQ PUSH2 0x250 JUMPI DUP1 PUSH4 0xDDCA3F43 EQ PUSH2 0x270 JUMPI DUP1 PUSH4 0xEFEF39A1 EQ PUSH2 0x286 JUMPI PUSH1 0x0 DUP1 REVERT JUMPDEST DUP1 PUSH4 0xB3DE019C EQ PUSH2 0x1AA JUMPI DUP1 PUSH4 0xC3634DDC EQ PUSH2 0x1CA JUMPI DUP1 PUSH4 0xC45A0155 EQ PUSH2 0x1EA JUMPI PUSH1 0x0 DUP1 REVERT JUMPDEST DUP1 PUSH4 0x2EE3A52 EQ PUSH2 0xC7 JUMPI DUP1 PUSH4 0x24DF201E EQ PUSH2 0xF2 JUMPI DUP1 PUSH4 0x4CC82215 EQ PUSH2 0x114 JUMPI DUP1 PUSH4 0x6A1DB1BF EQ PUSH2 0x134 JUMPI DUP1 PUSH4 0x7ACC0B20 EQ PUSH2 0x154 JUMPI DUP1 PUSH4 0x8165FED5 EQ PUSH2 0x18A JUMPI JUMPDEST PUSH1 0x0 DUP1 REVERT JUMPDEST CALLVALUE DUP1 ISZERO PUSH2 0xD3 JUMPI PUSH1 0x0 DUP1 REVERT JUMPDEST POP PUSH2 0xDC PUSH2 0x299 JUMP JUMPDEST PUSH1 0x40 MLOAD PUSH2 0xE9 SWAP2 SWAP1 PUSH2 0x1B8F JUMP JUMPDEST PUSH1 0x40 MLOAD DUP1 SWAP2 SUB SWAP1 RETURN JUMPDEST CALLVALUE DUP1 ISZERO PUSH2 0xFE JUMPI PUSH1 0x0 DUP1 REVERT JUMPDEST POP PUSH2 0x112 PUSH2 0x10D CALLDATASIZE PUSH1 0x4 PUSH2 0x1CA5 JUMP JUMPDEST PUSH2 0x536 JUMP JUMPDEST STOP JUMPDEST CALLVALUE DUP1 ISZERO PUSH2 0x120 JUMPI PUSH1 0x0 DUP1 REVERT JUMPDEST POP PUSH2 0x112 PUSH2 0x12F CALLDATASIZE PUSH1 0x4 PUSH2 0x1CA5 JUMP JUMPDEST PUSH2 0x645 JUMP JUMPDEST CALLVALUE DUP1 ISZERO PUSH2 0x140 JUMPI PUSH1 0x0 DUP1 REVERT JUMPDEST POP PUSH2 0x112 PUSH2 0x14F CALLDATASIZE PUSH1 0x4 PUSH2 0x1CA5 JUMP JUMPDEST PUSH2 0x788 JUMP JUMPDEST CALLVALUE DUP1 ISZERO PUSH2 0x160 JUMPI PUSH1 0x0 DUP1 REVERT JUMPDEST POP PUSH2 0x174 PUSH2 0x16F CALLDATASIZE PUSH1 0x4 PUSH2 0x1CA5 JUMP JUMPDEST PUSH2 0x7D9 JUMP JUMPDEST PUSH1 0x40 MLOAD PUSH2 0xE9 SWAP11 SWAP10 SWAP9 SWAP8 SWAP7 SWAP6 SWAP5 SWAP4 SWAP3 SWAP2 SWAP1 PUSH2 0x1CBE JUMP JUMPDEST CALLVALUE DUP1 ISZERO PUSH2 0x196 JUMPI PUSH1 0x0 DUP1 REVERT JUMPDEST POP PUSH2 0x112 PUSH2 0x1A5 CALLDATASIZE PUSH1 0x4 PUSH2 0x1DF1 JUMP JUMPDEST PUSH2 0x9ED JUMP JUMPDEST CALLVALUE DUP1 ISZERO PUSH2 0x1B6 JUMPI PUSH1 0x0 DUP1 REVERT JUMPDEST POP PUSH2 0x112 PUSH2 0x1C5 CALLDATASIZE PUSH1 0x4 PUSH2 0x1E81 JUMP JUMPDEST PUSH2 0xB95 JUMP JUMPDEST CALLVALUE DUP1 ISZERO PUSH2 0x1D6 JUMPI PUSH1 0x0 DUP1 REVERT JUMPDEST POP PUSH2 0x112 PUSH2 0x1E5 CALLDATASIZE PUSH1 0x4 PUSH2 0x1CA5 JUMP JUMPDEST PUSH2 0xC78 JUMP JUMPDEST CALLVALUE DUP1 ISZERO PUSH2 0x1F6 JUMPI PUSH1 0x0 DUP1 REVERT JUMPDEST POP PUSH1 0x0 SLOAD PUSH2 0x20A SWAP1 PUSH1 0x1 PUSH1 0x1 PUSH1 0xA0 SHL SUB AND DUP2 JUMP JUMPDEST PUSH1 0x40 MLOAD PUSH1 0x1 PUSH1 0x1 PUSH1 0xA0 SHL SUB SWAP1 SWAP2 AND DUP2 MSTORE PUSH1 0x20 ADD PUSH2 0xE9 JUMP JUMPDEST CALLVALUE DUP1 ISZERO PUSH2 0x22E JUMPI PUSH1 0x0 DUP1 REVERT JUMPDEST POP PUSH2 0x242 PUSH2 0x23D CALLDATASIZE PUSH1 0x4 PUSH2 0x1CA5 JUMP JUMPDEST PUSH2 0x10DE JUMP JUMPDEST PUSH1 0x40 MLOAD SWAP1 DUP2 MSTORE PUSH1 0x20 ADD PUSH2 0xE9 JUMP JUMPDEST CALLVALUE DUP1 ISZERO PUSH2 0x25C JUMPI PUSH1 0x0 DUP1 REVERT JUMPDEST POP PUSH2 0x112 PUSH2 0x26B CALLDATASIZE PUSH1 0x4 PUSH2 0x1CA5 JUMP JUMPDEST PUSH2 0x1154 JUMP JUMPDEST CALLVALUE DUP1 ISZERO PUSH2 0x27C JUMPI PUSH1 0x0 DUP1 REVERT JUMPDEST POP PUSH2 0x242 PUSH1 0x1 SLOAD DUP2 JUMP JUMPDEST PUSH2 0x112 PUSH2 0x294 CALLDATASIZE PUSH1 0x4 PUSH2 0x1CA5 JUMP JUMPDEST PUSH2 0x1642 JUMP JUMPDEST PUSH1 0x60 PUSH1 0x2 DUP1 SLOAD DUP1 PUSH1 0x20 MUL PUSH1 0x20 ADD PUSH1 0x40 MLOAD SWAP1 DUP2 ADD PUSH1 0x40 MSTORE DUP1 SWAP3 SWAP2 SWAP1 DUP2 DUP2 MSTORE PUSH1 0x20 ADD PUSH1 0x0 SWAP1 JUMPDEST DUP3 DUP3 LT ISZERO PUSH2 0x52D JUMPI PUSH1 0x0 DUP5 DUP2 MSTORE PUSH1 0x20 SWAP1 DUP2 SWAP1 KECCAK256 PUSH1 0x40 DUP1 MLOAD PUSH2 0x140 DUP2 ADD DUP3 MSTORE PUSH1 0x9 DUP7 MUL SWAP1 SWAP3 ADD DUP1 SLOAD DUP4 MSTORE PUSH1 0x1 DUP2 ADD SLOAD PUSH1 0x1 PUSH1 0x1 PUSH1 0xA0 SHL SUB AND SWAP4 DUP4 ADD SWAP4 SWAP1 SWAP4 MSTORE PUSH1 0x2 DUP4 ADD DUP1 SLOAD SWAP3 SWAP4 SWAP3 SWAP2 DUP5 ADD SWAP2 PUSH2 0x311 SWAP1 PUSH2 0x1EA3 JUMP JUMPDEST DUP1 PUSH1 0x1F ADD PUSH1 0x20 DUP1 SWAP2 DIV MUL PUSH1 0x20 ADD PUSH1 0x40 MLOAD SWAP1 DUP2 ADD PUSH1 0x40 MSTORE DUP1 SWAP3 SWAP2 SWAP1 DUP2 DUP2 MSTORE PUSH1 0x20 ADD DUP3 DUP1 SLOAD PUSH2 0x33D SWAP1 PUSH2 0x1EA3 JUMP JUMPDEST DUP1 ISZERO PUSH2 0x38A JUMPI DUP1 PUSH1 0x1F LT PUSH2 0x35F JUMPI PUSH2 0x100 DUP1 DUP4 SLOAD DIV MUL DUP4 MSTORE SWAP2 PUSH1 0x20 ADD SWAP2 PUSH2 0x38A JUMP JUMPDEST DUP3 ADD SWAP2 SWAP1 PUSH1 0x0 MSTORE PUSH1 0x20 PUSH1 0x0 KECCAK256 SWAP1 JUMPDEST DUP2 SLOAD DUP2 MSTORE SWAP1 PUSH1 0x1 ADD SWAP1 PUSH1 0x20 ADD DUP1 DUP4 GT PUSH2 0x36D JUMPI DUP3 SWAP1 SUB PUSH1 0x1F AND DUP3 ADD SWAP2 JUMPDEST POP POP POP POP POP DUP2 MSTORE PUSH1 0x20 ADD PUSH1 0x3 DUP3 ADD DUP1 SLOAD PUSH2 0x3A3 SWAP1 PUSH2 0x1EA3 JUMP JUMPDEST DUP1 PUSH1 0x1F ADD PUSH1 0x20 DUP1 SWAP2 DIV MUL PUSH1 0x20 ADD PUSH1 0x40 MLOAD SWAP1 DUP2 ADD PUSH1 0x40 MSTORE DUP1 SWAP3 SWAP2 SWAP1 DUP2 DUP2 MSTORE PUSH1 0x20 ADD DUP3 DUP1 SLOAD PUSH2 0x3CF SWAP1 PUSH2 0x1EA3 JUMP JUMPDEST DUP1 ISZERO PUSH2 0x41C JUMPI DUP1 PUSH1 0x1F LT PUSH2 0x3F1 JUMPI PUSH2 0x100 DUP1 DUP4 SLOAD DIV MUL DUP4 MSTORE SWAP2 PUSH1 0x20 ADD SWAP2 PUSH2 0x41C JUMP JUMPDEST DUP3 ADD SWAP2 SWAP1 PUSH1 0x0 MSTORE PUSH1 0x20 PUSH1 0x0 KECCAK256 SWAP1 JUMPDEST DUP2 SLOAD DUP2 MSTORE SWAP1 PUSH1 0x1 ADD SWAP1 PUSH1 0x20 ADD DUP1 DUP4 GT PUSH2 0x3FF JUMPI DUP3 SWAP1 SUB PUSH1 0x1F AND DUP3 ADD SWAP2 JUMPDEST POP POP POP POP POP DUP2 MSTORE PUSH1 0x20 ADD PUSH1 0x4 DUP3 ADD DUP1 SLOAD PUSH2 0x435 SWAP1 PUSH2 0x1EA3 JUMP JUMPDEST DUP1 PUSH1 0x1F ADD PUSH1 0x20 DUP1 SWAP2 DIV MUL PUSH1 0x20 ADD PUSH1 0x40 MLOAD SWAP1 DUP2 ADD PUSH1 0x40 MSTORE DUP1 SWAP3 SWAP2 SWAP1 DUP2 DUP2 MSTORE PUSH1 0x20 ADD DUP3 DUP1 SLOAD PUSH2 0x461 SWAP1 PUSH2 0x1EA3 JUMP JUMPDEST DUP1 ISZERO PUSH2 0x4AE JUMPI DUP1 PUSH1 0x1F LT PUSH2 0x483 JUMPI PUSH2 0x100 DUP1 DUP4 SLOAD DIV MUL DUP4 MSTORE SWAP2 PUSH1 0x20 ADD SWAP2 PUSH2 0x4AE JUMP JUMPDEST DUP3 ADD SWAP2 SWAP1 PUSH1 0x0 MSTORE PUSH1 0x20 PUSH1 0x0 KECCAK256 SWAP1 JUMPDEST DUP2 SLOAD DUP2 MSTORE SWAP1 PUSH1 0x1 ADD SWAP1 PUSH1 0x20 ADD DUP1 DUP4 GT PUSH2 0x491 JUMPI DUP3 SWAP1 SUB PUSH1 0x1F AND DUP3 ADD SWAP2 JUMPDEST POP POP POP SWAP2 DUP4 MSTORE POP POP PUSH1 0x5 DUP3 ADD SLOAD PUSH1 0x20 DUP3 ADD MSTORE PUSH1 0x6 DUP3 ADD SLOAD PUSH1 0x40 DUP3 ADD MSTORE PUSH1 0x7 DUP3 ADD SLOAD PUSH1 0x1 PUSH1 0x1 PUSH1 0xA0 SHL SUB DUP2 AND PUSH1 0x60 DUP4 ADD MSTORE PUSH1 0x80 SWAP1 SWAP2 ADD SWAP1 PUSH1 0x1 PUSH1 0xA0 SHL SWAP1 DIV PUSH1 0xFF AND PUSH1 0x4 DUP2 GT ISZERO PUSH2 0x4FF JUMPI PUSH2 0x4FF PUSH2 0x1B57 JUMP JUMPDEST PUSH1 0x4 DUP2 GT ISZERO PUSH2 0x510 JUMPI PUSH2 0x510 PUSH2 0x1B57 JUMP JUMPDEST DUP2 MSTORE PUSH1 0x20 ADD PUSH1 0x8 DUP3 ADD SLOAD DUP2 MSTORE POP POP DUP2 MSTORE PUSH1 0x20 ADD SWAP1 PUSH1 0x1 ADD SWAP1 PUSH2 0x2BD JUMP JUMPDEST POP POP POP POP SWAP1 POP SWAP1 JUMP JUMPDEST DUP1 PUSH1 0x2 DUP2 DUP2 SLOAD DUP2 LT PUSH2 0x54A JUMPI PUSH2 0x54A PUSH2 0x1EDD JUMP JUMPDEST PUSH1 0x0 SWAP2 DUP3 MSTORE PUSH1 0x20 SWAP1 SWAP2 KECCAK256 PUSH1 0x9 SWAP1 SWAP2 MUL ADD PUSH1 0x1 ADD SLOAD PUSH1 0x1 PUSH1 0x1 PUSH1 0xA0 SHL SUB AND CALLER EQ PUSH2 0x58E JUMPI PUSH1 0x40 MLOAD PUSH3 0x461BCD PUSH1 0xE5 SHL DUP2 MSTORE PUSH1 0x4 ADD PUSH2 0x585 SWAP1 PUSH2 0x1EF3 JUMP JUMPDEST PUSH1 0x40 MLOAD DUP1 SWAP2 SUB SWAP1 REVERT JUMPDEST DUP2 PUSH1 0x2 DUP1 PUSH1 0x2 DUP4 DUP2 SLOAD DUP2 LT PUSH2 0x5A5 JUMPI PUSH2 0x5A5 PUSH2 0x1EDD JUMP JUMPDEST SWAP1 PUSH1 0x0 MSTORE PUSH1 0x20 PUSH1 0x0 KECCAK256 SWAP1 PUSH1 0x9 MUL ADD PUSH1 0x7 ADD PUSH1 0x14 SWAP1 SLOAD SWAP1 PUSH2 0x100 EXP SWAP1 DIV PUSH1 0xFF AND PUSH1 0x4 DUP2 GT ISZERO PUSH2 0x5D5 JUMPI PUSH2 0x5D5 PUSH2 0x1B57 JUMP JUMPDEST EQ PUSH2 0x5F2 JUMPI PUSH1 0x40 MLOAD PUSH3 0x461BCD PUSH1 0xE5 SHL DUP2 MSTORE PUSH1 0x4 ADD PUSH2 0x585 SWAP1 PUSH2 0x1F1D JUMP JUMPDEST PUSH1 0x3 PUSH1 0x2 DUP6 DUP2 SLOAD DUP2 LT PUSH2 0x607 JUMPI PUSH2 0x607 PUSH2 0x1EDD JUMP JUMPDEST PUSH1 0x0 SWAP2 DUP3 MSTORE PUSH1 0x20 SWAP1 SWAP2 KECCAK256 PUSH1 0x7 PUSH1 0x9 SWAP1 SWAP3 MUL ADD ADD DUP1 SLOAD PUSH1 0xFF PUSH1 0xA0 SHL NOT AND PUSH1 0x1 PUSH1 0xA0 SHL DUP4 PUSH1 0x4 DUP2 GT ISZERO PUSH2 0x63A JUMPI PUSH2 0x63A PUSH2 0x1B57 JUMP JUMPDEST MUL OR SWAP1 SSTORE POP POP POP POP POP JUMP JUMPDEST DUP1 PUSH1 0x2 DUP2 DUP2 SLOAD DUP2 LT PUSH2 0x659 JUMPI PUSH2 0x659 PUSH2 0x1EDD JUMP JUMPDEST PUSH1 0x0 SWAP2 DUP3 MSTORE PUSH1 0x20 SWAP1 SWAP2 KECCAK256 PUSH1 0x9 SWAP1 SWAP2 MUL ADD PUSH1 0x1 ADD SLOAD PUSH1 0x1 PUSH1 0x1 PUSH1 0xA0 SHL SUB AND CALLER EQ PUSH2 0x694 JUMPI PUSH1 0x40 MLOAD PUSH3 0x461BCD PUSH1 0xE5 SHL DUP2 MSTORE PUSH1 0x4 ADD PUSH2 0x585 SWAP1 PUSH2 0x1EF3 JUMP JUMPDEST DUP2 PUSH1 0x1 DUP1 PUSH1 0x2 DUP4 DUP2 SLOAD DUP2 LT PUSH2 0x6AB JUMPI PUSH2 0x6AB PUSH2 0x1EDD JUMP JUMPDEST SWAP1 PUSH1 0x0 MSTORE PUSH1 0x20 PUSH1 0x0 KECCAK256 SWAP1 PUSH1 0x9 MUL ADD PUSH1 0x7 ADD PUSH1 0x14 SWAP1 SLOAD SWAP1 PUSH2 0x100 EXP SWAP1 DIV PUSH1 0xFF AND PUSH1 0x4 DUP2 GT ISZERO PUSH2 0x6DB JUMPI PUSH2 0x6DB PUSH2 0x1B57 JUMP JUMPDEST EQ PUSH2 0x6F8 JUMPI PUSH1 0x40 MLOAD PUSH3 0x461BCD PUSH1 0xE5 SHL DUP2 MSTORE PUSH1 0x4 ADD PUSH2 0x585 SWAP1 PUSH2 0x1F1D JUMP JUMPDEST PUSH1 0x2 DUP5 DUP2 SLOAD DUP2 LT PUSH2 0x70B JUMPI PUSH2 0x70B PUSH2 0x1EDD JUMP JUMPDEST PUSH1 0x0 SWAP2 DUP3 MSTORE PUSH1 0x20 DUP3 KECCAK256 PUSH1 0x9 SWAP1 SWAP2 MUL ADD DUP2 DUP2 SSTORE PUSH1 0x1 DUP2 ADD DUP1 SLOAD PUSH1 0x1 PUSH1 0x1 PUSH1 0xA0 SHL SUB NOT AND SWAP1 SSTORE SWAP1 PUSH2 0x73D PUSH1 0x2 DUP4 ADD DUP3 PUSH2 0x1ABB JUMP JUMPDEST PUSH2 0x74B PUSH1 0x3 DUP4 ADD PUSH1 0x0 PUSH2 0x1ABB JUMP JUMPDEST PUSH2 0x759 PUSH1 0x4 DUP4 ADD PUSH1 0x0 PUSH2 0x1ABB JUMP JUMPDEST POP PUSH1 0x0 PUSH1 0x5 DUP3 ADD DUP2 SWAP1 SSTORE PUSH1 0x6 DUP3 ADD DUP2 SWAP1 SSTORE PUSH1 0x7 DUP3 ADD DUP1 SLOAD PUSH1 0x1 PUSH1 0x1 PUSH1 0xA8 SHL SUB NOT AND SWAP1 SSTORE PUSH1 0x8 SWAP1 SWAP2 ADD SSTORE POP POP POP POP JUMP JUMPDEST PUSH1 0x0 SLOAD PUSH1 0x1 PUSH1 0x1 PUSH1 0xA0 SHL SUB AND CALLER EQ PUSH2 0x7D4 JUMPI PUSH1 0x40 MLOAD PUSH3 0x461BCD PUSH1 0xE5 SHL DUP2 MSTORE PUSH1 0x20 PUSH1 0x4 DUP3 ADD MSTORE PUSH1 0xF PUSH1 0x24 DUP3 ADD MSTORE PUSH15 0x1BDB9B1E4818591B5A5B8818D85B1B PUSH1 0x8A SHL PUSH1 0x44 DUP3 ADD MSTORE PUSH1 0x64 ADD PUSH2 0x585 JUMP JUMPDEST PUSH1 0x1 SSTORE JUMP JUMPDEST PUSH1 0x2 DUP2 DUP2 SLOAD DUP2 LT PUSH2 0x7E9 JUMPI PUSH1 0x0 DUP1 REVERT JUMPDEST PUSH1 0x0 SWAP2 DUP3 MSTORE PUSH1 0x20 SWAP1 SWAP2 KECCAK256 PUSH1 0x9 SWAP1 SWAP2 MUL ADD DUP1 SLOAD PUSH1 0x1 DUP3 ADD SLOAD PUSH1 0x2 DUP4 ADD DUP1 SLOAD SWAP3 SWAP5 POP PUSH1 0x1 PUSH1 0x1 PUSH1 0xA0 SHL SUB SWAP1 SWAP2 AND SWAP3 SWAP2 PUSH2 0x81F SWAP1 PUSH2 0x1EA3 JUMP JUMPDEST DUP1 PUSH1 0x1F ADD PUSH1 0x20 DUP1 SWAP2 DIV MUL PUSH1 0x20 ADD PUSH1 0x40 MLOAD SWAP1 DUP2 ADD PUSH1 0x40 MSTORE DUP1 SWAP3 SWAP2 SWAP1 DUP2 DUP2 MSTORE PUSH1 0x20 ADD DUP3 DUP1 SLOAD PUSH2 0x84B SWAP1 PUSH2 0x1EA3 JUMP JUMPDEST DUP1 ISZERO PUSH2 0x898 JUMPI DUP1 PUSH1 0x1F LT PUSH2 0x86D JUMPI PUSH2 0x100 DUP1 DUP4 SLOAD DIV MUL DUP4 MSTORE SWAP2 PUSH1 0x20 ADD SWAP2 PUSH2 0x898 JUMP JUMPDEST DUP3 ADD SWAP2 SWAP1 PUSH1 0x0 MSTORE PUSH1 0x20 PUSH1 0x0 KECCAK256 SWAP1 JUMPDEST DUP2 SLOAD DUP2 MSTORE SWAP1 PUSH1 0x1 ADD SWAP1 PUSH1 0x20 ADD DUP1 DUP4 GT PUSH2 0x87B JUMPI DUP3 SWAP1 SUB PUSH1 0x1F AND DUP3 ADD SWAP2 JUMPDEST POP POP POP POP POP SWAP1 DUP1 PUSH1 0x3 ADD DUP1 SLOAD PUSH2 0x8AD SWAP1 PUSH2 0x1EA3 JUMP JUMPDEST DUP1 PUSH1 0x1F ADD PUSH1 0x20 DUP1 SWAP2 DIV MUL PUSH1 0x20 ADD PUSH1 0x40 MLOAD SWAP1 DUP2 ADD PUSH1 0x40 MSTORE DUP1 SWAP3 SWAP2 SWAP1 DUP2 DUP2 MSTORE PUSH1 0x20 ADD DUP3 DUP1 SLOAD PUSH2 0x8D9 SWAP1 PUSH2 0x1EA3 JUMP JUMPDEST DUP1 ISZERO PUSH2 0x926 JUMPI DUP1 PUSH1 0x1F LT PUSH2 0x8FB JUMPI PUSH2 0x100 DUP1 DUP4 SLOAD DIV MUL DUP4 MSTORE SWAP2 PUSH1 0x20 ADD SWAP2 PUSH2 0x926 JUMP JUMPDEST DUP3 ADD SWAP2 SWAP1 PUSH1 0x0 MSTORE PUSH1 0x20 PUSH1 0x0 KECCAK256 SWAP1 JUMPDEST DUP2 SLOAD DUP2 MSTORE SWAP1 PUSH1 0x1 ADD SWAP1 PUSH1 0x20 ADD DUP1 DUP4 GT PUSH2 0x909 JUMPI DUP3 SWAP1 SUB PUSH1 0x1F AND DUP3 ADD SWAP2 JUMPDEST POP POP POP POP POP SWAP1 DUP1 PUSH1 0x4 ADD DUP1 SLOAD PUSH2 0x93B SWAP1 PUSH2 0x1EA3 JUMP JUMPDEST DUP1 PUSH1 0x1F ADD PUSH1 0x20 DUP1 SWAP2 DIV MUL PUSH1 0x20 ADD PUSH1 0x40 MLOAD SWAP1 DUP2 ADD PUSH1 0x40 MSTORE DUP1 SWAP3 SWAP2 SWAP1 DUP2 DUP2 MSTORE PUSH1 0x20 ADD DUP3 DUP1 SLOAD PUSH2 0x967 SWAP1 PUSH2 0x1EA3 JUMP JUMPDEST DUP1 ISZERO PUSH2 0x9B4 JUMPI DUP1 PUSH1 0x1F LT PUSH2 0x989 JUMPI PUSH2 0x100 DUP1 DUP4 SLOAD DIV MUL DUP4 MSTORE SWAP2 PUSH1 0x20 ADD SWAP2 PUSH2 0x9B4 JUMP JUMPDEST DUP3 ADD SWAP2 SWAP1 PUSH1 0x0 MSTORE PUSH1 0x20 PUSH1 0x0 KECCAK256 SWAP1 JUMPDEST DUP2 SLOAD DUP2 MSTORE SWAP1 PUSH1 0x1 ADD SWAP1 PUSH1 0x20 ADD DUP1 DUP4 GT PUSH2 0x997 JUMPI DUP3 SWAP1 SUB PUSH1 0x1F AND DUP3 ADD SWAP2 JUMPDEST POP POP POP POP PUSH1 0x5 DUP4 ADD SLOAD PUSH1 0x6 DUP5 ADD SLOAD PUSH1 0x7 DUP6 ADD SLOAD PUSH1 0x8 SWAP1 SWAP6 ADD SLOAD SWAP4 SWAP5 SWAP2 SWAP4 SWAP1 SWAP3 POP PUSH1 0x1 PUSH1 0x1 PUSH1 0xA0 SHL SUB DUP3 AND SWAP2 PUSH1 0x1 PUSH1 0xA0 SHL SWAP1 DIV PUSH1 0xFF AND SWAP1 DUP11 JUMP JUMPDEST PUSH1 0x2 DUP1 SLOAD PUSH1 0x40 DUP1 MLOAD PUSH2 0x140 DUP2 ADD DUP3 MSTORE DUP3 DUP2 MSTORE CALLER PUSH1 0x20 DUP3 ADD SWAP1 DUP2 MSTORE SWAP2 DUP2 ADD DUP9 DUP2 MSTORE PUSH1 0x60 DUP3 ADD DUP9 SWAP1 MSTORE PUSH1 0x80 DUP3 ADD DUP8 SWAP1 MSTORE PUSH1 0xA0 DUP3 ADD DUP7 SWAP1 MSTORE PUSH1 0x0 PUSH1 0xC0 DUP4 ADD DUP2 SWAP1 MSTORE PUSH1 0xE0 DUP4 ADD DUP2 SWAP1 MSTORE PUSH1 0x1 PUSH2 0x100 DUP5 ADD DUP2 SWAP1 MSTORE TIMESTAMP PUSH2 0x120 DUP6 ADD MSTORE DUP6 ADD DUP7 SSTORE SWAP5 SWAP1 SWAP5 MSTORE DUP1 MLOAD PUSH32 0x405787FA12A823E0F2B7631CC41B3BA8828B3321CA811111FA75CD3AA3BB5ACE PUSH1 0x9 DUP6 MUL SWAP1 DUP2 ADD SWAP2 DUP3 SSTORE SWAP3 MLOAD PUSH32 0x405787FA12A823E0F2B7631CC41B3BA8828B3321CA811111FA75CD3AA3BB5ACF DUP5 ADD DUP1 SLOAD PUSH1 0x1 PUSH1 0x1 PUSH1 0xA0 SHL SUB NOT AND PUSH1 0x1 PUSH1 0x1 PUSH1 0xA0 SHL SUB SWAP1 SWAP3 AND SWAP2 SWAP1 SWAP2 OR SWAP1 SSTORE SWAP4 MLOAD SWAP3 SWAP4 SWAP1 SWAP3 SWAP1 SWAP2 PUSH32 0x405787FA12A823E0F2B7631CC41B3BA8828B3321CA811111FA75CD3AA3BB5AD0 ADD SWAP1 PUSH2 0xAEF SWAP1 DUP3 PUSH2 0x1F92 JUMP JUMPDEST POP PUSH1 0x60 DUP3 ADD MLOAD PUSH1 0x3 DUP3 ADD SWAP1 PUSH2 0xB04 SWAP1 DUP3 PUSH2 0x1F92 JUMP JUMPDEST POP PUSH1 0x80 DUP3 ADD MLOAD PUSH1 0x4 DUP3 ADD SWAP1 PUSH2 0xB19 SWAP1 DUP3 PUSH2 0x1F92 JUMP JUMPDEST POP PUSH1 0xA0 DUP3 ADD MLOAD PUSH1 0x5 DUP3 ADD SSTORE PUSH1 0xC0 DUP3 ADD MLOAD PUSH1 0x6 DUP3 ADD SSTORE PUSH1 0xE0 DUP3 ADD MLOAD PUSH1 0x7 DUP3 ADD DUP1 SLOAD PUSH1 0x1 PUSH1 0x1 PUSH1 0xA0 SHL SUB SWAP1 SWAP3 AND PUSH1 0x1 PUSH1 0x1 PUSH1 0xA0 SHL SUB NOT DUP4 AND DUP2 OR DUP3 SSTORE PUSH2 0x100 DUP6 ADD MLOAD SWAP3 PUSH1 0x1 PUSH1 0x1 PUSH1 0xA8 SHL SUB NOT AND OR PUSH1 0x1 PUSH1 0xA0 SHL DUP4 PUSH1 0x4 DUP2 GT ISZERO PUSH2 0xB7C JUMPI PUSH2 0xB7C PUSH2 0x1B57 JUMP JUMPDEST MUL OR SWAP1 SSTORE POP PUSH2 0x120 DUP3 ADD MLOAD DUP2 PUSH1 0x8 ADD SSTORE POP POP POP POP POP POP POP JUMP JUMPDEST DUP2 PUSH1 0x2 DUP2 DUP2 SLOAD DUP2 LT PUSH2 0xBA9 JUMPI PUSH2 0xBA9 PUSH2 0x1EDD JUMP JUMPDEST PUSH1 0x0 SWAP2 DUP3 MSTORE PUSH1 0x20 SWAP1 SWAP2 KECCAK256 PUSH1 0x9 SWAP1 SWAP2 MUL ADD PUSH1 0x1 ADD SLOAD PUSH1 0x1 PUSH1 0x1 PUSH1 0xA0 SHL SUB AND CALLER EQ PUSH2 0xBE4 JUMPI PUSH1 0x40 MLOAD PUSH3 0x461BCD PUSH1 0xE5 SHL DUP2 MSTORE PUSH1 0x4 ADD PUSH2 0x585 SWAP1 PUSH2 0x1EF3 JUMP JUMPDEST DUP3 PUSH1 0x1 DUP1 PUSH1 0x2 DUP4 DUP2 SLOAD DUP2 LT PUSH2 0xBFB JUMPI PUSH2 0xBFB PUSH2 0x1EDD JUMP JUMPDEST SWAP1 PUSH1 0x0 MSTORE PUSH1 0x20 PUSH1 0x0 KECCAK256 SWAP1 PUSH1 0x9 MUL ADD PUSH1 0x7 ADD PUSH1 0x14 SWAP1 SLOAD SWAP1 PUSH2 0x100 EXP SWAP1 DIV PUSH1 0xFF AND PUSH1 0x4 DUP2 GT ISZERO PUSH2 0xC2B JUMPI PUSH2 0xC2B PUSH2 0x1B57 JUMP JUMPDEST EQ PUSH2 0xC48 JUMPI PUSH1 0x40 MLOAD PUSH3 0x461BCD PUSH1 0xE5 SHL DUP2 MSTORE PUSH1 0x4 ADD PUSH2 0x585 SWAP1 PUSH2 0x1F1D JUMP JUMPDEST DUP4 PUSH1 0x2 DUP7 DUP2 SLOAD DUP2 LT PUSH2 0xC5C JUMPI PUSH2 0xC5C PUSH2 0x1EDD JUMP JUMPDEST SWAP1 PUSH1 0x0 MSTORE PUSH1 0x20 PUSH1 0x0 KECCAK256 SWAP1 PUSH1 0x9 MUL ADD PUSH1 0x5 ADD DUP2 SWAP1 SSTORE POP POP POP POP POP POP JUMP JUMPDEST PUSH1 0x0 PUSH1 0x2 DUP3 DUP2 SLOAD DUP2 LT PUSH2 0xC8D JUMPI PUSH2 0xC8D PUSH2 0x1EDD JUMP JUMPDEST SWAP1 PUSH1 0x0 MSTORE PUSH1 0x20 PUSH1 0x0 KECCAK256 SWAP1 PUSH1 0x9 MUL ADD PUSH1 0x40 MLOAD DUP1 PUSH2 0x140 ADD PUSH1 0x40 MSTORE SWAP1 DUP2 PUSH1 0x0 DUP3 ADD SLOAD DUP2 MSTORE PUSH1 0x20 ADD PUSH1 0x1 DUP3 ADD PUSH1 0x0 SWAP1 SLOAD SWAP1 PUSH2 0x100 EXP SWAP1 DIV PUSH1 0x1 PUSH1 0x1 PUSH1 0xA0 SHL SUB AND PUSH1 0x1 PUSH1 0x1 PUSH1 0xA0 SHL SUB AND PUSH1 0x1 PUSH1 0x1 PUSH1 0xA0 SHL SUB AND DUP2 MSTORE PUSH1 0x20 ADD PUSH1 0x2 DUP3 ADD DUP1 SLOAD PUSH2 0xCF0 SWAP1 PUSH2 0x1EA3 JUMP JUMPDEST DUP1 PUSH1 0x1F ADD PUSH1 0x20 DUP1 SWAP2 DIV MUL PUSH1 0x20 ADD PUSH1 0x40 MLOAD SWAP1 DUP2 ADD PUSH1 0x40 MSTORE DUP1 SWAP3 SWAP2 SWAP1 DUP2 DUP2 MSTORE PUSH1 0x20 ADD DUP3 DUP1 SLOAD PUSH2 0xD1C SWAP1 PUSH2 0x1EA3 JUMP JUMPDEST DUP1 ISZERO PUSH2 0xD69 JUMPI DUP1 PUSH1 0x1F LT PUSH2 0xD3E JUMPI PUSH2 0x100 DUP1 DUP4 SLOAD DIV MUL DUP4 MSTORE SWAP2 PUSH1 0x20 ADD SWAP2 PUSH2 0xD69 JUMP JUMPDEST DUP3 ADD SWAP2 SWAP1 PUSH1 0x0 MSTORE PUSH1 0x20 PUSH1 0x0 KECCAK256 SWAP1 JUMPDEST DUP2 SLOAD DUP2 MSTORE SWAP1 PUSH1 0x1 ADD SWAP1 PUSH1 0x20 ADD DUP1 DUP4 GT PUSH2 0xD4C JUMPI DUP3 SWAP1 SUB PUSH1 0x1F AND DUP3 ADD SWAP2 JUMPDEST POP POP POP POP POP DUP2 MSTORE PUSH1 0x20 ADD PUSH1 0x3 DUP3 ADD DUP1 SLOAD PUSH2 0xD82 SWAP1 PUSH2 0x1EA3 JUMP JUMPDEST DUP1 PUSH1 0x1F ADD PUSH1 0x20 DUP1 SWAP2 DIV MUL PUSH1 0x20 ADD PUSH1 0x40 MLOAD SWAP1 DUP2 ADD PUSH1 0x40 MSTORE DUP1 SWAP3 SWAP2 SWAP1 DUP2 DUP2 MSTORE PUSH1 0x20 ADD DUP3 DUP1 SLOAD PUSH2 0xDAE SWAP1 PUSH2 0x1EA3 JUMP JUMPDEST DUP1 ISZERO PUSH2 0xDFB JUMPI DUP1 PUSH1 0x1F LT PUSH2 0xDD0 JUMPI PUSH2 0x100 DUP1 DUP4 SLOAD DIV MUL DUP4 MSTORE SWAP2 PUSH1 0x20 ADD SWAP2 PUSH2 0xDFB JUMP JUMPDEST DUP3 ADD SWAP2 SWAP1 PUSH1 0x0 MSTORE PUSH1 0x20 PUSH1 0x0 KECCAK256 SWAP1 JUMPDEST DUP2 SLOAD DUP2 MSTORE SWAP1 PUSH1 0x1 ADD SWAP1 PUSH1 0x20 ADD DUP1 DUP4 GT PUSH2 0xDDE JUMPI DUP3 SWAP1 SUB PUSH1 0x1F AND DUP3 ADD SWAP2 JUMPDEST POP POP POP POP POP DUP2 MSTORE PUSH1 0x20 ADD PUSH1 0x4 DUP3 ADD DUP1 SLOAD PUSH2 0xE14 SWAP1 PUSH2 0x1EA3 JUMP JUMPDEST DUP1 PUSH1 0x1F ADD PUSH1 0x20 DUP1 SWAP2 DIV MUL PUSH1 0x20 ADD PUSH1 0x40 MLOAD SWAP1 DUP2 ADD PUSH1 0x40 MSTORE DUP1 SWAP3 SWAP2 SWAP1 DUP2 DUP2 MSTORE PUSH1 0x20 ADD DUP3 DUP1 SLOAD PUSH2 0xE40 SWAP1 PUSH2 0x1EA3 JUMP JUMPDEST DUP1 ISZERO PUSH2 0xE8D JUMPI DUP1 PUSH1 0x1F LT PUSH2 0xE62 JUMPI PUSH2 0x100 DUP1 DUP4 SLOAD DIV MUL DUP4 MSTORE SWAP2 PUSH1 0x20 ADD SWAP2 PUSH2 0xE8D JUMP JUMPDEST DUP3 ADD SWAP2 SWAP1 PUSH1 0x0 MSTORE PUSH1 0x20 PUSH1 0x0 KECCAK256 SWAP1 JUMPDEST DUP2 SLOAD DUP2 MSTORE SWAP1 PUSH1 0x1 ADD SWAP1 PUSH1 0x20 ADD DUP1 DUP4 GT PUSH2 0xE70 JUMPI DUP3 SWAP1 SUB PUSH1 0x1F AND DUP3 ADD SWAP2 JUMPDEST POP POP POP SWAP2 DUP4 MSTORE POP POP PUSH1 0x5 DUP3 ADD SLOAD PUSH1 0x20 DUP3 ADD MSTORE PUSH1 0x6 DUP3 ADD SLOAD PUSH1 0x40 DUP3 ADD MSTORE PUSH1 0x7 DUP3 ADD SLOAD PUSH1 0x1 PUSH1 0x1 PUSH1 0xA0 SHL SUB DUP2 AND PUSH1 0x60 DUP4 ADD MSTORE PUSH1 0x80 SWAP1 SWAP2 ADD SWAP1 PUSH1 0x1 PUSH1 0xA0 SHL SWAP1 DIV PUSH1 0xFF AND PUSH1 0x4 DUP2 GT ISZERO PUSH2 0xEDE JUMPI PUSH2 0xEDE PUSH2 0x1B57 JUMP JUMPDEST PUSH1 0x4 DUP2 GT ISZERO PUSH2 0xEEF JUMPI PUSH2 0xEEF PUSH2 0x1B57 JUMP JUMPDEST DUP2 MSTORE PUSH1 0x20 ADD PUSH1 0x8 DUP3 ADD SLOAD DUP2 MSTORE POP POP SWAP1 POP DUP1 PUSH1 0xE0 ADD MLOAD PUSH1 0x1 PUSH1 0x1 PUSH1 0xA0 SHL SUB AND CALLER PUSH1 0x1 PUSH1 0x1 PUSH1 0xA0 SHL SUB AND EQ DUP1 ISZERO PUSH2 0xF3A JUMPI POP PUSH1 0x2 DUP2 PUSH2 0x100 ADD MLOAD PUSH1 0x4 DUP2 GT ISZERO PUSH2 0xF38 JUMPI PUSH2 0xF38 PUSH2 0x1B57 JUMP JUMPDEST EQ JUMPDEST PUSH2 0xF7B JUMPI PUSH1 0x40 MLOAD PUSH3 0x461BCD PUSH1 0xE5 SHL DUP2 MSTORE PUSH1 0x20 PUSH1 0x4 DUP3 ADD MSTORE PUSH1 0x12 PUSH1 0x24 DUP3 ADD MSTORE PUSH18 0x10D85B98D95B081B9BDD08185B1B1BDDD959 PUSH1 0x72 SHL PUSH1 0x44 DUP3 ADD MSTORE PUSH1 0x64 ADD PUSH2 0x585 JUMP JUMPDEST DUP1 PUSH1 0xE0 ADD MLOAD PUSH1 0x1 PUSH1 0x1 PUSH1 0xA0 SHL SUB AND PUSH2 0x8FC DUP3 PUSH1 0xC0 ADD MLOAD SWAP1 DUP2 ISZERO MUL SWAP1 PUSH1 0x40 MLOAD PUSH1 0x0 PUSH1 0x40 MLOAD DUP1 DUP4 SUB DUP2 DUP6 DUP9 DUP9 CALL SWAP4 POP POP POP POP ISZERO DUP1 ISZERO PUSH2 0xFBC JUMPI RETURNDATASIZE PUSH1 0x0 DUP1 RETURNDATACOPY RETURNDATASIZE PUSH1 0x0 REVERT JUMPDEST POP PUSH1 0x0 PUSH1 0xC0 DUP3 ADD DUP2 SWAP1 MSTORE PUSH1 0x1 PUSH2 0x100 DUP4 ADD MSTORE PUSH1 0xE0 DUP3 ADD MSTORE PUSH1 0x2 DUP1 SLOAD DUP3 SWAP2 SWAP1 DUP5 SWAP1 DUP2 LT PUSH2 0xFEA JUMPI PUSH2 0xFEA PUSH2 0x1EDD JUMP JUMPDEST PUSH1 0x0 SWAP2 DUP3 MSTORE PUSH1 0x20 SWAP2 DUP3 SWAP1 KECCAK256 DUP4 MLOAD PUSH1 0x9 SWAP3 SWAP1 SWAP3 MUL ADD SWAP1 DUP2 SSTORE SWAP1 DUP3 ADD MLOAD PUSH1 0x1 DUP3 ADD DUP1 SLOAD PUSH1 0x1 PUSH1 0x1 PUSH1 0xA0 SHL SUB NOT AND PUSH1 0x1 PUSH1 0x1 PUSH1 0xA0 SHL SUB SWAP1 SWAP3 AND SWAP2 SWAP1 SWAP2 OR SWAP1 SSTORE PUSH1 0x40 DUP3 ADD MLOAD PUSH1 0x2 DUP3 ADD SWAP1 PUSH2 0x103A SWAP1 DUP3 PUSH2 0x1F92 JUMP JUMPDEST POP PUSH1 0x60 DUP3 ADD MLOAD PUSH1 0x3 DUP3 ADD SWAP1 PUSH2 0x104F SWAP1 DUP3 PUSH2 0x1F92 JUMP JUMPDEST POP PUSH1 0x80 DUP3 ADD MLOAD PUSH1 0x4 DUP3 ADD SWAP1 PUSH2 0x1064 SWAP1 DUP3 PUSH2 0x1F92 JUMP JUMPDEST POP PUSH1 0xA0 DUP3 ADD MLOAD PUSH1 0x5 DUP3 ADD SSTORE PUSH1 0xC0 DUP3 ADD MLOAD PUSH1 0x6 DUP3 ADD SSTORE PUSH1 0xE0 DUP3 ADD MLOAD PUSH1 0x7 DUP3 ADD DUP1 SLOAD PUSH1 0x1 PUSH1 0x1 PUSH1 0xA0 SHL SUB SWAP1 SWAP3 AND PUSH1 0x1 PUSH1 0x1 PUSH1 0xA0 SHL SUB NOT DUP4 AND DUP2 OR DUP3 SSTORE PUSH2 0x100 DUP6 ADD MLOAD SWAP3 PUSH1 0x1 PUSH1 0x1 PUSH1 0xA8 SHL SUB NOT AND OR PUSH1 0x1 PUSH1 0xA0 SHL DUP4 PUSH1 0x4 DUP2 GT ISZERO PUSH2 0x10C7 JUMPI PUSH2 0x10C7 PUSH2 0x1B57 JUMP JUMPDEST MUL OR SWAP1 SSTORE POP PUSH2 0x120 DUP3 ADD MLOAD DUP2 PUSH1 0x8 ADD SSTORE SWAP1 POP POP POP POP JUMP JUMPDEST PUSH1 0x0 DUP1 SLOAD PUSH1 0x40 MLOAD PUSH4 0x77C1B97 PUSH1 0xE3 SHL DUP2 MSTORE PUSH1 0x4 DUP2 ADD DUP5 SWAP1 MSTORE PUSH1 0x1 PUSH1 0x1 PUSH1 0xA0 SHL SUB SWAP1 SWAP2 AND SWAP1 PUSH4 0x3BE0DCB8 SWAP1 PUSH1 0x24 ADD PUSH1 0x20 PUSH1 0x40 MLOAD DUP1 DUP4 SUB DUP2 PUSH1 0x0 DUP8 GAS CALL ISZERO DUP1 ISZERO PUSH2 0x112A JUMPI RETURNDATASIZE PUSH1 0x0 DUP1 RETURNDATACOPY RETURNDATASIZE PUSH1 0x0 REVERT JUMPDEST POP POP POP POP PUSH1 0x40 MLOAD RETURNDATASIZE PUSH1 0x1F NOT PUSH1 0x1F DUP3 ADD AND DUP3 ADD DUP1 PUSH1 0x40 MSTORE POP DUP2 ADD SWAP1 PUSH2 0x114E SWAP2 SWAP1 PUSH2 0x2052 JUMP JUMPDEST SWAP3 SWAP2 POP POP JUMP JUMPDEST PUSH1 0x0 PUSH1 0x2 DUP3 DUP2 SLOAD DUP2 LT PUSH2 0x1169 JUMPI PUSH2 0x1169 PUSH2 0x1EDD JUMP JUMPDEST SWAP1 PUSH1 0x0 MSTORE PUSH1 0x20 PUSH1 0x0 KECCAK256 SWAP1 PUSH1 0x9 MUL ADD PUSH1 0x40 MLOAD DUP1 PUSH2 0x140 ADD PUSH1 0x40 MSTORE SWAP1 DUP2 PUSH1 0x0 DUP3 ADD SLOAD DUP2 MSTORE PUSH1 0x20 ADD PUSH1 0x1 DUP3 ADD PUSH1 0x0 SWAP1 SLOAD SWAP1 PUSH2 0x100 EXP SWAP1 DIV PUSH1 0x1 PUSH1 0x1 PUSH1 0xA0 SHL SUB AND PUSH1 0x1 PUSH1 0x1 PUSH1 0xA0 SHL SUB AND PUSH1 0x1 PUSH1 0x1 PUSH1 0xA0 SHL SUB AND DUP2 MSTORE PUSH1 0x20 ADD PUSH1 0x2 DUP3 ADD DUP1 SLOAD PUSH2 0x11CC SWAP1 PUSH2 0x1EA3 JUMP JUMPDEST DUP1 PUSH1 0x1F ADD PUSH1 0x20 DUP1 SWAP2 DIV MUL PUSH1 0x20 ADD PUSH1 0x40 MLOAD SWAP1 DUP2 ADD PUSH1 0x40 MSTORE DUP1 SWAP3 SWAP2 SWAP1 DUP2 DUP2 MSTORE PUSH1 0x20 ADD DUP3 DUP1 SLOAD PUSH2 0x11F8 SWAP1 PUSH2 0x1EA3 JUMP JUMPDEST DUP1 ISZERO PUSH2 0x1245 JUMPI DUP1 PUSH1 0x1F LT PUSH2 0x121A JUMPI PUSH2 0x100 DUP1 DUP4 SLOAD DIV MUL DUP4 MSTORE SWAP2 PUSH1 0x20 ADD SWAP2 PUSH2 0x1245 JUMP JUMPDEST DUP3 ADD SWAP2 SWAP1 PUSH1 0x0 MSTORE PUSH1 0x20 PUSH1 0x0 KECCAK256 SWAP1 JUMPDEST DUP2 SLOAD DUP2 MSTORE SWAP1 PUSH1 0x1 ADD SWAP1 PUSH1 0x20 ADD DUP1 DUP4 GT PUSH2 0x1228 JUMPI DUP3 SWAP1 SUB PUSH1 0x1F AND DUP3 ADD SWAP2 JUMPDEST POP POP POP POP POP DUP2 MSTORE PUSH1 0x20 ADD PUSH1 0x3 DUP3 ADD DUP1 SLOAD PUSH2 0x125E SWAP1 PUSH2 0x1EA3 JUMP JUMPDEST DUP1 PUSH1 0x1F ADD PUSH1 0x20 DUP1 SWAP2 DIV MUL PUSH1 0x20 ADD PUSH1 0x40 MLOAD SWAP1 DUP2 ADD PUSH1 0x40 MSTORE DUP1 SWAP3 SWAP2 SWAP1 DUP2 DUP2 MSTORE PUSH1 0x20 ADD DUP3 DUP1 SLOAD PUSH2 0x128A SWAP1 PUSH2 0x1EA3 JUMP JUMPDEST DUP1 ISZERO PUSH2 0x12D7 JUMPI DUP1 PUSH1 0x1F LT PUSH2 0x12AC JUMPI PUSH2 0x100 DUP1 DUP4 SLOAD DIV MUL DUP4 MSTORE SWAP2 PUSH1 0x20 ADD SWAP2 PUSH2 0x12D7 JUMP JUMPDEST DUP3 ADD SWAP2 SWAP1 PUSH1 0x0 MSTORE PUSH1 0x20 PUSH1 0x0 KECCAK256 SWAP1 JUMPDEST DUP2 SLOAD DUP2 MSTORE SWAP1 PUSH1 0x1 ADD SWAP1 PUSH1 0x20 ADD DUP1 DUP4 GT PUSH2 0x12BA JUMPI DUP3 SWAP1 SUB PUSH1 0x1F AND DUP3 ADD SWAP2 JUMPDEST POP POP POP POP POP DUP2 MSTORE PUSH1 0x20 ADD PUSH1 0x4 DUP3 ADD DUP1 SLOAD PUSH2 0x12F0 SWAP1 PUSH2 0x1EA3 JUMP JUMPDEST DUP1 PUSH1 0x1F ADD PUSH1 0x20 DUP1 SWAP2 DIV MUL PUSH1 0x20 ADD PUSH1 0x40 MLOAD SWAP1 DUP2 ADD PUSH1 0x40 MSTORE DUP1 SWAP3 SWAP2 SWAP1 DUP2 DUP2 MSTORE PUSH1 0x20 ADD DUP3 DUP1 SLOAD PUSH2 0x131C SWAP1 PUSH2 0x1EA3 JUMP JUMPDEST DUP1 ISZERO PUSH2 0x1369 JUMPI DUP1 PUSH1 0x1F LT PUSH2 0x133E JUMPI PUSH2 0x100 DUP1 DUP4 SLOAD DIV MUL DUP4 MSTORE SWAP2 PUSH1 0x20 ADD SWAP2 PUSH2 0x1369 JUMP JUMPDEST DUP3 ADD SWAP2 SWAP1 PUSH1 0x0 MSTORE PUSH1 0x20 PUSH1 0x0 KECCAK256 SWAP1 JUMPDEST DUP2 SLOAD DUP2 MSTORE SWAP1 PUSH1 0x1 ADD SWAP1 PUSH1 0x20 ADD DUP1 DUP4 GT PUSH2 0x134C JUMPI DUP3 SWAP1 SUB PUSH1 0x1F AND DUP3 ADD SWAP2 JUMPDEST POP POP POP SWAP2 DUP4 MSTORE POP POP PUSH1 0x5 DUP3 ADD SLOAD PUSH1 0x20 DUP3 ADD MSTORE PUSH1 0x6 DUP3 ADD SLOAD PUSH1 0x40 DUP3 ADD MSTORE PUSH1 0x7 DUP3 ADD SLOAD PUSH1 0x1 PUSH1 0x1 PUSH1 0xA0 SHL SUB DUP2 AND PUSH1 0x60 DUP4 ADD MSTORE PUSH1 0x80 SWAP1 SWAP2 ADD SWAP1 PUSH1 0x1 PUSH1 0xA0 SHL SWAP1 DIV PUSH1 0xFF AND PUSH1 0x4 DUP2 GT ISZERO PUSH2 0x13BA JUMPI PUSH2 0x13BA PUSH2 0x1B57 JUMP JUMPDEST PUSH1 0x4 DUP2 GT ISZERO PUSH2 0x13CB JUMPI PUSH2 0x13CB PUSH2 0x1B57 JUMP JUMPDEST DUP2 MSTORE PUSH1 0x20 ADD PUSH1 0x8 DUP3 ADD SLOAD DUP2 MSTORE POP POP SWAP1 POP DUP1 PUSH1 0xE0 ADD MLOAD PUSH1 0x1 PUSH1 0x1 PUSH1 0xA0 SHL SUB AND CALLER PUSH1 0x1 PUSH1 0x1 PUSH1 0xA0 SHL SUB AND EQ DUP1 ISZERO PUSH2 0x1416 JUMPI POP PUSH1 0x3 DUP2 PUSH2 0x100 ADD MLOAD PUSH1 0x4 DUP2 GT ISZERO PUSH2 0x1414 JUMPI PUSH2 0x1414 PUSH2 0x1B57 JUMP JUMPDEST EQ JUMPDEST PUSH2 0x1462 JUMPI PUSH1 0x40 MLOAD PUSH3 0x461BCD PUSH1 0xE5 SHL DUP2 MSTORE PUSH1 0x20 PUSH1 0x4 DUP3 ADD MSTORE PUSH1 0x18 PUSH1 0x24 DUP3 ADD MSTORE PUSH32 0x436F6E6669726D6174696F6E206E6F7420616C6C6F7765640000000000000000 PUSH1 0x44 DUP3 ADD MSTORE PUSH1 0x64 ADD PUSH2 0x585 JUMP JUMPDEST PUSH1 0x0 PUSH2 0x3E8 PUSH1 0x1 SLOAD PUSH2 0x3E8 PUSH2 0x1477 SWAP2 SWAP1 PUSH2 0x2081 JUMP JUMPDEST DUP4 PUSH1 0xC0 ADD MLOAD PUSH2 0x1486 SWAP2 SWAP1 PUSH2 0x2094 JUMP JUMPDEST PUSH2 0x1490 SWAP2 SWAP1 PUSH2 0x20AB JUMP JUMPDEST SWAP1 POP PUSH1 0x0 PUSH2 0x3E8 PUSH1 0x1 SLOAD DUP5 PUSH1 0xC0 ADD MLOAD PUSH2 0x14A9 SWAP2 SWAP1 PUSH2 0x2094 JUMP JUMPDEST PUSH2 0x14B3 SWAP2 SWAP1 PUSH2 0x20AB JUMP JUMPDEST PUSH1 0x4 PUSH2 0x100 DUP6 ADD MSTORE PUSH1 0x2 DUP1 SLOAD SWAP2 SWAP3 POP DUP5 SWAP2 DUP7 SWAP1 DUP2 LT PUSH2 0x14D4 JUMPI PUSH2 0x14D4 PUSH2 0x1EDD JUMP JUMPDEST PUSH1 0x0 SWAP2 DUP3 MSTORE PUSH1 0x20 SWAP2 DUP3 SWAP1 KECCAK256 DUP4 MLOAD PUSH1 0x9 SWAP3 SWAP1 SWAP3 MUL ADD SWAP1 DUP2 SSTORE SWAP1 DUP3 ADD MLOAD PUSH1 0x1 DUP3 ADD DUP1 SLOAD PUSH1 0x1 PUSH1 0x1 PUSH1 0xA0 SHL SUB NOT AND PUSH1 0x1 PUSH1 0x1 PUSH1 0xA0 SHL SUB SWAP1 SWAP3 AND SWAP2 SWAP1 SWAP2 OR SWAP1 SSTORE PUSH1 0x40 DUP3 ADD MLOAD PUSH1 0x2 DUP3 ADD SWAP1 PUSH2 0x1524 SWAP1 DUP3 PUSH2 0x1F92 JUMP JUMPDEST POP PUSH1 0x60 DUP3 ADD MLOAD PUSH1 0x3 DUP3 ADD SWAP1 PUSH2 0x1539 SWAP1 DUP3 PUSH2 0x1F92 JUMP JUMPDEST POP PUSH1 0x80 DUP3 ADD MLOAD PUSH1 0x4 DUP3 ADD SWAP1 PUSH2 0x154E SWAP1 DUP3 PUSH2 0x1F92 JUMP JUMPDEST POP PUSH1 0xA0 DUP3 ADD MLOAD PUSH1 0x5 DUP3 ADD SSTORE PUSH1 0xC0 DUP3 ADD MLOAD PUSH1 0x6 DUP3 ADD SSTORE PUSH1 0xE0 DUP3 ADD MLOAD PUSH1 0x7 DUP3 ADD DUP1 SLOAD PUSH1 0x1 PUSH1 0x1 PUSH1 0xA0 SHL SUB SWAP1 SWAP3 AND PUSH1 0x1 PUSH1 0x1 PUSH1 0xA0 SHL SUB NOT DUP4 AND DUP2 OR DUP3 SSTORE PUSH2 0x100 DUP6 ADD MLOAD SWAP3 PUSH1 0x1 PUSH1 0x1 PUSH1 0xA8 SHL SUB NOT AND OR PUSH1 0x1 PUSH1 0xA0 SHL DUP4 PUSH1 0x4 DUP2 GT ISZERO PUSH2 0x15B1 JUMPI PUSH2 0x15B1 PUSH2 0x1B57 JUMP JUMPDEST MUL OR SWAP1 SSTORE POP PUSH2 0x120 SWAP2 SWAP1 SWAP2 ADD MLOAD PUSH1 0x8 SWAP1 SWAP2 ADD SSTORE PUSH1 0x0 DUP1 SLOAD PUSH1 0x40 MLOAD PUSH1 0x1 PUSH1 0x1 PUSH1 0xA0 SHL SUB SWAP1 SWAP2 AND SWAP2 DUP4 ISZERO PUSH2 0x8FC MUL SWAP2 DUP5 SWAP2 DUP2 DUP2 DUP2 DUP6 DUP9 DUP9 CALL SWAP4 POP POP POP POP ISZERO DUP1 ISZERO PUSH2 0x15FD JUMPI RETURNDATASIZE PUSH1 0x0 DUP1 RETURNDATACOPY RETURNDATASIZE PUSH1 0x0 REVERT JUMPDEST POP DUP3 PUSH1 0x20 ADD MLOAD PUSH1 0x1 PUSH1 0x1 PUSH1 0xA0 SHL SUB AND PUSH2 0x8FC DUP4 SWAP1 DUP2 ISZERO MUL SWAP1 PUSH1 0x40 MLOAD PUSH1 0x0 PUSH1 0x40 MLOAD DUP1 DUP4 SUB DUP2 DUP6 DUP9 DUP9 CALL SWAP4 POP POP POP POP ISZERO DUP1 ISZERO PUSH2 0x163B JUMPI RETURNDATASIZE PUSH1 0x0 DUP1 RETURNDATACOPY RETURNDATASIZE PUSH1 0x0 REVERT JUMPDEST POP POP POP POP POP JUMP JUMPDEST PUSH1 0x0 PUSH1 0x2 DUP3 DUP2 SLOAD DUP2 LT PUSH2 0x1657 JUMPI PUSH2 0x1657 PUSH2 0x1EDD JUMP JUMPDEST SWAP1 PUSH1 0x0 MSTORE PUSH1 0x20 PUSH1 0x0 KECCAK256 SWAP1 PUSH1 0x9 MUL ADD PUSH1 0x40 MLOAD DUP1 PUSH2 0x140 ADD PUSH1 0x40 MSTORE SWAP1 DUP2 PUSH1 0x0 DUP3 ADD SLOAD DUP2 MSTORE PUSH1 0x20 ADD PUSH1 0x1 DUP3 ADD PUSH1 0x0 SWAP1 SLOAD SWAP1 PUSH2 0x100 EXP SWAP1 DIV PUSH1 0x1 PUSH1 0x1 PUSH1 0xA0 SHL SUB AND PUSH1 0x1 PUSH1 0x1 PUSH1 0xA0 SHL SUB AND PUSH1 0x1 PUSH1 0x1 PUSH1 0xA0 SHL SUB AND DUP2 MSTORE PUSH1 0x20 ADD PUSH1 0x2 DUP3 ADD DUP1 SLOAD PUSH2 0x16BA SWAP1 PUSH2 0x1EA3 JUMP JUMPDEST DUP1 PUSH1 0x1F ADD PUSH1 0x20 DUP1 SWAP2 DIV MUL PUSH1 0x20 ADD PUSH1 0x40 MLOAD SWAP1 DUP2 ADD PUSH1 0x40 MSTORE DUP1 SWAP3 SWAP2 SWAP1 DUP2 DUP2 MSTORE PUSH1 0x20 ADD DUP3 DUP1 SLOAD PUSH2 0x16E6 SWAP1 PUSH2 0x1EA3 JUMP JUMPDEST DUP1 ISZERO PUSH2 0x1733 JUMPI DUP1 PUSH1 0x1F LT PUSH2 0x1708 JUMPI PUSH2 0x100 DUP1 DUP4 SLOAD DIV MUL DUP4 MSTORE SWAP2 PUSH1 0x20 ADD SWAP2 PUSH2 0x1733 JUMP JUMPDEST DUP3 ADD SWAP2 SWAP1 PUSH1 0x0 MSTORE PUSH1 0x20 PUSH1 0x0 KECCAK256 SWAP1 JUMPDEST DUP2 SLOAD DUP2 MSTORE SWAP1 PUSH1 0x1 ADD SWAP1 PUSH1 0x20 ADD DUP1 DUP4 GT PUSH2 0x1716 JUMPI DUP3 SWAP1 SUB PUSH1 0x1F AND DUP3 ADD SWAP2 JUMPDEST POP POP POP POP POP DUP2 MSTORE PUSH1 0x20 ADD PUSH1 0x3 DUP3 ADD DUP1 SLOAD PUSH2 0x174C SWAP1 PUSH2 0x1EA3 JUMP JUMPDEST DUP1 PUSH1 0x1F ADD PUSH1 0x20 DUP1 SWAP2 DIV MUL PUSH1 0x20 ADD PUSH1 0x40 MLOAD SWAP1 DUP2 ADD PUSH1 0x40 MSTORE DUP1 SWAP3 SWAP2 SWAP1 DUP2 DUP2 MSTORE PUSH1 0x20 ADD DUP3 DUP1 SLOAD PUSH2 0x1778 SWAP1 PUSH2 0x1EA3 JUMP JUMPDEST DUP1 ISZERO PUSH2 0x17C5 JUMPI DUP1 PUSH1 0x1F LT PUSH2 0x179A JUMPI PUSH2 0x100 DUP1 DUP4 SLOAD DIV MUL DUP4 MSTORE SWAP2 PUSH1 0x20 ADD SWAP2 PUSH2 0x17C5 JUMP JUMPDEST DUP3 ADD SWAP2 SWAP1 PUSH1 0x0 MSTORE PUSH1 0x20 PUSH1 0x0 KECCAK256 SWAP1 JUMPDEST DUP2 SLOAD DUP2 MSTORE SWAP1 PUSH1 0x1 ADD SWAP1 PUSH1 0x20 ADD DUP1 DUP4 GT PUSH2 0x17A8 JUMPI DUP3 SWAP1 SUB PUSH1 0x1F AND DUP3 ADD SWAP2 JUMPDEST POP POP POP POP POP DUP2 MSTORE PUSH1 0x20 ADD PUSH1 0x4 DUP3 ADD DUP1 SLOAD PUSH2 0x17DE SWAP1 PUSH2 0x1EA3 JUMP JUMPDEST DUP1 PUSH1 0x1F ADD PUSH1 0x20 DUP1 SWAP2 DIV MUL PUSH1 0x20 ADD PUSH1 0x40 MLOAD SWAP1 DUP2 ADD PUSH1 0x40 MSTORE DUP1 SWAP3 SWAP2 SWAP1 DUP2 DUP2 MSTORE PUSH1 0x20 ADD DUP3 DUP1 SLOAD PUSH2 0x180A SWAP1 PUSH2 0x1EA3 JUMP JUMPDEST DUP1 ISZERO PUSH2 0x1857 JUMPI DUP1 PUSH1 0x1F LT PUSH2 0x182C JUMPI PUSH2 0x100 DUP1 DUP4 SLOAD DIV MUL DUP4 MSTORE SWAP2 PUSH1 0x20 ADD SWAP2 PUSH2 0x1857 JUMP JUMPDEST DUP3 ADD SWAP2 SWAP1 PUSH1 0x0 MSTORE PUSH1 0x20 PUSH1 0x0 KECCAK256 SWAP1 JUMPDEST DUP2 SLOAD DUP2 MSTORE SWAP1 PUSH1 0x1 ADD SWAP1 PUSH1 0x20 ADD DUP1 DUP4 GT PUSH2 0x183A JUMPI DUP3 SWAP1 SUB PUSH1 0x1F AND DUP3 ADD SWAP2 JUMPDEST POP POP POP SWAP2 DUP4 MSTORE POP POP PUSH1 0x5 DUP3 ADD SLOAD PUSH1 0x20 DUP3 ADD MSTORE PUSH1 0x6 DUP3 ADD SLOAD PUSH1 0x40 DUP3 ADD MSTORE PUSH1 0x7 DUP3 ADD SLOAD PUSH1 0x1 PUSH1 0x1 PUSH1 0xA0 SHL SUB DUP2 AND PUSH1 0x60 DUP4 ADD MSTORE PUSH1 0x80 SWAP1 SWAP2 ADD SWAP1 PUSH1 0x1 PUSH1 0xA0 SHL SWAP1 DIV PUSH1 0xFF AND PUSH1 0x4 DUP2 GT ISZERO PUSH2 0x18A8 JUMPI PUSH2 0x18A8 PUSH2 0x1B57 JUMP JUMPDEST PUSH1 0x4 DUP2 GT ISZERO PUSH2 0x18B9 JUMPI PUSH2 0x18B9 PUSH2 0x1B57 JUMP JUMPDEST DUP2 MSTORE PUSH1 0x20 ADD PUSH1 0x8 DUP3 ADD SLOAD DUP2 MSTORE POP POP SWAP1 POP DUP1 PUSH1 0x20 ADD MLOAD PUSH1 0x1 PUSH1 0x1 PUSH1 0xA0 SHL SUB AND CALLER PUSH1 0x1 PUSH1 0x1 PUSH1 0xA0 SHL SUB AND EQ ISZERO DUP1 ISZERO PUSH2 0x1905 JUMPI POP PUSH1 0x1 DUP2 PUSH2 0x100 ADD MLOAD PUSH1 0x4 DUP2 GT ISZERO PUSH2 0x1903 JUMPI PUSH2 0x1903 PUSH2 0x1B57 JUMP JUMPDEST EQ JUMPDEST PUSH2 0x1944 JUMPI PUSH1 0x40 MLOAD PUSH3 0x461BCD PUSH1 0xE5 SHL DUP2 MSTORE PUSH1 0x20 PUSH1 0x4 DUP3 ADD MSTORE PUSH1 0x10 PUSH1 0x24 DUP3 ADD MSTORE PUSH16 0x496E76616C6964207075726368617365 PUSH1 0x80 SHL PUSH1 0x44 DUP3 ADD MSTORE PUSH1 0x64 ADD PUSH2 0x585 JUMP JUMPDEST PUSH1 0x0 PUSH2 0x1953 DUP3 PUSH1 0xA0 ADD MLOAD PUSH2 0x10DE JUMP JUMPDEST SWAP1 POP DUP1 CALLVALUE EQ PUSH2 0x1999 JUMPI PUSH1 0x40 MLOAD PUSH3 0x461BCD PUSH1 0xE5 SHL DUP2 MSTORE PUSH1 0x20 PUSH1 0x4 DUP3 ADD MSTORE PUSH1 0x12 PUSH1 0x24 DUP3 ADD MSTORE PUSH18 0x1A5B9CDD59999A5CD85B9D08185B5BDD5B9D PUSH1 0x72 SHL PUSH1 0x44 DUP3 ADD MSTORE PUSH1 0x64 ADD PUSH2 0x585 JUMP JUMPDEST CALLER PUSH1 0xE0 DUP4 ADD MSTORE PUSH1 0xC0 DUP3 ADD DUP2 SWAP1 MSTORE PUSH1 0x2 PUSH2 0x100 DUP4 ADD DUP2 DUP2 MSTORE POP POP DUP2 PUSH1 0x2 DUP5 DUP2 SLOAD DUP2 LT PUSH2 0x19C6 JUMPI PUSH2 0x19C6 PUSH2 0x1EDD JUMP JUMPDEST PUSH1 0x0 SWAP2 DUP3 MSTORE PUSH1 0x20 SWAP2 DUP3 SWAP1 KECCAK256 DUP4 MLOAD PUSH1 0x9 SWAP3 SWAP1 SWAP3 MUL ADD SWAP1 DUP2 SSTORE SWAP1 DUP3 ADD MLOAD PUSH1 0x1 DUP3 ADD DUP1 SLOAD PUSH1 0x1 PUSH1 0x1 PUSH1 0xA0 SHL SUB NOT AND PUSH1 0x1 PUSH1 0x1 PUSH1 0xA0 SHL SUB SWAP1 SWAP3 AND SWAP2 SWAP1 SWAP2 OR SWAP1 SSTORE PUSH1 0x40 DUP3 ADD MLOAD PUSH1 0x2 DUP3 ADD SWAP1 PUSH2 0x1A16 SWAP1 DUP3 PUSH2 0x1F92 JUMP JUMPDEST POP PUSH1 0x60 DUP3 ADD MLOAD PUSH1 0x3 DUP3 ADD SWAP1 PUSH2 0x1A2B SWAP1 DUP3 PUSH2 0x1F92 JUMP JUMPDEST POP PUSH1 0x80 DUP3 ADD MLOAD PUSH1 0x4 DUP3 ADD SWAP1 PUSH2 0x1A40 SWAP1 DUP3 PUSH2 0x1F92 JUMP JUMPDEST POP PUSH1 0xA0 DUP3 ADD MLOAD PUSH1 0x5 DUP3 ADD SSTORE PUSH1 0xC0 DUP3 ADD MLOAD PUSH1 0x6 DUP3 ADD SSTORE PUSH1 0xE0 DUP3 ADD MLOAD PUSH1 0x7 DUP3 ADD DUP1 SLOAD PUSH1 0x1 PUSH1 0x1 PUSH1 0xA0 SHL SUB SWAP1 SWAP3 AND PUSH1 0x1 PUSH1 0x1 PUSH1 0xA0 SHL SUB NOT DUP4 AND DUP2 OR DUP3 SSTORE PUSH2 0x100 DUP6 ADD MLOAD SWAP3 PUSH1 0x1 PUSH1 0x1 PUSH1 0xA8 SHL SUB NOT AND OR PUSH1 0x1 PUSH1 0xA0 SHL DUP4 PUSH1 0x4 DUP2 GT ISZERO PUSH2 0x1AA3 JUMPI PUSH2 0x1AA3 PUSH2 0x1B57 JUMP JUMPDEST MUL OR SWAP1 SSTORE POP PUSH2 0x120 DUP3 ADD MLOAD DUP2 PUSH1 0x8 ADD SSTORE SWAP1 POP POP POP POP POP JUMP JUMPDEST POP DUP1 SLOAD PUSH2 0x1AC7 SWAP1 PUSH2 0x1EA3 JUMP JUMPDEST PUSH1 0x0 DUP3 SSTORE DUP1 PUSH1 0x1F LT PUSH2 0x1AD7 JUMPI POP POP JUMP JUMPDEST PUSH1 0x1F ADD PUSH1 0x20 SWAP1 DIV SWAP1 PUSH1 0x0 MSTORE PUSH1 0x20 PUSH1 0x0 KECCAK256 SWAP1 DUP2 ADD SWAP1 PUSH2 0x1AF5 SWAP2 SWAP1 PUSH2 0x1AF8 JUMP JUMPDEST POP JUMP JUMPDEST JUMPDEST DUP1 DUP3 GT ISZERO PUSH2 0x1B0D JUMPI PUSH1 0x0 DUP2 SSTORE PUSH1 0x1 ADD PUSH2 0x1AF9 JUMP JUMPDEST POP SWAP1 JUMP JUMPDEST PUSH1 0x0 DUP2 MLOAD DUP1 DUP5 MSTORE PUSH1 0x0 JUMPDEST DUP2 DUP2 LT ISZERO PUSH2 0x1B37 JUMPI PUSH1 0x20 DUP2 DUP6 ADD DUP2 ADD MLOAD DUP7 DUP4 ADD DUP3 ADD MSTORE ADD PUSH2 0x1B1B JUMP JUMPDEST POP PUSH1 0x0 PUSH1 0x20 DUP3 DUP7 ADD ADD MSTORE PUSH1 0x20 PUSH1 0x1F NOT PUSH1 0x1F DUP4 ADD AND DUP6 ADD ADD SWAP2 POP POP SWAP3 SWAP2 POP POP JUMP JUMPDEST PUSH4 0x4E487B71 PUSH1 0xE0 SHL PUSH1 0x0 MSTORE PUSH1 0x21 PUSH1 0x4 MSTORE PUSH1 0x24 PUSH1 0x0 REVERT JUMPDEST PUSH1 0x5 DUP2 LT PUSH2 0x1B8B JUMPI PUSH4 0x4E487B71 PUSH1 0xE0 SHL PUSH1 0x0 MSTORE PUSH1 0x21 PUSH1 0x4 MSTORE PUSH1 0x24 PUSH1 0x0 REVERT JUMPDEST SWAP1 MSTORE JUMP JUMPDEST PUSH1 0x0 PUSH1 0x20 DUP1 DUP4 ADD DUP2 DUP5 MSTORE DUP1 DUP6 MLOAD DUP1 DUP4 MSTORE PUSH1 0x40 SWAP3 POP DUP3 DUP7 ADD SWAP2 POP DUP3 DUP2 PUSH1 0x5 SHL DUP8 ADD ADD DUP5 DUP9 ADD PUSH1 0x0 JUMPDEST DUP4 DUP2 LT ISZERO PUSH2 0x1C97 JUMPI PUSH1 0x3F NOT DUP10 DUP5 SUB ADD DUP6 MSTORE DUP2 MLOAD DUP1 MLOAD DUP5 MSTORE DUP8 DUP2 ADD MLOAD PUSH1 0x1 PUSH1 0x1 PUSH1 0xA0 SHL SUB AND DUP9 DUP6 ADD MSTORE DUP7 DUP2 ADD MLOAD PUSH2 0x140 DUP9 DUP7 ADD DUP2 SWAP1 MSTORE SWAP1 PUSH2 0x1BF8 DUP3 DUP8 ADD DUP3 PUSH2 0x1B11 JUMP JUMPDEST SWAP2 POP POP PUSH1 0x60 DUP1 DUP4 ADD MLOAD DUP7 DUP4 SUB DUP3 DUP9 ADD MSTORE PUSH2 0x1C12 DUP4 DUP3 PUSH2 0x1B11 JUMP JUMPDEST SWAP3 POP POP POP PUSH1 0x80 DUP1 DUP4 ADD MLOAD DUP7 DUP4 SUB DUP3 DUP9 ADD MSTORE PUSH2 0x1C2D DUP4 DUP3 PUSH2 0x1B11 JUMP JUMPDEST SWAP3 POP POP POP PUSH1 0xA0 DUP1 DUP4 ADD MLOAD DUP2 DUP8 ADD MSTORE POP PUSH1 0xC0 DUP1 DUP4 ADD MLOAD DUP2 DUP8 ADD MSTORE POP PUSH1 0xE0 DUP1 DUP4 ADD MLOAD PUSH2 0x1C61 DUP3 DUP9 ADD DUP3 PUSH1 0x1 PUSH1 0x1 PUSH1 0xA0 SHL SUB AND SWAP1 MSTORE JUMP JUMPDEST POP POP PUSH2 0x100 DUP1 DUP4 ADD MLOAD PUSH2 0x1C76 DUP3 DUP9 ADD DUP3 PUSH2 0x1B6D JUMP JUMPDEST POP POP PUSH2 0x120 SWAP2 DUP3 ADD MLOAD SWAP5 SWAP1 SWAP2 ADD SWAP4 SWAP1 SWAP4 MSTORE SWAP4 DUP7 ADD SWAP4 SWAP1 DUP7 ADD SWAP1 PUSH1 0x1 ADD PUSH2 0x1BB6 JUMP JUMPDEST POP SWAP1 SWAP9 SWAP8 POP POP POP POP POP POP POP POP JUMP JUMPDEST PUSH1 0x0 PUSH1 0x20 DUP3 DUP5 SUB SLT ISZERO PUSH2 0x1CB7 JUMPI PUSH1 0x0 DUP1 REVERT JUMPDEST POP CALLDATALOAD SWAP2 SWAP1 POP JUMP JUMPDEST DUP11 DUP2 MSTORE PUSH1 0x1 PUSH1 0x1 PUSH1 0xA0 SHL SUB DUP11 DUP2 AND PUSH1 0x20 DUP4 ADD MSTORE PUSH2 0x140 PUSH1 0x40 DUP4 ADD DUP2 SWAP1 MSTORE PUSH1 0x0 SWAP2 PUSH2 0x1CEA DUP5 DUP4 ADD DUP14 PUSH2 0x1B11 JUMP JUMPDEST SWAP2 POP DUP4 DUP3 SUB PUSH1 0x60 DUP6 ADD MSTORE PUSH2 0x1CFE DUP3 DUP13 PUSH2 0x1B11 JUMP JUMPDEST SWAP2 POP DUP4 DUP3 SUB PUSH1 0x80 DUP6 ADD MSTORE PUSH2 0x1D12 DUP3 DUP12 PUSH2 0x1B11 JUMP JUMPDEST SWAP3 POP DUP9 PUSH1 0xA0 DUP6 ADD MSTORE DUP8 PUSH1 0xC0 DUP6 ADD MSTORE DUP1 DUP8 AND PUSH1 0xE0 DUP6 ADD MSTORE POP POP PUSH2 0x1D38 PUSH2 0x100 DUP4 ADD DUP6 PUSH2 0x1B6D JUMP JUMPDEST DUP3 PUSH2 0x120 DUP4 ADD MSTORE SWAP12 SWAP11 POP POP POP POP POP POP POP POP POP POP POP JUMP JUMPDEST PUSH4 0x4E487B71 PUSH1 0xE0 SHL PUSH1 0x0 MSTORE PUSH1 0x41 PUSH1 0x4 MSTORE PUSH1 0x24 PUSH1 0x0 REVERT JUMPDEST PUSH1 0x0 DUP3 PUSH1 0x1F DUP4 ADD SLT PUSH2 0x1D75 JUMPI PUSH1 0x0 DUP1 REVERT JUMPDEST DUP2 CALLDATALOAD PUSH8 0xFFFFFFFFFFFFFFFF DUP1 DUP3 GT ISZERO PUSH2 0x1D90 JUMPI PUSH2 0x1D90 PUSH2 0x1D4E JUMP JUMPDEST PUSH1 0x40 MLOAD PUSH1 0x1F DUP4 ADD PUSH1 0x1F NOT SWAP1 DUP2 AND PUSH1 0x3F ADD AND DUP2 ADD SWAP1 DUP3 DUP3 GT DUP2 DUP4 LT OR ISZERO PUSH2 0x1DB8 JUMPI PUSH2 0x1DB8 PUSH2 0x1D4E JUMP JUMPDEST DUP2 PUSH1 0x40 MSTORE DUP4 DUP2 MSTORE DUP7 PUSH1 0x20 DUP6 DUP9 ADD ADD GT ISZERO PUSH2 0x1DD1 JUMPI PUSH1 0x0 DUP1 REVERT JUMPDEST DUP4 PUSH1 0x20 DUP8 ADD PUSH1 0x20 DUP4 ADD CALLDATACOPY PUSH1 0x0 PUSH1 0x20 DUP6 DUP4 ADD ADD MSTORE DUP1 SWAP5 POP POP POP POP POP SWAP3 SWAP2 POP POP JUMP JUMPDEST PUSH1 0x0 DUP1 PUSH1 0x0 DUP1 PUSH1 0x80 DUP6 DUP8 SUB SLT ISZERO PUSH2 0x1E07 JUMPI PUSH1 0x0 DUP1 REVERT JUMPDEST DUP5 CALLDATALOAD PUSH8 0xFFFFFFFFFFFFFFFF DUP1 DUP3 GT ISZERO PUSH2 0x1E1F JUMPI PUSH1 0x0 DUP1 REVERT JUMPDEST PUSH2 0x1E2B DUP9 DUP4 DUP10 ADD PUSH2 0x1D64 JUMP JUMPDEST SWAP6 POP PUSH1 0x20 DUP8 ADD CALLDATALOAD SWAP2 POP DUP1 DUP3 GT ISZERO PUSH2 0x1E41 JUMPI PUSH1 0x0 DUP1 REVERT JUMPDEST PUSH2 0x1E4D DUP9 DUP4 DUP10 ADD PUSH2 0x1D64 JUMP JUMPDEST SWAP5 POP PUSH1 0x40 DUP8 ADD CALLDATALOAD SWAP2 POP DUP1 DUP3 GT ISZERO PUSH2 0x1E63 JUMPI PUSH1 0x0 DUP1 REVERT JUMPDEST POP PUSH2 0x1E70 DUP8 DUP3 DUP9 ADD PUSH2 0x1D64 JUMP JUMPDEST SWAP5 SWAP8 SWAP4 SWAP7 POP SWAP4 SWAP5 PUSH1 0x60 ADD CALLDATALOAD SWAP4 POP POP POP JUMP JUMPDEST PUSH1 0x0 DUP1 PUSH1 0x40 DUP4 DUP6 SUB SLT ISZERO PUSH2 0x1E94 JUMPI PUSH1 0x0 DUP1 REVERT JUMPDEST POP POP DUP1 CALLDATALOAD SWAP3 PUSH1 0x20 SWAP1 SWAP2 ADD CALLDATALOAD SWAP2 POP JUMP JUMPDEST PUSH1 0x1 DUP2 DUP2 SHR SWAP1 DUP3 AND DUP1 PUSH2 0x1EB7 JUMPI PUSH1 0x7F DUP3 AND SWAP2 POP JUMPDEST PUSH1 0x20 DUP3 LT DUP2 SUB PUSH2 0x1ED7 JUMPI PUSH4 0x4E487B71 PUSH1 0xE0 SHL PUSH1 0x0 MSTORE PUSH1 0x22 PUSH1 0x4 MSTORE PUSH1 0x24 PUSH1 0x0 REVERT JUMPDEST POP SWAP2 SWAP1 POP JUMP JUMPDEST PUSH4 0x4E487B71 PUSH1 0xE0 SHL PUSH1 0x0 MSTORE PUSH1 0x32 PUSH1 0x4 MSTORE PUSH1 0x24 PUSH1 0x0 REVERT JUMPDEST PUSH1 0x20 DUP1 DUP3 MSTORE PUSH1 0x10 SWAP1 DUP3 ADD MSTORE PUSH16 0x1BDB9B1E481CD95B1B195C8818D85B1B PUSH1 0x82 SHL PUSH1 0x40 DUP3 ADD MSTORE PUSH1 0x60 ADD SWAP1 JUMP JUMPDEST PUSH1 0x20 DUP1 DUP3 MSTORE PUSH1 0xC SWAP1 DUP3 ADD MSTORE PUSH12 0x57726F6E6720737461747573 PUSH1 0xA0 SHL PUSH1 0x40 DUP3 ADD MSTORE PUSH1 0x60 ADD SWAP1 JUMP JUMPDEST PUSH1 0x1F DUP3 GT ISZERO PUSH2 0x1F8D JUMPI PUSH1 0x0 DUP2 DUP2 MSTORE PUSH1 0x20 DUP2 KECCAK256 PUSH1 0x1F DUP6 ADD PUSH1 0x5 SHR DUP2 ADD PUSH1 0x20 DUP7 LT ISZERO PUSH2 0x1F6A JUMPI POP DUP1 JUMPDEST PUSH1 0x1F DUP6 ADD PUSH1 0x5 SHR DUP3 ADD SWAP2 POP JUMPDEST DUP2 DUP2 LT ISZERO PUSH2 0x1F89 JUMPI DUP3 DUP2 SSTORE PUSH1 0x1 ADD PUSH2 0x1F76 JUMP JUMPDEST POP POP POP JUMPDEST POP POP POP JUMP JUMPDEST DUP2 MLOAD PUSH8 0xFFFFFFFFFFFFFFFF DUP2 GT ISZERO PUSH2 0x1FAC JUMPI PUSH2 0x1FAC PUSH2 0x1D4E JUMP JUMPDEST PUSH2 0x1FC0 DUP2 PUSH2 0x1FBA DUP5 SLOAD PUSH2 0x1EA3 JUMP JUMPDEST DUP5 PUSH2 0x1F43 JUMP JUMPDEST PUSH1 0x20 DUP1 PUSH1 0x1F DUP4 GT PUSH1 0x1 DUP2 EQ PUSH2 0x1FF5 JUMPI PUSH1 0x0 DUP5 ISZERO PUSH2 0x1FDD JUMPI POP DUP6 DUP4 ADD MLOAD JUMPDEST PUSH1 0x0 NOT PUSH1 0x3 DUP7 SWAP1 SHL SHR NOT AND PUSH1 0x1 DUP6 SWAP1 SHL OR DUP6 SSTORE PUSH2 0x1F89 JUMP JUMPDEST PUSH1 0x0 DUP6 DUP2 MSTORE PUSH1 0x20 DUP2 KECCAK256 PUSH1 0x1F NOT DUP7 AND SWAP2 JUMPDEST DUP3 DUP2 LT ISZERO PUSH2 0x2024 JUMPI DUP9 DUP7 ADD MLOAD DUP3 SSTORE SWAP5 DUP5 ADD SWAP5 PUSH1 0x1 SWAP1 SWAP2 ADD SWAP1 DUP5 ADD PUSH2 0x2005 JUMP JUMPDEST POP DUP6 DUP3 LT ISZERO PUSH2 0x2042 JUMPI DUP8 DUP6 ADD MLOAD PUSH1 0x0 NOT PUSH1 0x3 DUP9 SWAP1 SHL PUSH1 0xF8 AND SHR NOT AND DUP2 SSTORE JUMPDEST POP POP POP POP POP PUSH1 0x1 SWAP1 DUP2 SHL ADD SWAP1 SSTORE POP JUMP JUMPDEST PUSH1 0x0 PUSH1 0x20 DUP3 DUP5 SUB SLT ISZERO PUSH2 0x2064 JUMPI PUSH1 0x0 DUP1 REVERT JUMPDEST POP MLOAD SWAP2 SWAP1 POP JUMP JUMPDEST PUSH4 0x4E487B71 PUSH1 0xE0 SHL PUSH1 0x0 MSTORE PUSH1 0x11 PUSH1 0x4 MSTORE PUSH1 0x24 PUSH1 0x0 REVERT JUMPDEST DUP2 DUP2 SUB DUP2 DUP2 GT ISZERO PUSH2 0x114E JUMPI PUSH2 0x114E PUSH2 0x206B JUMP JUMPDEST DUP1 DUP3 MUL DUP2 ISZERO DUP3 DUP3 DIV DUP5 EQ OR PUSH2 0x114E JUMPI PUSH2 0x114E PUSH2 0x206B JUMP JUMPDEST PUSH1 0x0 DUP3 PUSH2 0x20C8 JUMPI PUSH4 0x4E487B71 PUSH1 0xE0 SHL PUSH1 0x0 MSTORE PUSH1 0x12 PUSH1 0x4 MSTORE PUSH1 0x24 PUSH1 0x0 REVERT JUMPDEST POP DIV SWAP1 JUMP INVALID LOG2 PUSH5 0x6970667358 0x22 SLT KECCAK256 SWAP9 0xCA SWAP1 STATICCALL 0x1F SHR PUSH7 0x48C0D791D2C240 0xE4 DUP4 DUP9 0xD7 PUSH24 0x7DF3488052F5E86B1CFE24D8D264736F6C63430008130033 "
				},
				"gasEstimates": {
					"creation": {
						"codeDepositCost": "1690200",
						"executionCost": "infinite",
						"totalCost": "infinite"
					},
					"external": {
						"_convertUSDToETH(uint256)": "infinite",
						"addProduct(string,string,string,uint256)": "infinite",
						"cancelPurchase(uint256)": "infinite",
						"changeFee(uint256)": "24531",
						"changePrice(uint256,uint256)": "33375",
						"confirmRecieved(uint256)": "infinite",
						"factory()": "2404",
						"fee()": "2361",
						"getAllProducts()": "infinite",
						"products(uint256)": "infinite",
						"purchase(uint256)": "infinite",
						"remove(uint256)": "infinite",
						"sendProduct(uint256)": "35520"
					}
				},
				"methodIdentifiers": {
					"_convertUSDToETH(uint256)": "d30e1c9c",
					"addProduct(string,string,string,uint256)": "8165fed5",
					"cancelPurchase(uint256)": "c3634ddc",
					"changeFee(uint256)": "6a1db1bf",
					"changePrice(uint256,uint256)": "b3de019c",
					"confirmRecieved(uint256)": "d83ed881",
					"factory()": "c45a0155",
					"fee()": "ddca3f43",
					"getAllProducts()": "02ee3a52",
					"products(uint256)": "7acc0b20",
					"purchase(uint256)": "efef39a1",
					"remove(uint256)": "4cc82215",
					"sendProduct(uint256)": "24df201e"
				}
			},
			"storageLayout": {
				"storage": [
					{
						"astId": 14,
						"contract": "marketplace-contract/Market.sol:Market",
						"label": "factory",
						"offset": 0,
						"slot": "0",
						"type": "t_address"
					},
					{
						"astId": 17,
						"contract": "marketplace-contract/Market.sol:Market",
						"label": "fee",
						"offset": 0,
						"slot": "1",
						"type": "t_uint256"
					},
					{
						"astId": 21,
						"contract": "marketplace-contract/Market.sol:Market",
						"label": "products",
						"offset": 0,
						"slot": "2",
						"type": "t_array(t_struct(Product)49_storage)dyn_storage"
					}
				],
				"types": {
					"t_address": {
						"encoding": "inplace",
						"label": "address",
						"numberOfBytes": "20"
					},
					"t_address_payable": {
						"encoding": "inplace",
						"label": "address payable",
						"numberOfBytes": "20"
					},
					"t_array(t_struct(Product)49_storage)dyn_storage": {
						"base": "t_struct(Product)49_storage",
						"encoding": "dynamic_array",
						"label": "struct Market.Product[]",
						"numberOfBytes": "32"
					},
					"t_enum(Status)27": {
						"encoding": "inplace",
						"label": "enum Market.Status",
						"numberOfBytes": "1"
					},
					"t_string_storage": {
						"encoding": "bytes",
						"label": "string",
						"numberOfBytes": "32"
					},
					"t_struct(Product)49_storage": {
						"encoding": "inplace",
						"label": "struct Market.Product",
						"members": [
							{
								"astId": 29,
								"contract": "marketplace-contract/Market.sol:Market",
								"label": "id",
								"offset": 0,
								"slot": "0",
								"type": "t_uint256"
							},
							{
								"astId": 31,
								"contract": "marketplace-contract/Market.sol:Market",
								"label": "seller",
								"offset": 0,
								"slot": "1",
								"type": "t_address_payable"
							},
							{
								"astId": 33,
								"contract": "marketplace-contract/Market.sol:Market",
								"label": "name",
								"offset": 0,
								"slot": "2",
								"type": "t_string_storage"
							},
							{
								"astId": 35,
								"contract": "marketplace-contract/Market.sol:Market",
								"label": "description",
								"offset": 0,
								"slot": "3",
								"type": "t_string_storage"
							},
							{
								"astId": 37,
								"contract": "marketplace-contract/Market.sol:Market",
								"label": "image",
								"offset": 0,
								"slot": "4",
								"type": "t_string_storage"
							},
							{
								"astId": 39,
								"contract": "marketplace-contract/Market.sol:Market",
								"label": "priceInUSD",
								"offset": 0,
								"slot": "5",
								"type": "t_uint256"
							},
							{
								"astId": 41,
								"contract": "marketplace-contract/Market.sol:Market",
								"label": "buyPriceInETH",
								"offset": 0,
								"slot": "6",
								"type": "t_uint256"
							},
							{
								"astId": 43,
								"contract": "marketplace-contract/Market.sol:Market",
								"label": "buyer",
								"offset": 0,
								"slot": "7",
								"type": "t_address_payable"
							},
							{
								"astId": 46,
								"contract": "marketplace-contract/Market.sol:Market",
								"label": "status",
								"offset": 20,
								"slot": "7",
								"type": "t_enum(Status)27"
							},
							{
								"astId": 48,
								"contract": "marketplace-contract/Market.sol:Market",
								"label": "listed_on",
								"offset": 0,
								"slot": "8",
								"type": "t_uint256"
							}
						],
						"numberOfBytes": "288"
					},
					"t_uint256": {
						"encoding": "inplace",
						"label": "uint256",
						"numberOfBytes": "32"
					}
				}
			},
			"userdoc": {
				"kind": "user",
				"methods": {},
				"version": 1
			}
		}
	}
}